{
  "contractName": "Registry",
  "abi": [
    {
      "constant": true,
      "inputs": [
        {
          "internalType": "address",
          "name": "",
          "type": "address"
        }
      ],
      "name": "predicates",
      "outputs": [
        {
          "internalType": "enum Registry.Type",
          "name": "_type",
          "type": "uint8"
        }
      ],
      "payable": false,
      "stateMutability": "view",
      "type": "function"
    },
    {
      "constant": true,
      "inputs": [],
      "name": "governance",
      "outputs": [
        {
          "internalType": "contract IGovernance",
          "name": "",
          "type": "address"
        }
      ],
      "payable": false,
      "stateMutability": "view",
      "type": "function"
    },
    {
      "constant": true,
      "inputs": [
        {
          "internalType": "address",
          "name": "",
          "type": "address"
        }
      ],
      "name": "childToRootToken",
      "outputs": [
        {
          "internalType": "address",
          "name": "",
          "type": "address"
        }
      ],
      "payable": false,
      "stateMutability": "view",
      "type": "function"
    },
    {
      "constant": true,
      "inputs": [],
      "name": "erc20Predicate",
      "outputs": [
        {
          "internalType": "address",
          "name": "",
          "type": "address"
        }
      ],
      "payable": false,
      "stateMutability": "view",
      "type": "function"
    },
    {
      "constant": true,
      "inputs": [
        {
          "internalType": "address",
          "name": "",
          "type": "address"
        }
      ],
      "name": "proofValidatorContracts",
      "outputs": [
        {
          "internalType": "bool",
          "name": "",
          "type": "bool"
        }
      ],
      "payable": false,
      "stateMutability": "view",
      "type": "function"
    },
    {
      "constant": true,
      "inputs": [],
      "name": "erc721Predicate",
      "outputs": [
        {
          "internalType": "address",
          "name": "",
          "type": "address"
        }
      ],
      "payable": false,
      "stateMutability": "view",
      "type": "function"
    },
    {
      "constant": true,
      "inputs": [
        {
          "internalType": "address",
          "name": "",
          "type": "address"
        }
      ],
      "name": "isERC721",
      "outputs": [
        {
          "internalType": "bool",
          "name": "",
          "type": "bool"
        }
      ],
      "payable": false,
      "stateMutability": "view",
      "type": "function"
    },
    {
      "constant": true,
      "inputs": [
        {
          "internalType": "address",
          "name": "",
          "type": "address"
        }
      ],
      "name": "rootToChildToken",
      "outputs": [
        {
          "internalType": "address",
          "name": "",
          "type": "address"
        }
      ],
      "payable": false,
      "stateMutability": "view",
      "type": "function"
    },
    {
      "inputs": [
        {
          "internalType": "address",
          "name": "_governance",
          "type": "address"
        }
      ],
      "payable": false,
      "stateMutability": "nonpayable",
      "type": "constructor"
    },
    {
      "anonymous": false,
      "inputs": [
        {
          "indexed": true,
          "internalType": "address",
          "name": "rootToken",
          "type": "address"
        },
        {
          "indexed": true,
          "internalType": "address",
          "name": "childToken",
          "type": "address"
        }
      ],
      "name": "TokenMapped",
      "type": "event"
    },
    {
      "anonymous": false,
      "inputs": [
        {
          "indexed": true,
          "internalType": "address",
          "name": "validator",
          "type": "address"
        },
        {
          "indexed": true,
          "internalType": "address",
          "name": "from",
          "type": "address"
        }
      ],
      "name": "ProofValidatorAdded",
      "type": "event"
    },
    {
      "anonymous": false,
      "inputs": [
        {
          "indexed": true,
          "internalType": "address",
          "name": "validator",
          "type": "address"
        },
        {
          "indexed": true,
          "internalType": "address",
          "name": "from",
          "type": "address"
        }
      ],
      "name": "ProofValidatorRemoved",
      "type": "event"
    },
    {
      "anonymous": false,
      "inputs": [
        {
          "indexed": true,
          "internalType": "address",
          "name": "predicate",
          "type": "address"
        },
        {
          "indexed": true,
          "internalType": "address",
          "name": "from",
          "type": "address"
        }
      ],
      "name": "PredicateAdded",
      "type": "event"
    },
    {
      "anonymous": false,
      "inputs": [
        {
          "indexed": true,
          "internalType": "address",
          "name": "predicate",
          "type": "address"
        },
        {
          "indexed": true,
          "internalType": "address",
          "name": "from",
          "type": "address"
        }
      ],
      "name": "PredicateRemoved",
      "type": "event"
    },
    {
      "anonymous": false,
      "inputs": [
        {
          "indexed": true,
          "internalType": "bytes32",
          "name": "key",
          "type": "bytes32"
        },
        {
          "indexed": true,
          "internalType": "address",
          "name": "previousContract",
          "type": "address"
        },
        {
          "indexed": true,
          "internalType": "address",
          "name": "newContract",
          "type": "address"
        }
      ],
      "name": "ContractMapUpdated",
      "type": "event"
    },
    {
      "constant": false,
      "inputs": [
        {
          "internalType": "bytes32",
          "name": "_key",
          "type": "bytes32"
        },
        {
          "internalType": "address",
          "name": "_address",
          "type": "address"
        }
      ],
      "name": "updateContractMap",
      "outputs": [],
      "payable": false,
      "stateMutability": "nonpayable",
      "type": "function"
    },
    {
      "constant": false,
      "inputs": [
        {
          "internalType": "address",
          "name": "_rootToken",
          "type": "address"
        },
        {
          "internalType": "address",
          "name": "_childToken",
          "type": "address"
        },
        {
          "internalType": "bool",
          "name": "_isERC721",
          "type": "bool"
        }
      ],
      "name": "mapToken",
      "outputs": [],
      "payable": false,
      "stateMutability": "nonpayable",
      "type": "function"
    },
    {
      "constant": false,
      "inputs": [
        {
          "internalType": "address",
          "name": "predicate",
          "type": "address"
        }
      ],
      "name": "addErc20Predicate",
      "outputs": [],
      "payable": false,
      "stateMutability": "nonpayable",
      "type": "function"
    },
    {
      "constant": false,
      "inputs": [
        {
          "internalType": "address",
          "name": "predicate",
          "type": "address"
        }
      ],
      "name": "addErc721Predicate",
      "outputs": [],
      "payable": false,
      "stateMutability": "nonpayable",
      "type": "function"
    },
    {
      "constant": false,
      "inputs": [
        {
          "internalType": "address",
          "name": "predicate",
          "type": "address"
        },
        {
          "internalType": "enum Registry.Type",
          "name": "_type",
          "type": "uint8"
        }
      ],
      "name": "addPredicate",
      "outputs": [],
      "payable": false,
      "stateMutability": "nonpayable",
      "type": "function"
    },
    {
      "constant": false,
      "inputs": [
        {
          "internalType": "address",
          "name": "predicate",
          "type": "address"
        }
      ],
      "name": "removePredicate",
      "outputs": [],
      "payable": false,
      "stateMutability": "nonpayable",
      "type": "function"
    },
    {
      "constant": true,
      "inputs": [],
      "name": "getValidatorShareAddress",
      "outputs": [
        {
          "internalType": "address",
          "name": "",
          "type": "address"
        }
      ],
      "payable": false,
      "stateMutability": "view",
      "type": "function"
    },
    {
      "constant": true,
      "inputs": [],
      "name": "getWethTokenAddress",
      "outputs": [
        {
          "internalType": "address",
          "name": "",
          "type": "address"
        }
      ],
      "payable": false,
      "stateMutability": "view",
      "type": "function"
    },
    {
      "constant": true,
      "inputs": [],
      "name": "getDepositManagerAddress",
      "outputs": [
        {
          "internalType": "address",
          "name": "",
          "type": "address"
        }
      ],
      "payable": false,
      "stateMutability": "view",
      "type": "function"
    },
    {
      "constant": true,
      "inputs": [],
      "name": "getStakeManagerAddress",
      "outputs": [
        {
          "internalType": "address",
          "name": "",
          "type": "address"
        }
      ],
      "payable": false,
      "stateMutability": "view",
      "type": "function"
    },
    {
      "constant": true,
      "inputs": [],
      "name": "getSlashingManagerAddress",
      "outputs": [
        {
          "internalType": "address",
          "name": "",
          "type": "address"
        }
      ],
      "payable": false,
      "stateMutability": "view",
      "type": "function"
    },
    {
      "constant": true,
      "inputs": [],
      "name": "getWithdrawManagerAddress",
      "outputs": [
        {
          "internalType": "address",
          "name": "",
          "type": "address"
        }
      ],
      "payable": false,
      "stateMutability": "view",
      "type": "function"
    },
    {
      "constant": true,
      "inputs": [],
      "name": "getChildChainAndStateSender",
      "outputs": [
        {
          "internalType": "address",
          "name": "",
          "type": "address"
        },
        {
          "internalType": "address",
          "name": "",
          "type": "address"
        }
      ],
      "payable": false,
      "stateMutability": "view",
      "type": "function"
    },
    {
      "constant": true,
      "inputs": [
        {
          "internalType": "address",
          "name": "_token",
          "type": "address"
        }
      ],
      "name": "isTokenMapped",
      "outputs": [
        {
          "internalType": "bool",
          "name": "",
          "type": "bool"
        }
      ],
      "payable": false,
      "stateMutability": "view",
      "type": "function"
    },
    {
      "constant": true,
      "inputs": [
        {
          "internalType": "address",
          "name": "_token",
          "type": "address"
        }
      ],
      "name": "isTokenMappedAndIsErc721",
      "outputs": [
        {
          "internalType": "bool",
          "name": "",
          "type": "bool"
        }
      ],
      "payable": false,
      "stateMutability": "view",
      "type": "function"
    },
    {
      "constant": true,
      "inputs": [
        {
          "internalType": "address",
          "name": "_token",
          "type": "address"
        }
      ],
      "name": "isTokenMappedAndGetPredicate",
      "outputs": [
        {
          "internalType": "address",
          "name": "",
          "type": "address"
        }
      ],
      "payable": false,
      "stateMutability": "view",
      "type": "function"
    },
    {
      "constant": true,
      "inputs": [
        {
          "internalType": "address",
          "name": "childToken",
          "type": "address"
        }
      ],
      "name": "isChildTokenErc721",
      "outputs": [
        {
          "internalType": "bool",
          "name": "",
          "type": "bool"
        }
      ],
      "payable": false,
      "stateMutability": "view",
      "type": "function"
    }
  ],
  "bytecode": "0x608060405234801561001057600080fd5b50604051610f29380380610f298339818101604052602081101561003357600080fd5b5051600080546001600160a01b039092166001600160a01b0319909216919091179055610ec4806100656000396000f3fe608060405234801561001057600080fd5b50600436106101735760003560e01c8063648b8178116100de578063c4b875d311610097578063d580b41811610071578063d580b41814610413578063daa09e541461041b578063e117694b14610441578063ea60c7c41461047957610173565b8063c4b875d3146103bf578063c881560f146103e5578063ce261186146103ed57610173565b8063648b81781461032d5780636e86b7701461035b5780638b9c948914610381578063930df82e14610389578063b686497614610391578063bbfe7cd31461039957610173565b80632d4e1dc7116101305780632d4e1dc71461023a57806337b1d585146102605780633af395e5146102aa5780635aa6e675146102d9578063627942da146102e15780636416c1831461030757610173565b806301f07db51461017857806305f20595146101b25780630c9effd0146101da5780631c9486ef146101fe5780632026cfdc14610206578063287be3e414610232575b600080fd5b61019e6004803603602081101561018e57600080fd5b50356001600160a01b031661049f565b604080519115158252519081900360200190f35b6101d8600480360360208110156101c857600080fd5b50356001600160a01b0316610511565b005b6101e261061f565b604080516001600160a01b039092168252519081900360200190f35b6101e261065a565b6101d86004803603604081101561021c57600080fd5b50803590602001356001600160a01b0316610695565b6101e2610753565b6101d86004803603602081101561025057600080fd5b50356001600160a01b031661078c565b6102866004803603602081101561027657600080fd5b50356001600160a01b0316610843565b6040518082600381111561029657fe5b60ff16815260200191505060405180910390f35b6101d8600480360360408110156102c057600080fd5b5080356001600160a01b0316906020013560ff16610858565b6101e2610988565b6101e2600480360360208110156102f757600080fd5b50356001600160a01b0316610997565b61019e6004803603602081101561031d57600080fd5b50356001600160a01b03166109ca565b6103356109ea565b604080516001600160a01b03938416815291909216602082015281519081900390910190f35b6101e26004803603602081101561037157600080fd5b50356001600160a01b0316610a4f565b6101e2610a6a565b6101e2610aa0565b6101e2610adc565b61019e600480360360208110156103af57600080fd5b50356001600160a01b0316610aeb565b61019e600480360360208110156103d557600080fd5b50356001600160a01b0316610b7b565b6101e2610b90565b6101d86004803603602081101561040357600080fd5b50356001600160a01b0316610b9f565b6101e2610c0e565b61019e6004803603602081101561043157600080fd5b50356001600160a01b0316610c4a565b6101d86004803603606081101561045757600080fd5b506001600160a01b038135811691602081013590911690604001351515610c5f565b6101e26004803603602081101561048f57600080fd5b50356001600160a01b0316610e29565b60006104aa826109ca565b6104ee576040805162461bcd60e51b815260206004820152601060248201526f1513d2d15397d393d517d3505414115160821b604482015290519081900360640190fd5b506001600160a01b03811660009081526007602052604090205460ff165b919050565b6000546001600160a01b0316331461055a5760405162461bcd60e51b8152600401808060200182810382526026815260200180610e456026913960400191505060405180910390fd5b6001600160a01b03811660009081526008602052604081205460ff16600381111561058157fe5b14156105d4576040805162461bcd60e51b815260206004820152601860248201527f50726564696361746520646f6573206e6f742065786973740000000000000000604482015290519081900360640190fd5b6001600160a01b038116600081815260086020526040808220805460ff19169055513392917fd8b3c0235cefc5e19393dedb56c1ece6b41447ef932d7c6b34eb150a4b5d5f4991a350565b604080516d3232b837b9b4ba26b0b730b3b2b960911b8152815190819003600e0190206000908152600360205220546001600160a01b031690565b604080516d76616c696461746f72536861726560901b8152815190819003600e0190206000908152600360205220546001600160a01b031690565b6000546001600160a01b031633146106de5760405162461bcd60e51b8152600401808060200182810382526026815260200180610e456026913960400191505060405180910390fd5b6000828152600360205260408082205490516001600160a01b038085169392169185917fffb8cfd9cecbede837eec100fb8e17560ea22bf018e065366ee5e2ff5e0bd10c9190a460009182526003602052604090912080546001600160a01b0319166001600160a01b03909216919091179055565b604080516b39ba30b5b2a6b0b730b3b2b960a11b8152815190819003600c0190206000908152600360205220546001600160a01b031690565b6000546001600160a01b031633146107d55760405162461bcd60e51b8152600401808060200182810382526026815260200180610e456026913960400191505060405180910390fd5b6001600160a01b03811661081a5760405162461bcd60e51b8152600401808060200182810382526025815260200180610e6b6025913960400191505060405180910390fd5b600180546001600160a01b0319166001600160a01b038316178155610840908290610858565b50565b60086020526000908152604090205460ff1681565b6000546001600160a01b031633146108a15760405162461bcd60e51b8152600401808060200182810382526026815260200180610e456026913960400191505060405180910390fd5b6001600160a01b03821660009081526008602052604081205460ff1660038111156108c857fe5b1461091a576040805162461bcd60e51b815260206004820152601760248201527f50726564696361746520616c7265616479206164646564000000000000000000604482015290519081900360640190fd5b6001600160a01b0382166000908152600860205260409020805482919060ff1916600183600381111561094957fe5b021790555060405133906001600160a01b038416907f0ea727f9bef04eb9a0e0da4d8fbb5b5319ddac03834baded53f84e0dcdddfedf90600090a35050565b6000546001600160a01b031681565b60006109a28261049f565b156109b957506002546001600160a01b031661050c565b50506001546001600160a01b031690565b6001600160a01b0390811660009081526004602052604090205416151590565b604080516931b434b63221b430b4b760b11b8152815190819003600a018120600090815260036020818152848320546a39ba30ba32a9b2b73232b960a91b8552855194859003600b0190942083525291909120546001600160a01b0391821691169091565b6005602052600090815260409020546001600160a01b031681565b60408051683bb2ba342a37b5b2b760b91b815281519081900360090190206000908152600360205220546001600160a01b031690565b604080516e3bb4ba34323930bba6b0b730b3b2b960891b8152815190819003600f0190206000908152600360205220546001600160a01b031690565b6001546001600160a01b031681565b6001600160a01b0380821660009081526005602052604081205490911680610b5a576040805162461bcd60e51b815260206004820152601960248201527f4368696c6420746f6b656e206973206e6f74206d617070656400000000000000604482015290519081900360640190fd5b6001600160a01b031660009081526007602052604090205460ff1692915050565b60066020526000908152604090205460ff1681565b6002546001600160a01b031681565b6000546001600160a01b03163314610be85760405162461bcd60e51b8152600401808060200182810382526026815260200180610e456026913960400191505060405180910390fd5b600280546001600160a01b0319166001600160a01b038316178155610840908290610858565b604080516e39b630b9b434b733a6b0b730b3b2b960891b8152815190819003600f0190206000908152600360205220546001600160a01b031690565b60076020526000908152604090205460ff1681565b6000546001600160a01b03163314610ca85760405162461bcd60e51b8152600401808060200182810382526026815260200180610e456026913960400191505060405180910390fd5b6001600160a01b03831615801590610cc857506001600160a01b03821615155b610d11576040805162461bcd60e51b8152602060048201526015602482015274494e56414c49445f544f4b454e5f4144445245535360581b604482015290519081900360640190fd5b6001600160a01b0380841660008181526004602081815260408084208054878a166001600160a01b031991821681179092559085526005835281852080549091168617905584845260078252808420805488151560ff1990911617905580516e3bb4ba34323930bba6b0b730b3b2b960891b8152815190819003600f0181208552600390925280842054639145e6df60e01b8352928201949094529251931692639145e6df92602480820193929182900301818387803b158015610dd457600080fd5b505af1158015610de8573d6000803e3d6000fd5b50506040516001600160a01b038086169350861691507f85920d35e6c72f6b2affffa04298b0cecfeba86e4a9f407df661f1cb8ab5e61790600090a3505050565b6004602052600090815260409020546001600160a01b03168156fe4f6e6c7920676f7665726e616e636520636f6e747261637420697320617574686f72697a656443616e206e6f7420616464206e756c6c206164647265737320617320707265646963617465a265627a7a72315820beb6dcf755b140cd3afae0a878558453a676f3d559645890ef5868d8d61834cc64736f6c634300050b0032",
  "source": "pragma solidity ^0.5.2;\n\nimport {Governable} from \"./governance/Governable.sol\";\nimport {IWithdrawManager} from \"../root/withdrawManager/IWithdrawManager.sol\";\n\n\ncontract Registry is Governable {\n    // @todo hardcode constants\n    bytes32 private constant WETH_TOKEN = keccak256(\"wethToken\");\n    bytes32 private constant DEPOSIT_MANAGER = keccak256(\"depositManager\");\n    bytes32 private constant STAKE_MANAGER = keccak256(\"stakeManager\");\n    bytes32 private constant VALIDATOR_SHARE = keccak256(\"validatorShare\");\n    bytes32 private constant WITHDRAW_MANAGER = keccak256(\"withdrawManager\");\n    bytes32 private constant CHILD_CHAIN = keccak256(\"childChain\");\n    bytes32 private constant STATE_SENDER = keccak256(\"stateSender\");\n    bytes32 private constant SLASHING_MANAGER = keccak256(\"slashingManager\");\n\n    address public erc20Predicate;\n    address public erc721Predicate;\n\n    mapping(bytes32 => address) contractMap;\n    mapping(address => address) public rootToChildToken;\n    mapping(address => address) public childToRootToken;\n    mapping(address => bool) public proofValidatorContracts;\n    mapping(address => bool) public isERC721;\n\n    enum Type {Invalid, ERC20, ERC721, Custom}\n    struct Predicate {\n        Type _type;\n    }\n    mapping(address => Predicate) public predicates;\n\n    event TokenMapped(address indexed rootToken, address indexed childToken);\n    event ProofValidatorAdded(address indexed validator, address indexed from);\n    event ProofValidatorRemoved(\n        address indexed validator,\n        address indexed from\n    );\n    event PredicateAdded(address indexed predicate, address indexed from);\n    event PredicateRemoved(address indexed predicate, address indexed from);\n    event ContractMapUpdated(\n        bytes32 indexed key,\n        address indexed previousContract,\n        address indexed newContract\n    );\n\n    constructor(address _governance) public Governable(_governance) {}\n\n    function updateContractMap(bytes32 _key, address _address)\n        external\n        onlyGovernance\n    {\n        emit ContractMapUpdated(_key, contractMap[_key], _address);\n        contractMap[_key] = _address;\n    }\n\n    /**\n     * @dev Map root token to child token\n     * @param _rootToken Token address on the root chain\n     * @param _childToken Token address on the child chain\n     * @param _isERC721 Is the token being mapped ERC721\n     */\n    function mapToken(address _rootToken, address _childToken, bool _isERC721)\n        external\n        onlyGovernance\n    {\n        require(\n            _rootToken != address(0x0) && _childToken != address(0x0),\n            \"INVALID_TOKEN_ADDRESS\"\n        );\n        rootToChildToken[_rootToken] = _childToken;\n        childToRootToken[_childToken] = _rootToken;\n        isERC721[_rootToken] = _isERC721;\n        IWithdrawManager(contractMap[WITHDRAW_MANAGER]).createExitQueue(\n            _rootToken\n        );\n        emit TokenMapped(_rootToken, _childToken);\n    }\n\n    function addErc20Predicate(address predicate) public onlyGovernance {\n        require(\n            predicate != address(0x0),\n            \"Can not add null address as predicate\"\n        );\n        erc20Predicate = predicate;\n        addPredicate(predicate, Type.ERC20);\n    }\n\n    function addErc721Predicate(address predicate) public onlyGovernance {\n        erc721Predicate = predicate;\n        addPredicate(predicate, Type.ERC721);\n    }\n\n    function addPredicate(address predicate, Type _type) public onlyGovernance {\n        require(\n            predicates[predicate]._type == Type.Invalid,\n            \"Predicate already added\"\n        );\n        predicates[predicate]._type = _type;\n        emit PredicateAdded(predicate, msg.sender);\n    }\n\n    function removePredicate(address predicate) public onlyGovernance {\n        require(\n            predicates[predicate]._type != Type.Invalid,\n            \"Predicate does not exist\"\n        );\n        delete predicates[predicate];\n        emit PredicateRemoved(predicate, msg.sender);\n    }\n\n    function getValidatorShareAddress() public view returns (address) {\n        return contractMap[VALIDATOR_SHARE];\n    }\n\n    function getWethTokenAddress() public view returns (address) {\n        return contractMap[WETH_TOKEN];\n    }\n\n    function getDepositManagerAddress() public view returns (address) {\n        return contractMap[DEPOSIT_MANAGER];\n    }\n\n    function getStakeManagerAddress() public view returns (address) {\n        return contractMap[STAKE_MANAGER];\n    }\n\n    function getSlashingManagerAddress() public view returns (address) {\n        return contractMap[SLASHING_MANAGER];\n    }\n\n    function getWithdrawManagerAddress() public view returns (address) {\n        return contractMap[WITHDRAW_MANAGER];\n    }\n\n    function getChildChainAndStateSender()\n        public\n        view\n        returns (address, address)\n    {\n        return (contractMap[CHILD_CHAIN], contractMap[STATE_SENDER]);\n    }\n\n    function isTokenMapped(address _token) public view returns (bool) {\n        return rootToChildToken[_token] != address(0x0);\n    }\n\n    function isTokenMappedAndIsErc721(address _token)\n        public\n        view\n        returns (bool)\n    {\n        require(isTokenMapped(_token), \"TOKEN_NOT_MAPPED\");\n        return isERC721[_token];\n    }\n\n    function isTokenMappedAndGetPredicate(address _token)\n        public\n        view\n        returns (address)\n    {\n        if (isTokenMappedAndIsErc721(_token)) {\n            return erc721Predicate;\n        }\n        return erc20Predicate;\n    }\n\n    function isChildTokenErc721(address childToken) public view returns (bool) {\n        address rootToken = childToRootToken[childToken];\n        require(rootToken != address(0x0), \"Child token is not mapped\");\n        return isERC721[rootToken];\n    }\n}\n",
  "sourcePath": "/Users/arth/Documents/Projects/contracts/contracts/common/Registry.sol",
  "compiler": {
    "name": "solc",
    "version": "0.5.11+commit.c082d0b4.Emscripten.clang"
  },
  "schemaVersion": "3.0.14",
  "updatedAt": "2020-05-27T11:07:39.684Z",
  "devdoc": {
    "methods": {
      "mapToken(address,address,bool)": {
        "details": "Map root token to child token",
        "params": {
          "_childToken": "Token address on the child chain",
          "_isERC721": "Is the token being mapped ERC721",
          "_rootToken": "Token address on the root chain"
        }
      }
    }
  },
  "userdoc": {
    "methods": {}
  }
}