{
  "contractName": "SlashingManager",
  "abi": [
    {
      "constant": true,
      "inputs": [],
      "name": "proposerRate",
      "outputs": [
        {
          "internalType": "uint256",
          "name": "",
          "type": "uint256"
        }
      ],
      "payable": false,
      "stateMutability": "view",
      "type": "function"
    },
    {
      "constant": true,
      "inputs": [],
      "name": "jailCheckpoints",
      "outputs": [
        {
          "internalType": "uint256",
          "name": "",
          "type": "uint256"
        }
      ],
      "payable": false,
      "stateMutability": "view",
      "type": "function"
    },
    {
      "constant": false,
      "inputs": [],
      "name": "renounceOwnership",
      "outputs": [],
      "payable": false,
      "stateMutability": "nonpayable",
      "type": "function"
    },
    {
      "constant": true,
      "inputs": [],
      "name": "registry",
      "outputs": [
        {
          "internalType": "contract Registry",
          "name": "",
          "type": "address"
        }
      ],
      "payable": false,
      "stateMutability": "view",
      "type": "function"
    },
    {
      "constant": true,
      "inputs": [],
      "name": "owner",
      "outputs": [
        {
          "internalType": "address",
          "name": "",
          "type": "address"
        }
      ],
      "payable": false,
      "stateMutability": "view",
      "type": "function"
    },
    {
      "constant": true,
      "inputs": [],
      "name": "isOwner",
      "outputs": [
        {
          "internalType": "bool",
          "name": "",
          "type": "bool"
        }
      ],
      "payable": false,
      "stateMutability": "view",
      "type": "function"
    },
    {
      "constant": true,
      "inputs": [],
      "name": "slashingNonce",
      "outputs": [
        {
          "internalType": "uint256",
          "name": "",
          "type": "uint256"
        }
      ],
      "payable": false,
      "stateMutability": "view",
      "type": "function"
    },
    {
      "constant": true,
      "inputs": [],
      "name": "reportRate",
      "outputs": [
        {
          "internalType": "uint256",
          "name": "",
          "type": "uint256"
        }
      ],
      "payable": false,
      "stateMutability": "view",
      "type": "function"
    },
    {
      "constant": true,
      "inputs": [],
      "name": "VOTE_TYPE",
      "outputs": [
        {
          "internalType": "uint8",
          "name": "",
          "type": "uint8"
        }
      ],
      "payable": false,
      "stateMutability": "view",
      "type": "function"
    },
    {
      "constant": true,
      "inputs": [],
      "name": "logger",
      "outputs": [
        {
          "internalType": "contract StakingInfo",
          "name": "",
          "type": "address"
        }
      ],
      "payable": false,
      "stateMutability": "view",
      "type": "function"
    },
    {
      "constant": false,
      "inputs": [
        {
          "internalType": "address",
          "name": "newOwner",
          "type": "address"
        }
      ],
      "name": "transferOwnership",
      "outputs": [],
      "payable": false,
      "stateMutability": "nonpayable",
      "type": "function"
    },
    {
      "constant": true,
      "inputs": [],
      "name": "heimdallId",
      "outputs": [
        {
          "internalType": "bytes32",
          "name": "",
          "type": "bytes32"
        }
      ],
      "payable": false,
      "stateMutability": "view",
      "type": "function"
    },
    {
      "inputs": [
        {
          "internalType": "address",
          "name": "_registry",
          "type": "address"
        },
        {
          "internalType": "address",
          "name": "_logger",
          "type": "address"
        },
        {
          "internalType": "string",
          "name": "_heimdallId",
          "type": "string"
        }
      ],
      "payable": false,
      "stateMutability": "nonpayable",
      "type": "constructor"
    },
    {
      "anonymous": false,
      "inputs": [
        {
          "indexed": true,
          "internalType": "address",
          "name": "previousOwner",
          "type": "address"
        },
        {
          "indexed": true,
          "internalType": "address",
          "name": "newOwner",
          "type": "address"
        }
      ],
      "name": "OwnershipTransferred",
      "type": "event"
    },
    {
      "constant": false,
      "inputs": [
        {
          "internalType": "bytes",
          "name": "data",
          "type": "bytes"
        },
        {
          "internalType": "bytes",
          "name": "sigs",
          "type": "bytes"
        }
      ],
      "name": "updateSlashedAmounts",
      "outputs": [],
      "payable": false,
      "stateMutability": "nonpayable",
      "type": "function"
    },
    {
      "constant": false,
      "inputs": [
        {
          "internalType": "uint256",
          "name": "newReportRate",
          "type": "uint256"
        }
      ],
      "name": "updateReportRate",
      "outputs": [],
      "payable": false,
      "stateMutability": "nonpayable",
      "type": "function"
    },
    {
      "constant": false,
      "inputs": [
        {
          "internalType": "uint256",
          "name": "newProposerRate",
          "type": "uint256"
        }
      ],
      "name": "updateProposerRate",
      "outputs": [],
      "payable": false,
      "stateMutability": "nonpayable",
      "type": "function"
    },
    {
      "constant": false,
      "inputs": [
        {
          "internalType": "string",
          "name": "_heimdallId",
          "type": "string"
        }
      ],
      "name": "setHeimdallId",
      "outputs": [],
      "payable": false,
      "stateMutability": "nonpayable",
      "type": "function"
    },
    {
      "constant": false,
      "inputs": [
        {
          "internalType": "uint256",
          "name": "value",
          "type": "uint256"
        },
        {
          "internalType": "address",
          "name": "token",
          "type": "address"
        },
        {
          "internalType": "address",
          "name": "destination",
          "type": "address"
        }
      ],
      "name": "drainTokens",
      "outputs": [],
      "payable": false,
      "stateMutability": "nonpayable",
      "type": "function"
    }
  ],
  "bytecode": "0x608060405260056001556032600255600560035534801561001f57600080fd5b506040516111d83803806111d88339818101604052606081101561004257600080fd5b8151602083015160408085018051915193959294830192918464010000000082111561006d57600080fd5b90830190602082018581111561008257600080fd5b825164010000000081118282018810171561009c57600080fd5b82525081516020918201929091019080838360005b838110156100c95781810151838201526020016100b1565b50505050905090810190601f1680156100f65780820380516001836020036101000a031916815260200191505b506040819052600780546001600160a01b0319163317908190556001600160a01b03169350600092507f8be0079c531659141344cd1fd0a4f28419497f9722a3daafe3b4186f6b6457e091508290a3600580546001600160a01b038086166001600160a01b03199283161790925560068054928516929091169190911790556040518151829160209081019182918401908083835b602083106101aa5780518252601f19909201916020918201910161018b565b6001836020036101000a03801982511681845116808217855250505050505090500191505060405160208183030381529060405280519060200120600081905550505050610fdb806101fd6000396000f3fe608060405234801561001057600080fd5b506004361061010b5760003560e01c8063a2d32176116100a2578063e5bbd4a711610071578063e5bbd4a71461032c578063ea0688b314610349578063f24ccbfe146103ed578063f2fde38b146103f5578063fbc3dd361461041b5761010b565b8063a2d32176146102e1578063b7a071e9146102e9578063c25593be14610306578063d5b844eb1461030e5761010b565b8063715018a6116100de578063715018a6146102915780637b103999146102995780638da5cb5b146102bd5780638f32d59b146102c55761010b565b80633199e3051461011057806343f7505a1461012a578063556b2ce91461016057806367a4f7c614610168575b600080fd5b610118610423565b60408051918252519081900360200190f35b61015e6004803603606081101561014057600080fd5b508035906001600160a01b0360208201358116916040013516610429565b005b61011861050e565b61015e6004803603604081101561017e57600080fd5b810190602081018135600160201b81111561019857600080fd5b8201836020820111156101aa57600080fd5b803590602001918460018302840111600160201b831117156101cb57600080fd5b91908080601f0160208091040260200160405190810160405280939291908181526020018383808284376000920191909152509295949360208101935035915050600160201b81111561021d57600080fd5b82018360208201111561022f57600080fd5b803590602001918460018302840111600160201b8311171561025057600080fd5b91908080601f016020809104026020016040519081016040528093929190818152602001838380828437600092019190915250929550610514945050505050565b61015e610d23565b6102a1610d7e565b604080516001600160a01b039092168252519081900360200190f35b6102a1610d8d565b6102cd610d9c565b604080519115158252519081900360200190f35b610118610dad565b61015e600480360360208110156102ff57600080fd5b5035610db3565b610118610dd6565b610316610ddc565b6040805160ff9092168252519081900360200190f35b61015e6004803603602081101561034257600080fd5b5035610de1565b61015e6004803603602081101561035f57600080fd5b810190602081018135600160201b81111561037957600080fd5b82018360208201111561038b57600080fd5b803590602001918460018302840111600160201b831117156103ac57600080fd5b91908080601f016020809104026020016040519081016040528093929190818152602001838380828437600092019190915250929550610e04945050505050565b6102a1610e8c565b61015e6004803603602081101561040b57600080fd5b50356001600160a01b0316610e9b565b610118610eb8565b60025481565b610431610d9c565b61043a57600080fd5b816001600160a01b031663a9059cbb82856040518363ffffffff1660e01b815260040180836001600160a01b03166001600160a01b0316815260200182815260200192505050602060405180830381600087803b15801561049a57600080fd5b505af11580156104ae573d6000803e3d6000fd5b505050506040513d60208110156104c457600080fd5b5051610509576040805162461bcd60e51b815260206004820152600f60248201526e151c985b9cd9995c8819985a5b1959608a1b604482015290519081900360640190fd5b505050565b60035481565b600080606084806020019051606081101561052e57600080fd5b81516020830151604080850180519151939592948301929184600160201b82111561055857600080fd5b90830190602082018581111561056d57600080fd5b8251600160201b81118282018810171561058657600080fd5b82525081516020918201929091019080838360005b838110156105b357818101518382015260200161059b565b50505050905090810190601f1680156105e05780820380516001836020036101000a031916815260200191505b506040525050509250925092506106036001600454610ebe90919063ffffffff16565b60048190558314610654576040805162461bcd60e51b8152602060048201526016602482015275496e76616c696420736c617368696e67206e6f6e636560501b604482015290519081900360640190fd5b60055460408051630a1ef8f960e21b815290516000926001600160a01b03169163287be3e4916004808301926020929190829003018186803b15801561069957600080fd5b505afa1580156106ad573d6000803e3d6000fd5b505050506040513d60208110156106c357600080fd5b50516040805180820182526001808252600160f81b6020838101918252935194955060009485946001600160a01b0388169463bbcfbbb09490938e939092019182918083835b602083106107285780518252601f199092019160209182019101610709565b51815160209384036101000a600019018019909216911617905285519190930192850191508083835b602083106107705780518252601f199092019160209182019101610751565b6001836020036101000a0380198251168184511680821785525050505050509050019250505060405160208183030381529060405280519060200120896040518363ffffffff1660e01b81526004018083815260200180602001828103825283818151815260200191508051906020019080838360005b838110156107ff5781810151838201526020016107e7565b50505050905090810190601f16801561082c5780820380516001836020036101000a031916815260200191505b509350505050604080518083038186803b15801561084957600080fd5b505afa15801561085d573d6000803e3d6000fd5b505050506040513d604081101561087357600080fd5b5080516020909101519092509050808210156108cd576040805162461bcd60e51b81526020600482015260146024820152730c8bcccacc48141bddd95c881c995c5d5a5c995960621b604482015290519081900360640190fd5b6000836001600160a01b0316635e47655f866040518263ffffffff1660e01b81526004018080602001828103825283818151815260200191508051906020019080838360005b8381101561092b578181015183820152602001610913565b50505050905090810190601f1680156109585780820380516001836020036101000a031916815260200191505b5092505050602060405180830381600087803b15801561097757600080fd5b505af115801561098b573d6000803e3d6000fd5b505050506040513d60208110156109a157600080fd5b505160065460408051637dbbe4a760e11b8152600481018b90526024810184905290519293506001600160a01b039091169163fb77c94e9160448082019260009290919082900301818387803b1580156109fa57600080fd5b505af1158015610a0e573d6000803e3d6000fd5b505050506000610a3a6064610a2e60015485610ed990919063ffffffff16565b9063ffffffff610f0016565b9050610a4c828263ffffffff610f2216565b9150846001600160a01b031663bc8756a9600084306040518463ffffffff1660e01b815260040180848152602001838152602001826001600160a01b03166001600160a01b031681526020019350505050602060405180830381600087803b158015610ab757600080fd5b505af1158015610acb573d6000803e3d6000fd5b505050506040513d6020811015610ae157600080fd5b5051610b26576040805162461bcd60e51b815260206004820152600f60248201526e151c985b9cd9995c8819985a5b1959608a1b604482015290519081900360640190fd5b336001600160a01b03881614610c47576000610b526064610a2e60025485610ed990919063ffffffff16565b9050856001600160a01b031663bc8756a96000838b6040518463ffffffff1660e01b815260040180848152602001838152602001826001600160a01b03166001600160a01b031681526020019350505050602060405180830381600087803b158015610bbd57600080fd5b505af1158015610bd1573d6000803e3d6000fd5b505050506040513d6020811015610be757600080fd5b5051610c33576040805162461bcd60e51b8152602060048201526016602482015275109bdd5b9d1e481d1c985b9cd9995c8819985a5b195960521b604482015290519081900360640190fd5b610c43828263ffffffff610f2216565b9150505b6040805163bc8756a960e01b81526000600482018190526024820184905233604483015291516001600160a01b0388169263bc8756a992606480820193602093909283900390910190829087803b158015610ca157600080fd5b505af1158015610cb5573d6000803e3d6000fd5b505050506040513d6020811015610ccb57600080fd5b5051610d17576040805162461bcd60e51b8152602060048201526016602482015275109bdd5b9d1e481d1c985b9cd9995c8819985a5b195960521b604482015290519081900360640190fd5b50505050505050505050565b610d2b610d9c565b610d3457600080fd5b6007546040516000916001600160a01b0316907f8be0079c531659141344cd1fd0a4f28419497f9722a3daafe3b4186f6b6457e0908390a3600780546001600160a01b0319169055565b6005546001600160a01b031681565b6007546001600160a01b031690565b6007546001600160a01b0316331490565b60045481565b610dbb610d9c565b610dc457600080fd5b60008111610dd157600080fd5b600155565b60015481565b600281565b610de9610d9c565b610df257600080fd5b60008111610dff57600080fd5b600255565b610e0c610d9c565b610e1557600080fd5b806040516020018082805190602001908083835b60208310610e485780518252601f199092019160209182019101610e29565b6001836020036101000a0380198251168184511680821785525050505050509050019150506040516020818303038152906040528051906020012060008190555050565b6006546001600160a01b031681565b610ea3610d9c565b610eac57600080fd5b610eb581610f37565b50565b60005481565b600082820183811015610ed057600080fd5b90505b92915050565b600082610ee857506000610ed3565b82820282848281610ef557fe5b0414610ed057600080fd5b6000808211610f0e57600080fd5b6000828481610f1957fe5b04949350505050565b600082821115610f3157600080fd5b50900390565b6001600160a01b038116610f4a57600080fd5b6007546040516001600160a01b038084169216907f8be0079c531659141344cd1fd0a4f28419497f9722a3daafe3b4186f6b6457e090600090a3600780546001600160a01b0319166001600160a01b039290921691909117905556fea265627a7a72315820689b48dd1ad0970497db53c627793ea14f5a7dc6db320e2d731faad612ee710164736f6c634300050b0032",
  "source": "pragma solidity ^0.5.2;\n\nimport {Ownable} from \"openzeppelin-solidity/contracts/ownership/Ownable.sol\";\nimport {SafeMath} from \"openzeppelin-solidity/contracts/math/SafeMath.sol\";\nimport {RLPReader} from \"solidity-rlp/contracts/RLPReader.sol\";\nimport {IERC20} from \"openzeppelin-solidity/contracts/token/ERC20/IERC20.sol\";\n\nimport {StakeManager} from \"../stakeManager/StakeManager.sol\";\nimport {Registry} from \"../../common/Registry.sol\";\nimport {StakingInfo} from \"../StakingInfo.sol\";\nimport \"./ISlashingManager.sol\";\n\n\ncontract SlashingManager is ISlashingManager, Ownable {\n    using SafeMath for uint256;\n    using RLPReader for bytes;\n    using RLPReader for RLPReader.RLPItem;\n\n    modifier onlyStakeManager() {\n        require(registry.getStakeManagerAddress() == msg.sender);\n        _;\n    }\n\n    constructor(address _registry, address _logger, string memory _heimdallId) public {\n        registry = Registry(_registry);\n        logger = StakingInfo(_logger);\n        heimdallId = keccak256(abi.encodePacked(_heimdallId));\n    }\n\n    function updateSlashedAmounts(bytes memory data, bytes memory sigs) public {\n        (uint256 _slashingNonce, address proposer, bytes memory _slashingInfoList) = abi.decode(\n            data,\n            (uint256, address, bytes)\n        );\n\n        slashingNonce = slashingNonce.add(1);\n        require(slashingNonce == _slashingNonce, \"Invalid slashing nonce\");\n        StakeManager stakeManager = StakeManager(registry.getStakeManagerAddress());\n\n        uint256 stakePower;\n        uint256 activeTwoByThree;\n        (stakePower, activeTwoByThree) = stakeManager.verifyConsensus(\n            keccak256(abi.encodePacked(bytes(hex\"01\"), data)),\n            sigs\n        );\n        require(stakePower >= activeTwoByThree, \"2/3+1 Power required\");\n        //slashingInfoList[]=[[valiD,am,isJailed]]\n        uint256 slashedAmount = stakeManager.slash(_slashingInfoList);\n        logger.logSlashed(_slashingNonce, slashedAmount);\n\n        uint256 bounty = (slashedAmount.mul(reportRate)).div(100);\n        slashedAmount = slashedAmount.sub(bounty);\n\n        require(\n            stakeManager.transferFunds(\n                0, //placeholder\n                slashedAmount,\n                address(this)\n            ),\n            \"Transfer failed\"\n        );\n        // Transfer bounty to slashing reporter\n        if (msg.sender != proposer) {\n            // bounty\n            uint256 _bounty = (bounty.mul(proposerRate)).div(100);\n            require(\n                stakeManager.transferFunds(\n                    0, //placeholder\n                    _bounty,\n                    proposer\n                ),\n                \"Bounty transfer failed\"\n            );\n            bounty = bounty.sub(_bounty);\n        }\n        require(\n            stakeManager.transferFunds(\n                0, //placeholder\n                bounty,\n                msg.sender\n            ),\n            \"Bounty transfer failed\"\n        );\n    }\n\n    function updateReportRate(uint256 newReportRate) public onlyOwner {\n        require(newReportRate > 0);\n        reportRate = newReportRate;\n    }\n\n    function updateProposerRate(uint256 newProposerRate) public onlyOwner {\n        require(newProposerRate > 0);\n        proposerRate = newProposerRate;\n    }\n\n    // Housekeeping function. @todo remove later\n    function setHeimdallId(string memory _heimdallId) public onlyOwner {\n        heimdallId = keccak256(abi.encodePacked(_heimdallId));\n    }\n\n    // Housekeeping function. @todo remove later\n    function drainTokens(uint256 value, address token, address destination) external onlyOwner {\n        require(IERC20(token).transfer(destination, value), \"Transfer failed\");\n    }\n}\n",
  "sourcePath": "/Users/arth/Documents/Projects/contracts/contracts/staking/slashing/SlashingManager.sol",
  "compiler": {
    "name": "solc",
    "version": "0.5.11+commit.c082d0b4.Emscripten.clang"
  },
  "schemaVersion": "3.0.14",
  "updatedAt": "2020-05-27T11:07:39.852Z",
  "devdoc": {
    "methods": {
      "isOwner()": {
        "return": "true if `msg.sender` is the owner of the contract."
      },
      "owner()": {
        "return": "the address of the owner."
      },
      "renounceOwnership()": {
        "details": "Allows the current owner to relinquish control of the contract. It will not be possible to call the functions with the `onlyOwner` modifier anymore."
      },
      "transferOwnership(address)": {
        "details": "Allows the current owner to transfer control of the contract to a newOwner.",
        "params": {
          "newOwner": "The address to transfer ownership to."
        }
      }
    }
  },
  "userdoc": {
    "methods": {
      "renounceOwnership()": {
        "notice": "Renouncing ownership will leave the contract without an owner, thereby removing any functionality that is only available to the owner."
      }
    }
  }
}