{
  "contractName": "StakingInfo",
  "abi": [
    {
      "constant": true,
      "inputs": [],
      "name": "registry",
      "outputs": [
        {
          "internalType": "contract Registry",
          "name": "",
          "type": "address"
        }
      ],
      "payable": false,
      "stateMutability": "view",
      "type": "function"
    },
    {
      "constant": true,
      "inputs": [
        {
          "internalType": "uint256",
          "name": "",
          "type": "uint256"
        }
      ],
      "name": "validatorNonce",
      "outputs": [
        {
          "internalType": "uint256",
          "name": "",
          "type": "uint256"
        }
      ],
      "payable": false,
      "stateMutability": "view",
      "type": "function"
    },
    {
      "inputs": [
        {
          "internalType": "address",
          "name": "_registry",
          "type": "address"
        }
      ],
      "payable": false,
      "stateMutability": "nonpayable",
      "type": "constructor"
    },
    {
      "anonymous": false,
      "inputs": [
        {
          "indexed": true,
          "internalType": "address",
          "name": "signer",
          "type": "address"
        },
        {
          "indexed": true,
          "internalType": "uint256",
          "name": "validatorId",
          "type": "uint256"
        },
        {
          "indexed": false,
          "internalType": "uint256",
          "name": "nonce",
          "type": "uint256"
        },
        {
          "indexed": true,
          "internalType": "uint256",
          "name": "activationEpoch",
          "type": "uint256"
        },
        {
          "indexed": false,
          "internalType": "uint256",
          "name": "amount",
          "type": "uint256"
        },
        {
          "indexed": false,
          "internalType": "uint256",
          "name": "total",
          "type": "uint256"
        },
        {
          "indexed": false,
          "internalType": "bytes",
          "name": "signerPubkey",
          "type": "bytes"
        }
      ],
      "name": "Staked",
      "type": "event"
    },
    {
      "anonymous": false,
      "inputs": [
        {
          "indexed": true,
          "internalType": "address",
          "name": "user",
          "type": "address"
        },
        {
          "indexed": true,
          "internalType": "uint256",
          "name": "validatorId",
          "type": "uint256"
        },
        {
          "indexed": false,
          "internalType": "uint256",
          "name": "amount",
          "type": "uint256"
        },
        {
          "indexed": false,
          "internalType": "uint256",
          "name": "total",
          "type": "uint256"
        }
      ],
      "name": "Unstaked",
      "type": "event"
    },
    {
      "anonymous": false,
      "inputs": [
        {
          "indexed": true,
          "internalType": "address",
          "name": "user",
          "type": "address"
        },
        {
          "indexed": true,
          "internalType": "uint256",
          "name": "validatorId",
          "type": "uint256"
        },
        {
          "indexed": false,
          "internalType": "uint256",
          "name": "nonce",
          "type": "uint256"
        },
        {
          "indexed": false,
          "internalType": "uint256",
          "name": "deactivationEpoch",
          "type": "uint256"
        },
        {
          "indexed": true,
          "internalType": "uint256",
          "name": "amount",
          "type": "uint256"
        }
      ],
      "name": "UnstakeInit",
      "type": "event"
    },
    {
      "anonymous": false,
      "inputs": [
        {
          "indexed": true,
          "internalType": "uint256",
          "name": "validatorId",
          "type": "uint256"
        },
        {
          "indexed": false,
          "internalType": "uint256",
          "name": "nonce",
          "type": "uint256"
        },
        {
          "indexed": true,
          "internalType": "address",
          "name": "oldSigner",
          "type": "address"
        },
        {
          "indexed": true,
          "internalType": "address",
          "name": "newSigner",
          "type": "address"
        },
        {
          "indexed": false,
          "internalType": "bytes",
          "name": "signerPubkey",
          "type": "bytes"
        }
      ],
      "name": "SignerChange",
      "type": "event"
    },
    {
      "anonymous": false,
      "inputs": [
        {
          "indexed": true,
          "internalType": "uint256",
          "name": "validatorId",
          "type": "uint256"
        },
        {
          "indexed": false,
          "internalType": "uint256",
          "name": "amount",
          "type": "uint256"
        },
        {
          "indexed": false,
          "internalType": "uint256",
          "name": "total",
          "type": "uint256"
        }
      ],
      "name": "ReStaked",
      "type": "event"
    },
    {
      "anonymous": false,
      "inputs": [
        {
          "indexed": true,
          "internalType": "uint256",
          "name": "validatorId",
          "type": "uint256"
        },
        {
          "indexed": true,
          "internalType": "uint256",
          "name": "exitEpoch",
          "type": "uint256"
        },
        {
          "indexed": true,
          "internalType": "address",
          "name": "signer",
          "type": "address"
        }
      ],
      "name": "Jailed",
      "type": "event"
    },
    {
      "anonymous": false,
      "inputs": [
        {
          "indexed": true,
          "internalType": "uint256",
          "name": "validatorId",
          "type": "uint256"
        },
        {
          "indexed": true,
          "internalType": "address",
          "name": "signer",
          "type": "address"
        }
      ],
      "name": "UnJailed",
      "type": "event"
    },
    {
      "anonymous": false,
      "inputs": [
        {
          "indexed": true,
          "internalType": "uint256",
          "name": "nonce",
          "type": "uint256"
        },
        {
          "indexed": true,
          "internalType": "uint256",
          "name": "amount",
          "type": "uint256"
        }
      ],
      "name": "Slashed",
      "type": "event"
    },
    {
      "anonymous": false,
      "inputs": [
        {
          "indexed": false,
          "internalType": "uint256",
          "name": "newThreshold",
          "type": "uint256"
        },
        {
          "indexed": false,
          "internalType": "uint256",
          "name": "oldThreshold",
          "type": "uint256"
        }
      ],
      "name": "ThresholdChange",
      "type": "event"
    },
    {
      "anonymous": false,
      "inputs": [
        {
          "indexed": false,
          "internalType": "uint256",
          "name": "newDynasty",
          "type": "uint256"
        },
        {
          "indexed": false,
          "internalType": "uint256",
          "name": "oldDynasty",
          "type": "uint256"
        }
      ],
      "name": "DynastyValueChange",
      "type": "event"
    },
    {
      "anonymous": false,
      "inputs": [
        {
          "indexed": false,
          "internalType": "uint256",
          "name": "newProposerBonus",
          "type": "uint256"
        },
        {
          "indexed": false,
          "internalType": "uint256",
          "name": "oldProposerBonus",
          "type": "uint256"
        }
      ],
      "name": "ProposerBonusChange",
      "type": "event"
    },
    {
      "anonymous": false,
      "inputs": [
        {
          "indexed": false,
          "internalType": "uint256",
          "name": "newReward",
          "type": "uint256"
        },
        {
          "indexed": false,
          "internalType": "uint256",
          "name": "oldReward",
          "type": "uint256"
        }
      ],
      "name": "RewardUpdate",
      "type": "event"
    },
    {
      "anonymous": false,
      "inputs": [
        {
          "indexed": true,
          "internalType": "uint256",
          "name": "validatorId",
          "type": "uint256"
        },
        {
          "indexed": true,
          "internalType": "uint256",
          "name": "nonce",
          "type": "uint256"
        },
        {
          "indexed": true,
          "internalType": "uint256",
          "name": "newAmount",
          "type": "uint256"
        }
      ],
      "name": "StakeUpdate",
      "type": "event"
    },
    {
      "anonymous": false,
      "inputs": [
        {
          "indexed": true,
          "internalType": "uint256",
          "name": "validatorId",
          "type": "uint256"
        },
        {
          "indexed": true,
          "internalType": "uint256",
          "name": "amount",
          "type": "uint256"
        },
        {
          "indexed": true,
          "internalType": "uint256",
          "name": "totalAmount",
          "type": "uint256"
        }
      ],
      "name": "ClaimRewards",
      "type": "event"
    },
    {
      "anonymous": false,
      "inputs": [
        {
          "indexed": true,
          "internalType": "uint256",
          "name": "validatorId",
          "type": "uint256"
        },
        {
          "indexed": true,
          "internalType": "uint256",
          "name": "amount",
          "type": "uint256"
        },
        {
          "indexed": true,
          "internalType": "uint256",
          "name": "auctionAmount",
          "type": "uint256"
        }
      ],
      "name": "StartAuction",
      "type": "event"
    },
    {
      "anonymous": false,
      "inputs": [
        {
          "indexed": true,
          "internalType": "uint256",
          "name": "newValidatorId",
          "type": "uint256"
        },
        {
          "indexed": true,
          "internalType": "uint256",
          "name": "oldValidatorId",
          "type": "uint256"
        },
        {
          "indexed": true,
          "internalType": "uint256",
          "name": "amount",
          "type": "uint256"
        }
      ],
      "name": "ConfirmAuction",
      "type": "event"
    },
    {
      "anonymous": false,
      "inputs": [
        {
          "indexed": true,
          "internalType": "address",
          "name": "user",
          "type": "address"
        },
        {
          "indexed": true,
          "internalType": "uint256",
          "name": "fee",
          "type": "uint256"
        }
      ],
      "name": "TopUpFee",
      "type": "event"
    },
    {
      "anonymous": false,
      "inputs": [
        {
          "indexed": true,
          "internalType": "address",
          "name": "user",
          "type": "address"
        },
        {
          "indexed": true,
          "internalType": "uint256",
          "name": "fee",
          "type": "uint256"
        }
      ],
      "name": "ClaimFee",
      "type": "event"
    },
    {
      "anonymous": false,
      "inputs": [
        {
          "indexed": true,
          "internalType": "uint256",
          "name": "validatorId",
          "type": "uint256"
        },
        {
          "indexed": true,
          "internalType": "address",
          "name": "user",
          "type": "address"
        },
        {
          "indexed": true,
          "internalType": "uint256",
          "name": "amount",
          "type": "uint256"
        },
        {
          "indexed": false,
          "internalType": "uint256",
          "name": "tokens",
          "type": "uint256"
        }
      ],
      "name": "ShareMinted",
      "type": "event"
    },
    {
      "anonymous": false,
      "inputs": [
        {
          "indexed": true,
          "internalType": "uint256",
          "name": "validatorId",
          "type": "uint256"
        },
        {
          "indexed": true,
          "internalType": "address",
          "name": "user",
          "type": "address"
        },
        {
          "indexed": true,
          "internalType": "uint256",
          "name": "amount",
          "type": "uint256"
        },
        {
          "indexed": false,
          "internalType": "uint256",
          "name": "tokens",
          "type": "uint256"
        }
      ],
      "name": "ShareBurned",
      "type": "event"
    },
    {
      "anonymous": false,
      "inputs": [
        {
          "indexed": true,
          "internalType": "uint256",
          "name": "validatorId",
          "type": "uint256"
        },
        {
          "indexed": true,
          "internalType": "address",
          "name": "user",
          "type": "address"
        },
        {
          "indexed": true,
          "internalType": "uint256",
          "name": "rewards",
          "type": "uint256"
        },
        {
          "indexed": false,
          "internalType": "uint256",
          "name": "tokens",
          "type": "uint256"
        }
      ],
      "name": "DelClaimRewards",
      "type": "event"
    },
    {
      "anonymous": false,
      "inputs": [
        {
          "indexed": true,
          "internalType": "uint256",
          "name": "validatorId",
          "type": "uint256"
        },
        {
          "indexed": true,
          "internalType": "address",
          "name": "user",
          "type": "address"
        },
        {
          "indexed": true,
          "internalType": "uint256",
          "name": "totalStaked",
          "type": "uint256"
        }
      ],
      "name": "DelReStaked",
      "type": "event"
    },
    {
      "anonymous": false,
      "inputs": [
        {
          "indexed": true,
          "internalType": "uint256",
          "name": "validatorId",
          "type": "uint256"
        },
        {
          "indexed": true,
          "internalType": "address",
          "name": "user",
          "type": "address"
        },
        {
          "indexed": false,
          "internalType": "uint256",
          "name": "amount",
          "type": "uint256"
        }
      ],
      "name": "DelUnstaked",
      "type": "event"
    },
    {
      "anonymous": false,
      "inputs": [
        {
          "indexed": true,
          "internalType": "uint256",
          "name": "validatorId",
          "type": "uint256"
        },
        {
          "indexed": true,
          "internalType": "uint256",
          "name": "newCommissionRate",
          "type": "uint256"
        },
        {
          "indexed": true,
          "internalType": "uint256",
          "name": "oldCommissionRate",
          "type": "uint256"
        }
      ],
      "name": "UpdateCommissionRate",
      "type": "event"
    },
    {
      "constant": false,
      "inputs": [
        {
          "internalType": "address",
          "name": "signer",
          "type": "address"
        },
        {
          "internalType": "bytes",
          "name": "signerPubkey",
          "type": "bytes"
        },
        {
          "internalType": "uint256",
          "name": "validatorId",
          "type": "uint256"
        },
        {
          "internalType": "uint256",
          "name": "activationEpoch",
          "type": "uint256"
        },
        {
          "internalType": "uint256",
          "name": "amount",
          "type": "uint256"
        },
        {
          "internalType": "uint256",
          "name": "total",
          "type": "uint256"
        }
      ],
      "name": "logStaked",
      "outputs": [],
      "payable": false,
      "stateMutability": "nonpayable",
      "type": "function"
    },
    {
      "constant": false,
      "inputs": [
        {
          "internalType": "address",
          "name": "user",
          "type": "address"
        },
        {
          "internalType": "uint256",
          "name": "validatorId",
          "type": "uint256"
        },
        {
          "internalType": "uint256",
          "name": "amount",
          "type": "uint256"
        },
        {
          "internalType": "uint256",
          "name": "total",
          "type": "uint256"
        }
      ],
      "name": "logUnstaked",
      "outputs": [],
      "payable": false,
      "stateMutability": "nonpayable",
      "type": "function"
    },
    {
      "constant": false,
      "inputs": [
        {
          "internalType": "address",
          "name": "user",
          "type": "address"
        },
        {
          "internalType": "uint256",
          "name": "validatorId",
          "type": "uint256"
        },
        {
          "internalType": "uint256",
          "name": "deactivationEpoch",
          "type": "uint256"
        },
        {
          "internalType": "uint256",
          "name": "amount",
          "type": "uint256"
        }
      ],
      "name": "logUnstakeInit",
      "outputs": [],
      "payable": false,
      "stateMutability": "nonpayable",
      "type": "function"
    },
    {
      "constant": false,
      "inputs": [
        {
          "internalType": "uint256",
          "name": "validatorId",
          "type": "uint256"
        },
        {
          "internalType": "address",
          "name": "oldSigner",
          "type": "address"
        },
        {
          "internalType": "address",
          "name": "newSigner",
          "type": "address"
        },
        {
          "internalType": "bytes",
          "name": "signerPubkey",
          "type": "bytes"
        }
      ],
      "name": "logSignerChange",
      "outputs": [],
      "payable": false,
      "stateMutability": "nonpayable",
      "type": "function"
    },
    {
      "constant": false,
      "inputs": [
        {
          "internalType": "uint256",
          "name": "validatorId",
          "type": "uint256"
        },
        {
          "internalType": "uint256",
          "name": "amount",
          "type": "uint256"
        },
        {
          "internalType": "uint256",
          "name": "total",
          "type": "uint256"
        }
      ],
      "name": "logReStaked",
      "outputs": [],
      "payable": false,
      "stateMutability": "nonpayable",
      "type": "function"
    },
    {
      "constant": false,
      "inputs": [
        {
          "internalType": "uint256",
          "name": "validatorId",
          "type": "uint256"
        },
        {
          "internalType": "uint256",
          "name": "exitEpoch",
          "type": "uint256"
        },
        {
          "internalType": "address",
          "name": "signer",
          "type": "address"
        }
      ],
      "name": "logJailed",
      "outputs": [],
      "payable": false,
      "stateMutability": "nonpayable",
      "type": "function"
    },
    {
      "constant": false,
      "inputs": [
        {
          "internalType": "uint256",
          "name": "validatorId",
          "type": "uint256"
        },
        {
          "internalType": "address",
          "name": "signer",
          "type": "address"
        }
      ],
      "name": "logUnJailed",
      "outputs": [],
      "payable": false,
      "stateMutability": "nonpayable",
      "type": "function"
    },
    {
      "constant": false,
      "inputs": [
        {
          "internalType": "uint256",
          "name": "nonce",
          "type": "uint256"
        },
        {
          "internalType": "uint256",
          "name": "amount",
          "type": "uint256"
        }
      ],
      "name": "logSlashed",
      "outputs": [],
      "payable": false,
      "stateMutability": "nonpayable",
      "type": "function"
    },
    {
      "constant": false,
      "inputs": [
        {
          "internalType": "uint256",
          "name": "newThreshold",
          "type": "uint256"
        },
        {
          "internalType": "uint256",
          "name": "oldThreshold",
          "type": "uint256"
        }
      ],
      "name": "logThresholdChange",
      "outputs": [],
      "payable": false,
      "stateMutability": "nonpayable",
      "type": "function"
    },
    {
      "constant": false,
      "inputs": [
        {
          "internalType": "uint256",
          "name": "newDynasty",
          "type": "uint256"
        },
        {
          "internalType": "uint256",
          "name": "oldDynasty",
          "type": "uint256"
        }
      ],
      "name": "logDynastyValueChange",
      "outputs": [],
      "payable": false,
      "stateMutability": "nonpayable",
      "type": "function"
    },
    {
      "constant": false,
      "inputs": [
        {
          "internalType": "uint256",
          "name": "newProposerBonus",
          "type": "uint256"
        },
        {
          "internalType": "uint256",
          "name": "oldProposerBonus",
          "type": "uint256"
        }
      ],
      "name": "logProposerBonusChange",
      "outputs": [],
      "payable": false,
      "stateMutability": "nonpayable",
      "type": "function"
    },
    {
      "constant": false,
      "inputs": [
        {
          "internalType": "uint256",
          "name": "newReward",
          "type": "uint256"
        },
        {
          "internalType": "uint256",
          "name": "oldReward",
          "type": "uint256"
        }
      ],
      "name": "logRewardUpdate",
      "outputs": [],
      "payable": false,
      "stateMutability": "nonpayable",
      "type": "function"
    },
    {
      "constant": false,
      "inputs": [
        {
          "internalType": "uint256",
          "name": "validatorId",
          "type": "uint256"
        }
      ],
      "name": "logStakeUpdate",
      "outputs": [],
      "payable": false,
      "stateMutability": "nonpayable",
      "type": "function"
    },
    {
      "constant": false,
      "inputs": [
        {
          "internalType": "uint256",
          "name": "validatorId",
          "type": "uint256"
        },
        {
          "internalType": "uint256",
          "name": "amount",
          "type": "uint256"
        },
        {
          "internalType": "uint256",
          "name": "totalAmount",
          "type": "uint256"
        }
      ],
      "name": "logClaimRewards",
      "outputs": [],
      "payable": false,
      "stateMutability": "nonpayable",
      "type": "function"
    },
    {
      "constant": false,
      "inputs": [
        {
          "internalType": "uint256",
          "name": "validatorId",
          "type": "uint256"
        },
        {
          "internalType": "uint256",
          "name": "amount",
          "type": "uint256"
        },
        {
          "internalType": "uint256",
          "name": "auctionAmount",
          "type": "uint256"
        }
      ],
      "name": "logStartAuction",
      "outputs": [],
      "payable": false,
      "stateMutability": "nonpayable",
      "type": "function"
    },
    {
      "constant": false,
      "inputs": [
        {
          "internalType": "uint256",
          "name": "newValidatorId",
          "type": "uint256"
        },
        {
          "internalType": "uint256",
          "name": "oldValidatorId",
          "type": "uint256"
        },
        {
          "internalType": "uint256",
          "name": "amount",
          "type": "uint256"
        }
      ],
      "name": "logConfirmAuction",
      "outputs": [],
      "payable": false,
      "stateMutability": "nonpayable",
      "type": "function"
    },
    {
      "constant": false,
      "inputs": [
        {
          "internalType": "address",
          "name": "user",
          "type": "address"
        },
        {
          "internalType": "uint256",
          "name": "fee",
          "type": "uint256"
        }
      ],
      "name": "logTopUpFee",
      "outputs": [],
      "payable": false,
      "stateMutability": "nonpayable",
      "type": "function"
    },
    {
      "constant": false,
      "inputs": [
        {
          "internalType": "address",
          "name": "user",
          "type": "address"
        },
        {
          "internalType": "uint256",
          "name": "fee",
          "type": "uint256"
        }
      ],
      "name": "logClaimFee",
      "outputs": [],
      "payable": false,
      "stateMutability": "nonpayable",
      "type": "function"
    },
    {
      "constant": true,
      "inputs": [
        {
          "internalType": "uint256",
          "name": "validatorId",
          "type": "uint256"
        }
      ],
      "name": "getStakerDetails",
      "outputs": [
        {
          "internalType": "uint256",
          "name": "amount",
          "type": "uint256"
        },
        {
          "internalType": "uint256",
          "name": "reward",
          "type": "uint256"
        },
        {
          "internalType": "uint256",
          "name": "activationEpoch",
          "type": "uint256"
        },
        {
          "internalType": "uint256",
          "name": "deactivationEpoch",
          "type": "uint256"
        },
        {
          "internalType": "address",
          "name": "signer",
          "type": "address"
        },
        {
          "internalType": "uint256",
          "name": "_status",
          "type": "uint256"
        }
      ],
      "payable": false,
      "stateMutability": "view",
      "type": "function"
    },
    {
      "constant": true,
      "inputs": [
        {
          "internalType": "uint256",
          "name": "validatorId",
          "type": "uint256"
        }
      ],
      "name": "totalValidatorStake",
      "outputs": [
        {
          "internalType": "uint256",
          "name": "validatorStake",
          "type": "uint256"
        }
      ],
      "payable": false,
      "stateMutability": "view",
      "type": "function"
    },
    {
      "constant": true,
      "inputs": [],
      "name": "getAccountStateRoot",
      "outputs": [
        {
          "internalType": "bytes32",
          "name": "accountStateRoot",
          "type": "bytes32"
        }
      ],
      "payable": false,
      "stateMutability": "view",
      "type": "function"
    },
    {
      "constant": true,
      "inputs": [
        {
          "internalType": "uint256",
          "name": "validatorId",
          "type": "uint256"
        }
      ],
      "name": "getValidatorContractAddress",
      "outputs": [
        {
          "internalType": "address",
          "name": "ValidatorContract",
          "type": "address"
        }
      ],
      "payable": false,
      "stateMutability": "view",
      "type": "function"
    },
    {
      "constant": false,
      "inputs": [
        {
          "internalType": "uint256",
          "name": "validatorId",
          "type": "uint256"
        },
        {
          "internalType": "address",
          "name": "user",
          "type": "address"
        },
        {
          "internalType": "uint256",
          "name": "amount",
          "type": "uint256"
        },
        {
          "internalType": "uint256",
          "name": "tokens",
          "type": "uint256"
        }
      ],
      "name": "logShareMinted",
      "outputs": [],
      "payable": false,
      "stateMutability": "nonpayable",
      "type": "function"
    },
    {
      "constant": false,
      "inputs": [
        {
          "internalType": "uint256",
          "name": "validatorId",
          "type": "uint256"
        },
        {
          "internalType": "address",
          "name": "user",
          "type": "address"
        },
        {
          "internalType": "uint256",
          "name": "amount",
          "type": "uint256"
        },
        {
          "internalType": "uint256",
          "name": "tokens",
          "type": "uint256"
        }
      ],
      "name": "logShareBurned",
      "outputs": [],
      "payable": false,
      "stateMutability": "nonpayable",
      "type": "function"
    },
    {
      "constant": false,
      "inputs": [
        {
          "internalType": "uint256",
          "name": "validatorId",
          "type": "uint256"
        },
        {
          "internalType": "address",
          "name": "user",
          "type": "address"
        },
        {
          "internalType": "uint256",
          "name": "rewards",
          "type": "uint256"
        },
        {
          "internalType": "uint256",
          "name": "tokens",
          "type": "uint256"
        }
      ],
      "name": "logDelClaimRewards",
      "outputs": [],
      "payable": false,
      "stateMutability": "nonpayable",
      "type": "function"
    },
    {
      "constant": false,
      "inputs": [
        {
          "internalType": "uint256",
          "name": "validatorId",
          "type": "uint256"
        },
        {
          "internalType": "address",
          "name": "user",
          "type": "address"
        },
        {
          "internalType": "uint256",
          "name": "totalStaked",
          "type": "uint256"
        }
      ],
      "name": "logDelReStaked",
      "outputs": [],
      "payable": false,
      "stateMutability": "nonpayable",
      "type": "function"
    },
    {
      "constant": false,
      "inputs": [
        {
          "internalType": "uint256",
          "name": "validatorId",
          "type": "uint256"
        },
        {
          "internalType": "address",
          "name": "user",
          "type": "address"
        },
        {
          "internalType": "uint256",
          "name": "amount",
          "type": "uint256"
        }
      ],
      "name": "logDelUnstaked",
      "outputs": [],
      "payable": false,
      "stateMutability": "nonpayable",
      "type": "function"
    },
    {
      "constant": false,
      "inputs": [
        {
          "internalType": "uint256",
          "name": "validatorId",
          "type": "uint256"
        },
        {
          "internalType": "uint256",
          "name": "newCommissionRate",
          "type": "uint256"
        },
        {
          "internalType": "uint256",
          "name": "oldCommissionRate",
          "type": "uint256"
        }
      ],
      "name": "logUpdateCommissionRate",
      "outputs": [],
      "payable": false,
      "stateMutability": "nonpayable",
      "type": "function"
    }
  ],
  "bytecode": "0x608060405234801561001057600080fd5b50604051612ba7380380612ba78339818101604052602081101561003357600080fd5b5051600180546001600160a01b0319166001600160a01b03909216919091179055612b44806100636000396000f3fe608060405234801561001057600080fd5b50600436106101d95760003560e01c8063ae2e26b111610104578063c98cc002116100a2578063ebde9f9311610071578063ebde9f931461078b578063f1382b53146107a8578063f1980a50146107e0578063fb77c94e14610803576101d9565b8063c98cc002146106ea578063ca7d34b614610713578063dfc007ae14610730578063e12ab1af14610762576101d9565b8063b6fa74c4116100de578063b6fa74c41461059d578063b80fbce5146105c0578063c3917e9914610686578063c69d0573146106b2576101d9565b8063ae2e26b114610504578063af4cdabf1461053c578063b685b26a14610574576101d9565b8063532e19a91161017c57806381dc101b1161014b57806381dc101b14610460578063a0e300a614610492578063a3b1d8cb146104b5578063a449d795146104d8576101d9565b8063532e19a9146103aa5780635e04d483146103c757806378daaf69146103ff5780637b10399914610458576101d9565b8063178d46aa116101b8578063178d46aa14610267578063242c1b99146102a057806333a8383c146102c95780634b6b87ce14610390576101d9565b8062d2d380146101de5780630934a6df14610212578063122b64811461023b575b600080fd5b610210600480360360608110156101f457600080fd5b508035906001600160a01b036020820135169060400135610826565b005b6102106004803603606081101561022857600080fd5b50803590602081013590604001356109a9565b6102106004803603604081101561025157600080fd5b506001600160a01b038135169060200135610a92565b6102846004803603602081101561027d57600080fd5b5035610b81565b604080516001600160a01b039092168252519081900360200190f35b610210600480360360608110156102b657600080fd5b5080359060208101359060400135610c72565b610210600480360360c08110156102df57600080fd5b6001600160a01b03823516919081019060408101602082013564010000000081111561030a57600080fd5b82018360208201111561031c57600080fd5b8035906020019184600183028401116401000000008311171561033e57600080fd5b91908080601f0160208091040260200160405190810160405280939291908181526020018383808284376000920191909152509295505082359350505060208101359060408101359060600135610d66565b610398610f28565b60408051918252519081900360200190f35b610210600480360360208110156103c057600080fd5b503561100c565b610210600480360360808110156103dd57600080fd5b506001600160a01b0381351690602081013590604081013590606001356111da565b61041c6004803603602081101561041557600080fd5b503561130d565b6040805196875260208701959095528585019390935260608501919091526001600160a01b0316608084015260a0830152519081900360c00190f35b610284611509565b6102106004803603606081101561047657600080fd5b50803590602081013590604001356001600160a01b0316611518565b610210600480360360408110156104a857600080fd5b508035906020013561160a565b610210600480360360408110156104cb57600080fd5b50803590602001356116fe565b610210600480360360408110156104ee57600080fd5b506001600160a01b0381351690602001356117f2565b6102106004803603608081101561051a57600080fd5b506001600160a01b0381351690602081013590604081013590606001356118e1565b6102106004803603608081101561055257600080fd5b508035906001600160a01b0360208201351690604081013590606001356119e6565b6102106004803603606081101561058a57600080fd5b5080359060208101359060400135611b75565b610210600480360360408110156105b357600080fd5b5080359060200135611c5e565b610210600480360360808110156105d657600080fd5b8135916001600160a01b0360208201358116926040830135909116919081019060808101606082013564010000000081111561061157600080fd5b82018360208201111561062357600080fd5b8035906020019184600183028401116401000000008311171561064557600080fd5b91908080601f016020809104026020016040519081016040528093929190818152602001838380828437600092019190915250929550611d52945050505050565b6102106004803603604081101561069c57600080fd5b50803590602001356001600160a01b0316611ef3565b610210600480360360808110156106c857600080fd5b508035906001600160a01b036020820135169060408101359060600135611fe2565b6102106004803603606081101561070057600080fd5b5080359060208101359060400135612171565b6103986004803603602081101561072957600080fd5b50356122eb565b6102106004803603606081101561074657600080fd5b508035906001600160a01b03602082013516906040013561246b565b6102106004803603606081101561077857600080fd5b50803590602081013590604001356125f6565b610398600480360360208110156107a157600080fd5b50356126df565b610210600480360360808110156107be57600080fd5b508035906001600160a01b0360208201351690604081013590606001356126f1565b610210600480360360408110156107f657600080fd5b5080359060200135612880565b6102106004803603604081101561081957600080fd5b5080359060200135612974565b826000600160009054906101000a90046001600160a01b03166001600160a01b031663287be3e46040518163ffffffff1660e01b815260040160206040518083038186803b15801561087757600080fd5b505afa15801561088b573d6000803e3d6000fd5b505050506040513d60208110156108a157600080fd5b505160408051630d6a8b9160e21b81526004810185905290516001600160a01b03909216916335aa2e449160248082019261010092909190829003018186803b1580156108ed57600080fd5b505afa158015610901573d6000803e3d6000fd5b505050506040513d61010081101561091857600080fd5b5060c0015190506001600160a01b038116331461096a576040805162461bcd60e51b815260206004820152601d6024820152600080516020612acf833981519152604482015290519081900360640190fd5b82846001600160a01b0316867f6af042714f1fb2ecc9f4ea59df701c71414555a1f52c207a2d73fc33df3f0f8760405160405180910390a45050505050565b60015460408051630a1ef8f960e21b8152905133926001600160a01b03169163287be3e4916004808301926020929190829003018186803b1580156109ed57600080fd5b505afa158015610a01573d6000803e3d6000fd5b505050506040513d6020811015610a1757600080fd5b50516001600160a01b031614610a5e5760405162461bcd60e51b8152600401808060200182810382526021815260200180612aef6021913960400191505060405180910390fd5b8082847f683d0f47c7fa11331f4e9563b3f5a7fdc3d3c5b75c600357a91d991f5a13a43760405160405180910390a4505050565b60015460408051630a1ef8f960e21b8152905133926001600160a01b03169163287be3e4916004808301926020929190829003018186803b158015610ad657600080fd5b505afa158015610aea573d6000803e3d6000fd5b505050506040513d6020811015610b0057600080fd5b50516001600160a01b031614610b475760405162461bcd60e51b8152600401808060200182810382526021815260200180612aef6021913960400191505060405180910390fd5b60405181906001600160a01b038416907ff40b9ca28516abde647ef8ed0e7b155e16347eb4d8dd6eb29989ed2c0c3d27e890600090a35050565b60015460408051630a1ef8f960e21b815290516000926001600160a01b03169163287be3e4916004808301926020929190829003018186803b158015610bc657600080fd5b505afa158015610bda573d6000803e3d6000fd5b505050506040513d6020811015610bf057600080fd5b505160408051630d6a8b9160e21b81526004810185905290516001600160a01b03909216916335aa2e449160248082019261010092909190829003018186803b158015610c3c57600080fd5b505afa158015610c50573d6000803e3d6000fd5b505050506040513d610100811015610c6757600080fd5b5060c0015192915050565b60015460408051630a1ef8f960e21b8152905133926001600160a01b03169163287be3e4916004808301926020929190829003018186803b158015610cb657600080fd5b505afa158015610cca573d6000803e3d6000fd5b505050506040513d6020811015610ce057600080fd5b50516001600160a01b031614610d275760405162461bcd60e51b8152600401808060200182810382526021815260200180612aef6021913960400191505060405180910390fd5b6040805183815260208101839052815185927f9cc0e589f20d3310eb2ad571b23529003bd46048d0d1af29277dcf0aa3c398ce928290030190a2505050565b60015460408051630a1ef8f960e21b8152905133926001600160a01b03169163287be3e4916004808301926020929190829003018186803b158015610daa57600080fd5b505afa158015610dbe573d6000803e3d6000fd5b505050506040513d6020811015610dd457600080fd5b50516001600160a01b031614610e1b5760405162461bcd60e51b8152600401808060200182810382526021815260200180612aef6021913960400191505060405180910390fd5b600084815260208190526040902054610e3b90600163ffffffff612a5a16565b600080868152602001908152602001600020819055508284876001600160a01b03167f68c13e4125b983d7e2d6114246f443e567ec6c4ee5b4d4a7ef6100b1402bfd846000808981526020019081526020016000205486868b6040518085815260200184815260200183815260200180602001828103825283818151815260200191508051906020019080838360005b83811015610ee3578181015183820152602001610ecb565b50505050905090810190601f168015610f105780820380516001836020036101000a031916815260200191505b509550505050505060405180910390a4505050505050565b60015460408051630a1ef8f960e21b815290516000926001600160a01b03169163287be3e4916004808301926020929190829003018186803b158015610f6d57600080fd5b505afa158015610f81573d6000803e3d6000fd5b505050506040513d6020811015610f9757600080fd5b50516040805163017c2b9160e41b815290516001600160a01b03909216916317c2b91091600480820192602092909190829003018186803b158015610fdb57600080fd5b505afa158015610fef573d6000803e3d6000fd5b505050506040513d602081101561100557600080fd5b5051919050565b80600080600160009054906101000a90046001600160a01b03166001600160a01b031663287be3e46040518163ffffffff1660e01b815260040160206040518083038186803b15801561105e57600080fd5b505afa158015611072573d6000803e3d6000fd5b505050506040513d602081101561108857600080fd5b505160408051630d6a8b9160e21b81526004810186905290519192506001600160a01b038316916335aa2e449160248082019261010092909190829003018186803b1580156110d657600080fd5b505afa1580156110ea573d6000803e3d6000fd5b505050506040513d61010081101561110157600080fd5b5060c0015191506001600160a01b03821633148061112757506001600160a01b03811633145b6111625760405162461bcd60e51b8152600401808060200182810382526037815260200180612a986037913960400191505060405180910390fd5b60008481526020819052604090205461118290600163ffffffff612a5a16565b60008581526020819052604090205561119a846122eb565b600085815260208190526040808220549051909187917f35af9eea1f0e7b300b0a14fae90139a072470e44daa3f14b5069bebbc1265bda9190a450505050565b60015460408051630a1ef8f960e21b8152905133926001600160a01b03169163287be3e4916004808301926020929190829003018186803b15801561121e57600080fd5b505afa158015611232573d6000803e3d6000fd5b505050506040513d602081101561124857600080fd5b50516001600160a01b03161461128f5760405162461bcd60e51b8152600401808060200182810382526021815260200180612aef6021913960400191505060405180910390fd5b6000838152602081905260409020546112af90600163ffffffff612a5a16565b60008481526020818152604091829020839055815192835282018490528051839286926001600160a01b038916927f69b288bb79cd5386c9fe0af060f650e823bcdfa96a44cdc07f862db060f571209281900390910190a450505050565b6000806000806000806000600160009054906101000a90046001600160a01b03166001600160a01b031663287be3e46040518163ffffffff1660e01b815260040160206040518083038186803b15801561136657600080fd5b505afa15801561137a573d6000803e3d6000fd5b505050506040513d602081101561139057600080fd5b505160408051630d6a8b9160e21b8152600481018b9052905191925060009182916001600160a01b038516916335aa2e449160248082019261010092909190829003018186803b1580156113e357600080fd5b505afa1580156113f7573d6000803e3d6000fd5b505050506040513d61010081101561140e57600080fd5b81019080805190602001909291908051906020019092919080519060200190929190805190602001909291908051906020019092919080519060200190929190805190602001909291908051906020019092919050505090919250809750819850829b50839c50849d50859e50869f5050505050505050816001600160a01b0316635d1e36166040518163ffffffff1660e01b815260040160206040518083038186803b1580156114be57600080fd5b505afa1580156114d2573d6000803e3d6000fd5b505050506040513d60208110156114e857600080fd5b505197909701968060038111156114fb57fe5b935050505091939550919395565b6001546001600160a01b031681565b60015460408051630a1ef8f960e21b8152905133926001600160a01b03169163287be3e4916004808301926020929190829003018186803b15801561155c57600080fd5b505afa158015611570573d6000803e3d6000fd5b505050506040513d602081101561158657600080fd5b50516001600160a01b0316146115cd5760405162461bcd60e51b8152600401808060200182810382526021815260200180612aef6021913960400191505060405180910390fd5b806001600160a01b031682847ff6566d8fbe8f23227826ba3da2ecc1ec48698c5be051a829965e3358fd5b965860405160405180910390a4505050565b60015460408051630a1ef8f960e21b8152905133926001600160a01b03169163287be3e4916004808301926020929190829003018186803b15801561164e57600080fd5b505afa158015611662573d6000803e3d6000fd5b505050506040513d602081101561167857600080fd5b50516001600160a01b0316146116bf5760405162461bcd60e51b8152600401808060200182810382526021815260200180612aef6021913960400191505060405180910390fd5b604080518381526020810183905281517f9444bfcfa6aed72a15da73de1220dcc07d7864119c44abfec0037bbcacefda98929181900390910190a15050565b60015460408051630a1ef8f960e21b8152905133926001600160a01b03169163287be3e4916004808301926020929190829003018186803b15801561174257600080fd5b505afa158015611756573d6000803e3d6000fd5b505050506040513d602081101561176c57600080fd5b50516001600160a01b0316146117b35760405162461bcd60e51b8152600401808060200182810382526021815260200180612aef6021913960400191505060405180910390fd5b604080518381526020810183905281517f4a501a9c4d5cce5c32415945bbc8973764f31b844e3e8fd4c15f51f315ac8792929181900390910190a15050565b60015460408051630a1ef8f960e21b8152905133926001600160a01b03169163287be3e4916004808301926020929190829003018186803b15801561183657600080fd5b505afa15801561184a573d6000803e3d6000fd5b505050506040513d602081101561186057600080fd5b50516001600160a01b0316146118a75760405162461bcd60e51b8152600401808060200182810382526021815260200180612aef6021913960400191505060405180910390fd5b60405181906001600160a01b038416907f2c3bb5458e3dd671c31974c4ca8e8ebc2cdd892ae8602374d9a6f789b00c6b9490600090a35050565b60015460408051630a1ef8f960e21b8152905133926001600160a01b03169163287be3e4916004808301926020929190829003018186803b15801561192557600080fd5b505afa158015611939573d6000803e3d6000fd5b505050506040513d602081101561194f57600080fd5b50516001600160a01b0316146119965760405162461bcd60e51b8152600401808060200182810382526021815260200180612aef6021913960400191505060405180910390fd5b82846001600160a01b03167f204fccf0d92ed8d48f204adb39b2e81e92bad0dedb93f5716ca9478cfb57de008484604051808381526020018281526020019250505060405180910390a350505050565b836000600160009054906101000a90046001600160a01b03166001600160a01b031663287be3e46040518163ffffffff1660e01b815260040160206040518083038186803b158015611a3757600080fd5b505afa158015611a4b573d6000803e3d6000fd5b505050506040513d6020811015611a6157600080fd5b505160408051630d6a8b9160e21b81526004810185905290516001600160a01b03909216916335aa2e449160248082019261010092909190829003018186803b158015611aad57600080fd5b505afa158015611ac1573d6000803e3d6000fd5b505050506040513d610100811015611ad857600080fd5b5060c0015190506001600160a01b0381163314611b2a576040805162461bcd60e51b815260206004820152601d6024820152600080516020612acf833981519152604482015290519081900360640190fd5b83856001600160a01b0316877f8df3db2462011d9f79ea35850218e22b9fc11eca880b4b674d6a2e36e52faf90866040518082815260200191505060405180910390a4505050505050565b60015460408051630a1ef8f960e21b8152905133926001600160a01b03169163287be3e4916004808301926020929190829003018186803b158015611bb957600080fd5b505afa158015611bcd573d6000803e3d6000fd5b505050506040513d6020811015611be357600080fd5b50516001600160a01b031614611c2a5760405162461bcd60e51b8152600401808060200182810382526021815260200180612aef6021913960400191505060405180910390fd5b8082847f41e5e4590cfcde2f03ee9281c54d03acad8adffb83f8310d66b894532470ba3560405160405180910390a4505050565b60015460408051630a1ef8f960e21b8152905133926001600160a01b03169163287be3e4916004808301926020929190829003018186803b158015611ca257600080fd5b505afa158015611cb6573d6000803e3d6000fd5b505050506040513d6020811015611ccc57600080fd5b50516001600160a01b031614611d135760405162461bcd60e51b8152600401808060200182810382526021815260200180612aef6021913960400191505060405180910390fd5b604080518381526020810183905281517ff67f33e8589d3ea0356303c0f9a8e764873692159f777ff79e4fc523d389dfcd929181900390910190a15050565b60015460408051630a1ef8f960e21b8152905133926001600160a01b03169163287be3e4916004808301926020929190829003018186803b158015611d9657600080fd5b505afa158015611daa573d6000803e3d6000fd5b505050506040513d6020811015611dc057600080fd5b50516001600160a01b031614611e075760405162461bcd60e51b8152600401808060200182810382526021815260200180612aef6021913960400191505060405180910390fd5b600084815260208190526040902054611e2790600163ffffffff612a5a16565b600085815260208181526040808320849055805184815280830182815286519282019290925285516001600160a01b0380891696908a16958b957f086044c0612a8c965d4cccd907f0d588e40ad68438bd4c1274cac60f4c3a9d1f9592948a949093926060850192860191908190849084905b83811015611eb2578181015183820152602001611e9a565b50505050905090810190601f168015611edf5780820380516001836020036101000a031916815260200191505b50935050505060405180910390a450505050565b60015460408051630a1ef8f960e21b8152905133926001600160a01b03169163287be3e4916004808301926020929190829003018186803b158015611f3757600080fd5b505afa158015611f4b573d6000803e3d6000fd5b505050506040513d6020811015611f6157600080fd5b50516001600160a01b031614611fa85760405162461bcd60e51b8152600401808060200182810382526021815260200180612aef6021913960400191505060405180910390fd5b6040516001600160a01b0382169083907fd3cb87a9c75a0d21336afc0f79f7e398f06748db5ce1815af01d315c7c135c0b90600090a35050565b836000600160009054906101000a90046001600160a01b03166001600160a01b031663287be3e46040518163ffffffff1660e01b815260040160206040518083038186803b15801561203357600080fd5b505afa158015612047573d6000803e3d6000fd5b505050506040513d602081101561205d57600080fd5b505160408051630d6a8b9160e21b81526004810185905290516001600160a01b03909216916335aa2e449160248082019261010092909190829003018186803b1580156120a957600080fd5b505afa1580156120bd573d6000803e3d6000fd5b505050506040513d6101008110156120d457600080fd5b5060c0015190506001600160a01b0381163314612126576040805162461bcd60e51b815260206004820152601d6024820152600080516020612acf833981519152604482015290519081900360640190fd5b83856001600160a01b0316877fc9afff0972d33d68c8d330fe0ebd0e9f54491ad8c59ae17330a9206f280f0865866040518082815260200191505060405180910390a4505050505050565b826000600160009054906101000a90046001600160a01b03166001600160a01b031663287be3e46040518163ffffffff1660e01b815260040160206040518083038186803b1580156121c257600080fd5b505afa1580156121d6573d6000803e3d6000fd5b505050506040513d60208110156121ec57600080fd5b505160408051630d6a8b9160e21b81526004810185905290516001600160a01b03909216916335aa2e449160248082019261010092909190829003018186803b15801561223857600080fd5b505afa15801561224c573d6000803e3d6000fd5b505050506040513d61010081101561226357600080fd5b5060c0015190506001600160a01b03811633146122b5576040805162461bcd60e51b815260206004820152601d6024820152600080516020612acf833981519152604482015290519081900360640190fd5b8284867f7d5da5ece9d43013d62ab966f4704ca376b92be29ca6fbb958154baf1c0dc17e60405160405180910390a45050505050565b600080600160009054906101000a90046001600160a01b03166001600160a01b031663287be3e46040518163ffffffff1660e01b815260040160206040518083038186803b15801561233c57600080fd5b505afa158015612350573d6000803e3d6000fd5b505050506040513d602081101561236657600080fd5b505160408051630d6a8b9160e21b81526004810186905290516001600160a01b03909216916335aa2e449160248082019261010092909190829003018186803b1580156123b257600080fd5b505afa1580156123c6573d6000803e3d6000fd5b505050506040513d6101008110156123dd57600080fd5b50805160c09091015190925090506001600160a01b0381161561246557806001600160a01b0316633a09bf446040518163ffffffff1660e01b815260040160206040518083038186803b15801561243357600080fd5b505afa158015612447573d6000803e3d6000fd5b505050506040513d602081101561245d57600080fd5b505191909101905b50919050565b826000600160009054906101000a90046001600160a01b03166001600160a01b031663287be3e46040518163ffffffff1660e01b815260040160206040518083038186803b1580156124bc57600080fd5b505afa1580156124d0573d6000803e3d6000fd5b505050506040513d60208110156124e657600080fd5b505160408051630d6a8b9160e21b81526004810185905290516001600160a01b03909216916335aa2e449160248082019261010092909190829003018186803b15801561253257600080fd5b505afa158015612546573d6000803e3d6000fd5b505050506040513d61010081101561255d57600080fd5b5060c0015190506001600160a01b03811633146125af576040805162461bcd60e51b815260206004820152601d6024820152600080516020612acf833981519152604482015290519081900360640190fd5b6040805184815290516001600160a01b0386169187917f896207683bb844057e9f07d8ed9deb90f4440260772ab61ac8675f430a0e230a9181900360200190a35050505050565b60015460408051630a1ef8f960e21b8152905133926001600160a01b03169163287be3e4916004808301926020929190829003018186803b15801561263a57600080fd5b505afa15801561264e573d6000803e3d6000fd5b505050506040513d602081101561266457600080fd5b50516001600160a01b0316146126ab5760405162461bcd60e51b8152600401808060200182810382526021815260200180612aef6021913960400191505060405180910390fd5b8082847f1002381ecf76700f6f0ab4c90b9f523e39df7b0482b71ec63cf62cf85412047060405160405180910390a4505050565b60006020819052908152604090205481565b836000600160009054906101000a90046001600160a01b03166001600160a01b031663287be3e46040518163ffffffff1660e01b815260040160206040518083038186803b15801561274257600080fd5b505afa158015612756573d6000803e3d6000fd5b505050506040513d602081101561276c57600080fd5b505160408051630d6a8b9160e21b81526004810185905290516001600160a01b03909216916335aa2e449160248082019261010092909190829003018186803b1580156127b857600080fd5b505afa1580156127cc573d6000803e3d6000fd5b505050506040513d6101008110156127e357600080fd5b5060c0015190506001600160a01b0381163314612835576040805162461bcd60e51b815260206004820152601d6024820152600080516020612acf833981519152604482015290519081900360640190fd5b83856001600160a01b0316877f7e86625aa6e668407f095af342e0cc237809c4c5086b4d665a0067de122980a9866040518082815260200191505060405180910390a4505050505050565b60015460408051630a1ef8f960e21b8152905133926001600160a01b03169163287be3e4916004808301926020929190829003018186803b1580156128c457600080fd5b505afa1580156128d8573d6000803e3d6000fd5b505050506040513d60208110156128ee57600080fd5b50516001600160a01b0316146129355760405162461bcd60e51b8152600401808060200182810382526021815260200180612aef6021913960400191505060405180910390fd5b604080518381526020810183905281517f5d16a900896e1160c2033bc940e6b072d3dc3b6a996fefb9b3b9b9678841824c929181900390910190a15050565b60015460408051631ab0168360e31b8152905133926001600160a01b03169163d580b418916004808301926020929190829003018186803b1580156129b857600080fd5b505afa1580156129cc573d6000803e3d6000fd5b505050506040513d60208110156129e257600080fd5b50516001600160a01b031614612a295760405162461bcd60e51b8152600401808060200182810382526024815260200180612a746024913960400191505060405180910390fd5b604051819083907f4f5f38ee30b01a960b4dfdcd520a3ca59c1a664a32dcfe5418ca79b0de6b723690600090a35050565b600082820183811015612a6c57600080fd5b939250505056fe496e76616c69642073656e6465722c206e6f7420736c617368696e67206d616e61676572496e76616c69642073656e6465722c206e6f74207374616b65206d616e61676572206f722076616c696461746f7220636f6e7472616374496e76616c69642073656e6465722c206e6f742076616c696461746f72000000496e76616c69642073656e6465722c206e6f74207374616b65206d616e61676572a265627a7a72315820bf5e26a501e065f28105f3a758dfca83f783225bd5f7d9495dd4f4940c2f313164736f6c634300050b0032",
  "source": "pragma solidity ^0.5.2;\n\nimport {Registry} from \"../common/Registry.sol\";\nimport {SafeMath} from \"openzeppelin-solidity/contracts/math/SafeMath.sol\";\n\nimport {BytesLib} from \"../common/lib/BytesLib.sol\";\nimport {ECVerify} from \"../common/lib/ECVerify.sol\";\n\n\n// dummy interface to avoid cyclic dependency\ncontract IStakeManager {\n    enum Status {Inactive, Active, Locked, Unstaked}\n\n    struct Validator {\n        uint256 amount;\n        uint256 reward;\n        uint256 activationEpoch;\n        uint256 deactivationEpoch;\n        uint256 jailTime;\n        address signer;\n        address contractAddress;\n        Status status;\n    }\n\n    mapping(uint256 => Validator) public validators;\n    bytes32 public accountStateRoot;\n    uint256 public activeAmount; // delegation amount from validator contract\n    uint256 public validatorRewards;\n\n    function currentValidatorSetTotalStake() public view returns (uint256);\n\n    // signer to Validator mapping\n    function signerToValidator(address validatorAddress)\n        public\n        view\n        returns (uint256);\n\n    function isValidator(uint256 validatorId) public view returns (bool);\n}\n\n\ncontract StakingInfo {\n    using SafeMath for uint256;\n    mapping(uint256 => uint256) public validatorNonce;\n\n    /// @dev Emitted when validator stakes in '_stakeFor()' in StakeManager.\n    /// @param signer validator address.\n    /// @param validatorId unique integer to identify a validator.\n    /// @param nonce to synchronize the events in heimdal.\n    /// @param activationEpoch validator's first epoch as proposer.\n    /// @param amount staking amount.\n    /// @param total total staking amount.\n    /// @param signerPubkey public key of the validator\n    event Staked(\n        address indexed signer,\n        uint256 indexed validatorId,\n        uint256 nonce,\n        uint256 indexed activationEpoch,\n        uint256 amount,\n        uint256 total,\n        bytes signerPubkey\n    );\n\n    /// @dev Emitted when validator unstakes in 'unstakeClaim()'\n    /// @param user address of the validator.\n    /// @param validatorId unique integer to identify a validator.\n    /// @param amount staking amount.\n    /// @param total total staking amount.\n    event Unstaked(\n        address indexed user,\n        uint256 indexed validatorId,\n        uint256 amount,\n        uint256 total\n    );\n\n    /// @dev Emitted when validator unstakes in '_unstake()'.\n    /// @param user address of the validator.\n    /// @param validatorId unique integer to identify a validator.\n    /// @param nonce to synchronize the events in heimdal.\n    /// @param deactivationEpoch last epoch for validator.\n    /// @param amount staking amount.\n    event UnstakeInit(\n        address indexed user,\n        uint256 indexed validatorId,\n        uint256 nonce,\n        uint256 deactivationEpoch,\n        uint256 indexed amount\n    );\n\n    /// @dev Emitted when the validator public key is updated in 'updateSigner()'.\n    /// @param validatorId unique integer to identify a validator.\n    /// @param nonce to synchronize the events in heimdal.\n    /// @param oldSigner old address of the validator.\n    /// @param newSigner new address of the validator.\n    /// @param signerPubkey public key of the validator.\n    event SignerChange(\n        uint256 indexed validatorId,\n        uint256 nonce,\n        address indexed oldSigner,\n        address indexed newSigner,\n        bytes signerPubkey\n    );\n    event ReStaked(uint256 indexed validatorId, uint256 amount, uint256 total);\n    event Jailed(\n        uint256 indexed validatorId,\n        uint256 indexed exitEpoch,\n        address indexed signer\n    );\n    event UnJailed(uint256 indexed validatorId, address indexed signer);\n    event Slashed(uint256 indexed nonce, uint256 indexed amount);\n    event ThresholdChange(uint256 newThreshold, uint256 oldThreshold);\n    event DynastyValueChange(uint256 newDynasty, uint256 oldDynasty);\n    event ProposerBonusChange(\n        uint256 newProposerBonus,\n        uint256 oldProposerBonus\n    );\n\n    event RewardUpdate(uint256 newReward, uint256 oldReward);\n\n    /// @dev Emitted when validator confirms the auction bid and at the time of restaking in confirmAuctionBid() and restake().\n    /// @param validatorId unique integer to identify a validator.\n    /// @param nonce to synchronize the events in heimdal.\n    /// @param newAmount the updated stake amount.\n    event StakeUpdate(\n        uint256 indexed validatorId,\n        uint256 indexed nonce,\n        uint256 indexed newAmount\n    );\n    event ClaimRewards(\n        uint256 indexed validatorId,\n        uint256 indexed amount,\n        uint256 indexed totalAmount\n    );\n    event StartAuction(\n        uint256 indexed validatorId,\n        uint256 indexed amount,\n        uint256 indexed auctionAmount\n    );\n    event ConfirmAuction(\n        uint256 indexed newValidatorId,\n        uint256 indexed oldValidatorId,\n        uint256 indexed amount\n    );\n    event TopUpFee(address indexed user, uint256 indexed fee);\n    event ClaimFee(address indexed user, uint256 indexed fee);\n    // Delegator events\n    event ShareMinted(\n        uint256 indexed validatorId,\n        address indexed user,\n        uint256 indexed amount,\n        uint256 tokens\n    );\n    event ShareBurned(\n        uint256 indexed validatorId,\n        address indexed user,\n        uint256 indexed amount,\n        uint256 tokens\n    );\n    event DelClaimRewards(\n        uint256 indexed validatorId,\n        address indexed user,\n        uint256 indexed rewards,\n        uint256 tokens\n    );\n    event DelReStaked(\n        uint256 indexed validatorId,\n        address indexed user,\n        uint256 indexed totalStaked\n    );\n    event DelUnstaked(\n        uint256 indexed validatorId,\n        address indexed user,\n        uint256 amount\n    );\n    event UpdateCommissionRate(\n        uint256 indexed validatorId,\n        uint256 indexed newCommissionRate,\n        uint256 indexed oldCommissionRate\n    );\n\n    Registry public registry;\n\n    modifier onlyValidatorContract(uint256 validatorId) {\n        address _contract;\n        (, , , , , , _contract, ) = IStakeManager(\n            registry.getStakeManagerAddress()\n        )\n            .validators(validatorId);\n        require(_contract == msg.sender,\n        \"Invalid sender, not validator\");\n        _;\n    }\n\n    modifier StakeManagerOrValidatorContract(uint256 validatorId) {\n        address _contract;\n        address _stakeManager = registry.getStakeManagerAddress();\n        (, , , , , , _contract, ) = IStakeManager(_stakeManager).validators(\n            validatorId\n        );\n        require(_contract == msg.sender || _stakeManager == msg.sender,\n        \"Invalid sender, not stake manager or validator contract\");\n        _;\n    }\n\n    modifier onlyStakeManager() {\n        require(registry.getStakeManagerAddress() == msg.sender,\n        \"Invalid sender, not stake manager\");\n        _;\n    }\n    modifier onlySlashingManager() {\n        require(registry.getSlashingManagerAddress() == msg.sender,\n        \"Invalid sender, not slashing manager\");\n        _;\n    }\n\n    constructor(address _registry) public {\n        registry = Registry(_registry);\n    }\n\n    function logStaked(\n        address signer,\n        bytes memory signerPubkey,\n        uint256 validatorId,\n        uint256 activationEpoch,\n        uint256 amount,\n        uint256 total\n    ) public onlyStakeManager {\n        validatorNonce[validatorId] = validatorNonce[validatorId].add(1);\n        emit Staked(\n            signer,\n            validatorId,\n            validatorNonce[validatorId],\n            activationEpoch,\n            amount,\n            total,\n            signerPubkey\n        );\n    }\n\n    function logUnstaked(\n        address user,\n        uint256 validatorId,\n        uint256 amount,\n        uint256 total\n    ) public onlyStakeManager {\n        emit Unstaked(user, validatorId, amount, total);\n    }\n\n    function logUnstakeInit(\n        address user,\n        uint256 validatorId,\n        uint256 deactivationEpoch,\n        uint256 amount\n    ) public onlyStakeManager {\n        validatorNonce[validatorId] = validatorNonce[validatorId].add(1);\n        emit UnstakeInit(\n            user,\n            validatorId,\n            validatorNonce[validatorId],\n            deactivationEpoch,\n            amount\n        );\n    }\n\n    function logSignerChange(\n        uint256 validatorId,\n        address oldSigner,\n        address newSigner,\n        bytes memory signerPubkey\n    ) public onlyStakeManager {\n        validatorNonce[validatorId] = validatorNonce[validatorId].add(1);\n        emit SignerChange(\n            validatorId,\n            validatorNonce[validatorId],\n            oldSigner,\n            newSigner,\n            signerPubkey\n        );\n    }\n\n    function logReStaked(uint256 validatorId, uint256 amount, uint256 total)\n        public\n        onlyStakeManager\n    {\n        emit ReStaked(validatorId, amount, total);\n    }\n\n    function logJailed(uint256 validatorId, uint256 exitEpoch, address signer)\n        public\n        onlyStakeManager\n    {\n        emit Jailed(validatorId, exitEpoch, signer);\n    }\n\n    function logUnJailed(uint256 validatorId, address signer)\n        public\n        onlyStakeManager\n    {\n        emit UnJailed(validatorId, signer);\n    }\n\n    function logSlashed(uint256 nonce, uint256 amount)\n        public\n        onlySlashingManager\n    {\n        emit Slashed(nonce, amount);\n    }\n\n    function logThresholdChange(uint256 newThreshold, uint256 oldThreshold)\n        public\n        onlyStakeManager\n    {\n        emit ThresholdChange(newThreshold, oldThreshold);\n    }\n\n    function logDynastyValueChange(uint256 newDynasty, uint256 oldDynasty)\n        public\n        onlyStakeManager\n    {\n        emit DynastyValueChange(newDynasty, oldDynasty);\n    }\n\n    function logProposerBonusChange(\n        uint256 newProposerBonus,\n        uint256 oldProposerBonus\n    ) public onlyStakeManager {\n        emit ProposerBonusChange(newProposerBonus, oldProposerBonus);\n    }\n\n    function logRewardUpdate(uint256 newReward, uint256 oldReward)\n        public\n        onlyStakeManager\n    {\n        emit RewardUpdate(newReward, oldReward);\n    }\n\n    function logStakeUpdate(uint256 validatorId)\n        public\n        StakeManagerOrValidatorContract(validatorId)\n    {\n        validatorNonce[validatorId] = validatorNonce[validatorId].add(1);\n        emit StakeUpdate(\n            validatorId,\n            validatorNonce[validatorId],\n            totalValidatorStake(validatorId)\n        );\n    }\n\n    function logClaimRewards(\n        uint256 validatorId,\n        uint256 amount,\n        uint256 totalAmount\n    ) public onlyStakeManager {\n        emit ClaimRewards(validatorId, amount, totalAmount);\n    }\n\n    function logStartAuction(\n        uint256 validatorId,\n        uint256 amount,\n        uint256 auctionAmount\n    ) public onlyStakeManager {\n        emit StartAuction(validatorId, amount, auctionAmount);\n    }\n\n    function logConfirmAuction(\n        uint256 newValidatorId,\n        uint256 oldValidatorId,\n        uint256 amount\n    ) public onlyStakeManager {\n        emit ConfirmAuction(newValidatorId, oldValidatorId, amount);\n    }\n\n    function logTopUpFee(address user, uint256 fee) public onlyStakeManager {\n        emit TopUpFee(user, fee);\n    }\n\n    function logClaimFee(address user, uint256 fee) public onlyStakeManager {\n        emit ClaimFee(user, fee);\n    }\n\n    function getStakerDetails(uint256 validatorId)\n        public\n        view\n        returns (\n            uint256 amount,\n            uint256 reward,\n            uint256 activationEpoch,\n            uint256 deactivationEpoch,\n            address signer,\n            uint256 _status\n        )\n    {\n        IStakeManager stakeManager = IStakeManager(\n            registry.getStakeManagerAddress()\n        );\n        address _contract;\n        IStakeManager.Status status;\n        (\n            amount,\n            reward,\n            activationEpoch,\n            deactivationEpoch,\n            ,\n            signer,\n            _contract,\n            status\n        ) = stakeManager.validators(validatorId);\n        reward += IStakeManager(_contract).validatorRewards();\n        _status = uint256(status);\n    }\n\n    function totalValidatorStake(uint256 validatorId)\n        public\n        view\n        returns (uint256 validatorStake)\n    {\n        address contractAddress;\n        (validatorStake, , , , , , contractAddress, ) = IStakeManager(\n            registry.getStakeManagerAddress()\n        )\n            .validators(validatorId);\n        if (contractAddress != address(0x0)) {\n            validatorStake += IStakeManager(contractAddress).activeAmount();\n        }\n    }\n\n    function getAccountStateRoot()\n        public\n        view\n        returns (bytes32 accountStateRoot)\n    {\n        accountStateRoot = IStakeManager(registry.getStakeManagerAddress())\n            .accountStateRoot();\n    }\n\n    function getValidatorContractAddress(uint256 validatorId)\n        public\n        view\n        returns (address ValidatorContract)\n    {\n        (, , , , , , ValidatorContract, ) = IStakeManager(\n            registry.getStakeManagerAddress()\n        )\n            .validators(validatorId);\n    }\n\n    // validator Share contract logging func\n    function logShareMinted(\n        uint256 validatorId,\n        address user,\n        uint256 amount,\n        uint256 tokens\n    ) public onlyValidatorContract(validatorId) {\n        emit ShareMinted(validatorId, user, amount, tokens);\n    }\n\n    function logShareBurned(\n        uint256 validatorId,\n        address user,\n        uint256 amount,\n        uint256 tokens\n    ) public onlyValidatorContract(validatorId) {\n        emit ShareBurned(validatorId, user, amount, tokens);\n    }\n\n    function logDelClaimRewards(\n        uint256 validatorId,\n        address user,\n        uint256 rewards,\n        uint256 tokens\n    ) public onlyValidatorContract(validatorId) {\n        emit DelClaimRewards(validatorId, user, rewards, tokens);\n    }\n\n    function logDelReStaked(\n        uint256 validatorId,\n        address user,\n        uint256 totalStaked\n    ) public onlyValidatorContract(validatorId) {\n        emit DelReStaked(validatorId, user, totalStaked);\n    }\n\n    function logDelUnstaked(uint256 validatorId, address user, uint256 amount)\n        public\n        onlyValidatorContract(validatorId)\n    {\n        emit DelUnstaked(validatorId, user, amount);\n    }\n\n    function logUpdateCommissionRate(\n        uint256 validatorId,\n        uint256 newCommissionRate,\n        uint256 oldCommissionRate\n    ) public onlyValidatorContract(validatorId) {\n        emit UpdateCommissionRate(\n            validatorId,\n            newCommissionRate,\n            oldCommissionRate\n        );\n    }\n}\n",
  "sourcePath": "/Users/arth/Documents/Projects/contracts/contracts/staking/StakingInfo.sol",
  "compiler": {
    "name": "solc",
    "version": "0.5.11+commit.c082d0b4.Emscripten.clang"
  },
  "schemaVersion": "3.0.14",
  "updatedAt": "2020-05-27T11:07:39.844Z",
  "devdoc": {
    "methods": {}
  },
  "userdoc": {
    "methods": {}
  }
}