{
  "contractName": "StakeManagerTestable",
  "abi": [
    {
      "constant": false,
      "inputs": [
        {
          "internalType": "uint256",
          "name": "amount",
          "type": "uint256"
        },
        {
          "internalType": "uint256",
          "name": "heimdallFee",
          "type": "uint256"
        },
        {
          "internalType": "bool",
          "name": "acceptDelegation",
          "type": "bool"
        },
        {
          "internalType": "bytes",
          "name": "signerPubkey",
          "type": "bytes"
        }
      ],
      "name": "stake",
      "outputs": [],
      "payable": false,
      "stateMutability": "nonpayable",
      "type": "function"
    },
    {
      "constant": false,
      "inputs": [
        {
          "internalType": "uint256",
          "name": "blockInterval",
          "type": "uint256"
        },
        {
          "internalType": "bytes32",
          "name": "voteHash",
          "type": "bytes32"
        },
        {
          "internalType": "bytes32",
          "name": "stateRoot",
          "type": "bytes32"
        },
        {
          "internalType": "address",
          "name": "proposer",
          "type": "address"
        },
        {
          "internalType": "bytes",
          "name": "sigs",
          "type": "bytes"
        }
      ],
      "name": "checkSignatures",
      "outputs": [
        {
          "internalType": "uint256",
          "name": "",
          "type": "uint256"
        }
      ],
      "payable": false,
      "stateMutability": "nonpayable",
      "type": "function"
    },
    {
      "constant": false,
      "inputs": [
        {
          "internalType": "uint256",
          "name": "_limit",
          "type": "uint256"
        }
      ],
      "name": "updateSignerUpdateLimit",
      "outputs": [],
      "payable": false,
      "stateMutability": "nonpayable",
      "type": "function"
    },
    {
      "constant": true,
      "inputs": [],
      "name": "auctionPeriod",
      "outputs": [
        {
          "internalType": "uint256",
          "name": "",
          "type": "uint256"
        }
      ],
      "payable": false,
      "stateMutability": "view",
      "type": "function"
    },
    {
      "constant": true,
      "inputs": [],
      "name": "totalRewards",
      "outputs": [
        {
          "internalType": "uint256",
          "name": "",
          "type": "uint256"
        }
      ],
      "payable": false,
      "stateMutability": "view",
      "type": "function"
    },
    {
      "constant": true,
      "inputs": [],
      "name": "WITHDRAWAL_DELAY",
      "outputs": [
        {
          "internalType": "uint256",
          "name": "",
          "type": "uint256"
        }
      ],
      "payable": false,
      "stateMutability": "view",
      "type": "function"
    },
    {
      "constant": false,
      "inputs": [
        {
          "internalType": "address",
          "name": "_token",
          "type": "address"
        }
      ],
      "name": "setToken",
      "outputs": [],
      "payable": false,
      "stateMutability": "nonpayable",
      "type": "function"
    },
    {
      "constant": false,
      "inputs": [
        {
          "internalType": "uint256",
          "name": "newThreshold",
          "type": "uint256"
        }
      ],
      "name": "updateValidatorThreshold",
      "outputs": [],
      "payable": false,
      "stateMutability": "nonpayable",
      "type": "function"
    },
    {
      "constant": true,
      "inputs": [
        {
          "internalType": "address",
          "name": "user",
          "type": "address"
        }
      ],
      "name": "getValidatorId",
      "outputs": [
        {
          "internalType": "uint256",
          "name": "",
          "type": "uint256"
        }
      ],
      "payable": false,
      "stateMutability": "view",
      "type": "function"
    },
    {
      "constant": true,
      "inputs": [],
      "name": "accountStateRoot",
      "outputs": [
        {
          "internalType": "bytes32",
          "name": "",
          "type": "bytes32"
        }
      ],
      "payable": false,
      "stateMutability": "view",
      "type": "function"
    },
    {
      "constant": true,
      "inputs": [],
      "name": "checkPointBlockInterval",
      "outputs": [
        {
          "internalType": "uint256",
          "name": "",
          "type": "uint256"
        }
      ],
      "payable": false,
      "stateMutability": "view",
      "type": "function"
    },
    {
      "constant": true,
      "inputs": [
        {
          "internalType": "uint256",
          "name": "validatorId",
          "type": "uint256"
        }
      ],
      "name": "isValidator",
      "outputs": [
        {
          "internalType": "bool",
          "name": "",
          "type": "bool"
        }
      ],
      "payable": false,
      "stateMutability": "view",
      "type": "function"
    },
    {
      "constant": false,
      "inputs": [
        {
          "internalType": "uint256",
          "name": "validatorId",
          "type": "uint256"
        },
        {
          "internalType": "uint256",
          "name": "amount",
          "type": "uint256"
        },
        {
          "internalType": "bool",
          "name": "stakeRewards",
          "type": "bool"
        }
      ],
      "name": "restake",
      "outputs": [],
      "payable": false,
      "stateMutability": "nonpayable",
      "type": "function"
    },
    {
      "constant": false,
      "inputs": [
        {
          "internalType": "uint256",
          "name": "validatorId",
          "type": "uint256"
        }
      ],
      "name": "unstake",
      "outputs": [],
      "payable": false,
      "stateMutability": "nonpayable",
      "type": "function"
    },
    {
      "constant": true,
      "inputs": [],
      "name": "NFTContract",
      "outputs": [
        {
          "internalType": "contract StakingNFT",
          "name": "",
          "type": "address"
        }
      ],
      "payable": false,
      "stateMutability": "view",
      "type": "function"
    },
    {
      "constant": true,
      "inputs": [],
      "name": "proposerBonus",
      "outputs": [
        {
          "internalType": "uint256",
          "name": "",
          "type": "uint256"
        }
      ],
      "payable": false,
      "stateMutability": "view",
      "type": "function"
    },
    {
      "constant": true,
      "inputs": [
        {
          "internalType": "uint256",
          "name": "",
          "type": "uint256"
        }
      ],
      "name": "validators",
      "outputs": [
        {
          "internalType": "uint256",
          "name": "amount",
          "type": "uint256"
        },
        {
          "internalType": "uint256",
          "name": "reward",
          "type": "uint256"
        },
        {
          "internalType": "uint256",
          "name": "activationEpoch",
          "type": "uint256"
        },
        {
          "internalType": "uint256",
          "name": "deactivationEpoch",
          "type": "uint256"
        },
        {
          "internalType": "uint256",
          "name": "jailTime",
          "type": "uint256"
        },
        {
          "internalType": "address",
          "name": "signer",
          "type": "address"
        },
        {
          "internalType": "address",
          "name": "contractAddress",
          "type": "address"
        },
        {
          "internalType": "enum StakeManagerStorage.Status",
          "name": "status",
          "type": "uint8"
        }
      ],
      "payable": false,
      "stateMutability": "view",
      "type": "function"
    },
    {
      "constant": true,
      "inputs": [
        {
          "internalType": "address",
          "name": "",
          "type": "address"
        }
      ],
      "name": "signerToValidator",
      "outputs": [
        {
          "internalType": "uint256",
          "name": "",
          "type": "uint256"
        }
      ],
      "payable": false,
      "stateMutability": "view",
      "type": "function"
    },
    {
      "constant": false,
      "inputs": [
        {
          "internalType": "uint256",
          "name": "validatorId",
          "type": "uint256"
        }
      ],
      "name": "unJail",
      "outputs": [],
      "payable": false,
      "stateMutability": "nonpayable",
      "type": "function"
    },
    {
      "constant": true,
      "inputs": [],
      "name": "minDeposit",
      "outputs": [
        {
          "internalType": "uint256",
          "name": "",
          "type": "uint256"
        }
      ],
      "payable": false,
      "stateMutability": "view",
      "type": "function"
    },
    {
      "constant": false,
      "inputs": [
        {
          "internalType": "uint256",
          "name": "validatorId",
          "type": "uint256"
        },
        {
          "internalType": "address",
          "name": "token",
          "type": "address"
        },
        {
          "internalType": "address payable",
          "name": "destination",
          "type": "address"
        },
        {
          "internalType": "uint256",
          "name": "amount",
          "type": "uint256"
        }
      ],
      "name": "drainValidatorShares",
      "outputs": [],
      "payable": false,
      "stateMutability": "nonpayable",
      "type": "function"
    },
    {
      "constant": true,
      "inputs": [
        {
          "internalType": "address",
          "name": "user",
          "type": "address"
        }
      ],
      "name": "totalStakedFor",
      "outputs": [
        {
          "internalType": "uint256",
          "name": "",
          "type": "uint256"
        }
      ],
      "payable": false,
      "stateMutability": "view",
      "type": "function"
    },
    {
      "constant": true,
      "inputs": [],
      "name": "signerUpdateLimit",
      "outputs": [
        {
          "internalType": "uint256",
          "name": "",
          "type": "uint256"
        }
      ],
      "payable": false,
      "stateMutability": "view",
      "type": "function"
    },
    {
      "constant": true,
      "inputs": [],
      "name": "validatorThreshold",
      "outputs": [
        {
          "internalType": "uint256",
          "name": "",
          "type": "uint256"
        }
      ],
      "payable": false,
      "stateMutability": "view",
      "type": "function"
    },
    {
      "constant": false,
      "inputs": [
        {
          "internalType": "address",
          "name": "user",
          "type": "address"
        },
        {
          "internalType": "uint256",
          "name": "amount",
          "type": "uint256"
        },
        {
          "internalType": "uint256",
          "name": "heimdallFee",
          "type": "uint256"
        },
        {
          "internalType": "bool",
          "name": "acceptDelegation",
          "type": "bool"
        },
        {
          "internalType": "bytes",
          "name": "signerPubkey",
          "type": "bytes"
        }
      ],
      "name": "stakeFor",
      "outputs": [],
      "payable": false,
      "stateMutability": "nonpayable",
      "type": "function"
    },
    {
      "constant": false,
      "inputs": [
        {
          "internalType": "uint256",
          "name": "validatorId",
          "type": "uint256"
        },
        {
          "internalType": "uint256",
          "name": "amount",
          "type": "uint256"
        }
      ],
      "name": "startAuction",
      "outputs": [],
      "payable": false,
      "stateMutability": "nonpayable",
      "type": "function"
    },
    {
      "constant": true,
      "inputs": [
        {
          "internalType": "uint256",
          "name": "",
          "type": "uint256"
        }
      ],
      "name": "validatorAuction",
      "outputs": [
        {
          "internalType": "uint256",
          "name": "amount",
          "type": "uint256"
        },
        {
          "internalType": "uint256",
          "name": "startEpoch",
          "type": "uint256"
        },
        {
          "internalType": "address",
          "name": "user",
          "type": "address"
        }
      ],
      "payable": false,
      "stateMutability": "view",
      "type": "function"
    },
    {
      "constant": true,
      "inputs": [],
      "name": "delegationEnabled",
      "outputs": [
        {
          "internalType": "bool",
          "name": "",
          "type": "bool"
        }
      ],
      "payable": false,
      "stateMutability": "view",
      "type": "function"
    },
    {
      "constant": true,
      "inputs": [],
      "name": "NFTCounter",
      "outputs": [
        {
          "internalType": "uint256",
          "name": "",
          "type": "uint256"
        }
      ],
      "payable": false,
      "stateMutability": "view",
      "type": "function"
    },
    {
      "constant": true,
      "inputs": [
        {
          "internalType": "uint256",
          "name": "validatorId",
          "type": "uint256"
        }
      ],
      "name": "getValidatorContract",
      "outputs": [
        {
          "internalType": "address",
          "name": "",
          "type": "address"
        }
      ],
      "payable": false,
      "stateMutability": "view",
      "type": "function"
    },
    {
      "constant": true,
      "inputs": [],
      "name": "governance",
      "outputs": [
        {
          "internalType": "contract IGovernance",
          "name": "",
          "type": "address"
        }
      ],
      "payable": false,
      "stateMutability": "view",
      "type": "function"
    },
    {
      "constant": true,
      "inputs": [
        {
          "internalType": "uint256",
          "name": "",
          "type": "uint256"
        }
      ],
      "name": "validatorState",
      "outputs": [
        {
          "internalType": "int256",
          "name": "amount",
          "type": "int256"
        },
        {
          "internalType": "int256",
          "name": "stakerCount",
          "type": "int256"
        }
      ],
      "payable": false,
      "stateMutability": "view",
      "type": "function"
    },
    {
      "constant": false,
      "inputs": [
        {
          "internalType": "bytes",
          "name": "_slashingInfoList",
          "type": "bytes"
        }
      ],
      "name": "slash",
      "outputs": [
        {
          "internalType": "uint256",
          "name": "",
          "type": "uint256"
        }
      ],
      "payable": false,
      "stateMutability": "nonpayable",
      "type": "function"
    },
    {
      "constant": true,
      "inputs": [
        {
          "internalType": "uint256",
          "name": "tokenId",
          "type": "uint256"
        }
      ],
      "name": "ownerOf",
      "outputs": [
        {
          "internalType": "address",
          "name": "",
          "type": "address"
        }
      ],
      "payable": false,
      "stateMutability": "view",
      "type": "function"
    },
    {
      "constant": false,
      "inputs": [
        {
          "internalType": "address",
          "name": "user",
          "type": "address"
        },
        {
          "internalType": "uint256",
          "name": "heimdallFee",
          "type": "uint256"
        }
      ],
      "name": "topUpForFee",
      "outputs": [],
      "payable": false,
      "stateMutability": "nonpayable",
      "type": "function"
    },
    {
      "constant": false,
      "inputs": [
        {
          "internalType": "address",
          "name": "_NFTContract",
          "type": "address"
        },
        {
          "internalType": "address",
          "name": "_stakingLogger",
          "type": "address"
        },
        {
          "internalType": "address",
          "name": "_validatorShareFactory",
          "type": "address"
        }
      ],
      "name": "reinitialize",
      "outputs": [],
      "payable": false,
      "stateMutability": "nonpayable",
      "type": "function"
    },
    {
      "constant": false,
      "inputs": [
        {
          "internalType": "uint256",
          "name": "accumFeeAmount",
          "type": "uint256"
        },
        {
          "internalType": "uint256",
          "name": "index",
          "type": "uint256"
        },
        {
          "internalType": "bytes",
          "name": "proof",
          "type": "bytes"
        }
      ],
      "name": "claimFee",
      "outputs": [],
      "payable": false,
      "stateMutability": "nonpayable",
      "type": "function"
    },
    {
      "constant": false,
      "inputs": [
        {
          "internalType": "uint256",
          "name": "validatorId",
          "type": "uint256"
        },
        {
          "internalType": "uint256",
          "name": "amount",
          "type": "uint256"
        },
        {
          "internalType": "address",
          "name": "delegator",
          "type": "address"
        }
      ],
      "name": "delegationDeposit",
      "outputs": [
        {
          "internalType": "bool",
          "name": "",
          "type": "bool"
        }
      ],
      "payable": false,
      "stateMutability": "nonpayable",
      "type": "function"
    },
    {
      "constant": true,
      "inputs": [],
      "name": "supportsHistory",
      "outputs": [
        {
          "internalType": "bool",
          "name": "",
          "type": "bool"
        }
      ],
      "payable": false,
      "stateMutability": "pure",
      "type": "function"
    },
    {
      "constant": true,
      "inputs": [],
      "name": "dynasty",
      "outputs": [
        {
          "internalType": "uint256",
          "name": "",
          "type": "uint256"
        }
      ],
      "payable": false,
      "stateMutability": "view",
      "type": "function"
    },
    {
      "constant": false,
      "inputs": [],
      "name": "renounceOwnership",
      "outputs": [],
      "payable": false,
      "stateMutability": "nonpayable",
      "type": "function"
    },
    {
      "constant": true,
      "inputs": [],
      "name": "currentEpoch",
      "outputs": [
        {
          "internalType": "uint256",
          "name": "",
          "type": "uint256"
        }
      ],
      "payable": false,
      "stateMutability": "view",
      "type": "function"
    },
    {
      "constant": true,
      "inputs": [],
      "name": "replacementCoolDown",
      "outputs": [
        {
          "internalType": "uint256",
          "name": "",
          "type": "uint256"
        }
      ],
      "payable": false,
      "stateMutability": "view",
      "type": "function"
    },
    {
      "constant": true,
      "inputs": [
        {
          "internalType": "address",
          "name": "",
          "type": "address"
        }
      ],
      "name": "userFeeExit",
      "outputs": [
        {
          "internalType": "uint256",
          "name": "",
          "type": "uint256"
        }
      ],
      "payable": false,
      "stateMutability": "view",
      "type": "function"
    },
    {
      "constant": true,
      "inputs": [],
      "name": "registry",
      "outputs": [
        {
          "internalType": "address",
          "name": "",
          "type": "address"
        }
      ],
      "payable": false,
      "stateMutability": "view",
      "type": "function"
    },
    {
      "constant": true,
      "inputs": [],
      "name": "CHECKPOINT_REWARD",
      "outputs": [
        {
          "internalType": "uint256",
          "name": "",
          "type": "uint256"
        }
      ],
      "payable": false,
      "stateMutability": "view",
      "type": "function"
    },
    {
      "constant": true,
      "inputs": [],
      "name": "currentValidatorSetSize",
      "outputs": [
        {
          "internalType": "uint256",
          "name": "",
          "type": "uint256"
        }
      ],
      "payable": false,
      "stateMutability": "view",
      "type": "function"
    },
    {
      "constant": true,
      "inputs": [],
      "name": "totalStaked",
      "outputs": [
        {
          "internalType": "uint256",
          "name": "",
          "type": "uint256"
        }
      ],
      "payable": false,
      "stateMutability": "view",
      "type": "function"
    },
    {
      "constant": true,
      "inputs": [],
      "name": "owner",
      "outputs": [
        {
          "internalType": "address",
          "name": "",
          "type": "address"
        }
      ],
      "payable": false,
      "stateMutability": "view",
      "type": "function"
    },
    {
      "constant": true,
      "inputs": [],
      "name": "isOwner",
      "outputs": [
        {
          "internalType": "bool",
          "name": "",
          "type": "bool"
        }
      ],
      "payable": false,
      "stateMutability": "view",
      "type": "function"
    },
    {
      "constant": true,
      "inputs": [],
      "name": "epoch",
      "outputs": [
        {
          "internalType": "uint256",
          "name": "",
          "type": "uint256"
        }
      ],
      "payable": false,
      "stateMutability": "view",
      "type": "function"
    },
    {
      "constant": false,
      "inputs": [
        {
          "internalType": "uint256",
          "name": "validatorId",
          "type": "uint256"
        }
      ],
      "name": "forceUnstake",
      "outputs": [],
      "payable": false,
      "stateMutability": "nonpayable",
      "type": "function"
    },
    {
      "constant": false,
      "inputs": [
        {
          "internalType": "uint256",
          "name": "validatorId",
          "type": "uint256"
        }
      ],
      "name": "withdrawRewards",
      "outputs": [],
      "payable": false,
      "stateMutability": "nonpayable",
      "type": "function"
    },
    {
      "constant": true,
      "inputs": [],
      "name": "rootChain",
      "outputs": [
        {
          "internalType": "address",
          "name": "",
          "type": "address"
        }
      ],
      "payable": false,
      "stateMutability": "view",
      "type": "function"
    },
    {
      "constant": true,
      "inputs": [],
      "name": "totalHeimdallFee",
      "outputs": [
        {
          "internalType": "uint256",
          "name": "",
          "type": "uint256"
        }
      ],
      "payable": false,
      "stateMutability": "view",
      "type": "function"
    },
    {
      "constant": false,
      "inputs": [
        {
          "internalType": "uint256",
          "name": "newProposerBonus",
          "type": "uint256"
        }
      ],
      "name": "updateProposerBonus",
      "outputs": [],
      "payable": false,
      "stateMutability": "nonpayable",
      "type": "function"
    },
    {
      "constant": false,
      "inputs": [
        {
          "internalType": "uint256",
          "name": "validatorId",
          "type": "uint256"
        },
        {
          "internalType": "int256",
          "name": "amount",
          "type": "int256"
        }
      ],
      "name": "updateValidatorState",
      "outputs": [],
      "payable": false,
      "stateMutability": "nonpayable",
      "type": "function"
    },
    {
      "constant": false,
      "inputs": [
        {
          "internalType": "uint256",
          "name": "_blocks",
          "type": "uint256"
        }
      ],
      "name": "updateCheckPointBlockInterval",
      "outputs": [],
      "payable": false,
      "stateMutability": "nonpayable",
      "type": "function"
    },
    {
      "constant": true,
      "inputs": [],
      "name": "currentValidatorSetTotalStake",
      "outputs": [
        {
          "internalType": "uint256",
          "name": "",
          "type": "uint256"
        }
      ],
      "payable": false,
      "stateMutability": "view",
      "type": "function"
    },
    {
      "constant": false,
      "inputs": [],
      "name": "unlock",
      "outputs": [],
      "payable": false,
      "stateMutability": "nonpayable",
      "type": "function"
    },
    {
      "constant": true,
      "inputs": [],
      "name": "withdrawalDelay",
      "outputs": [
        {
          "internalType": "uint256",
          "name": "",
          "type": "uint256"
        }
      ],
      "payable": false,
      "stateMutability": "view",
      "type": "function"
    },
    {
      "constant": false,
      "inputs": [
        {
          "internalType": "address",
          "name": "destination",
          "type": "address"
        },
        {
          "internalType": "uint256",
          "name": "amount",
          "type": "uint256"
        }
      ],
      "name": "drain",
      "outputs": [],
      "payable": false,
      "stateMutability": "nonpayable",
      "type": "function"
    },
    {
      "constant": false,
      "inputs": [
        {
          "internalType": "uint256",
          "name": "_minDeposit",
          "type": "uint256"
        },
        {
          "internalType": "uint256",
          "name": "_minHeimdallFee",
          "type": "uint256"
        }
      ],
      "name": "updateMinAmounts",
      "outputs": [],
      "payable": false,
      "stateMutability": "nonpayable",
      "type": "function"
    },
    {
      "constant": true,
      "inputs": [
        {
          "internalType": "bytes32",
          "name": "voteHash",
          "type": "bytes32"
        },
        {
          "internalType": "bytes",
          "name": "sigs",
          "type": "bytes"
        }
      ],
      "name": "verifyConsensus",
      "outputs": [
        {
          "internalType": "uint256",
          "name": "",
          "type": "uint256"
        },
        {
          "internalType": "uint256",
          "name": "",
          "type": "uint256"
        }
      ],
      "payable": false,
      "stateMutability": "view",
      "type": "function"
    },
    {
      "constant": false,
      "inputs": [
        {
          "internalType": "uint256",
          "name": "validatorId",
          "type": "uint256"
        },
        {
          "internalType": "uint256",
          "name": "amount",
          "type": "uint256"
        },
        {
          "internalType": "address",
          "name": "delegator",
          "type": "address"
        }
      ],
      "name": "transferFunds",
      "outputs": [
        {
          "internalType": "bool",
          "name": "",
          "type": "bool"
        }
      ],
      "payable": false,
      "stateMutability": "nonpayable",
      "type": "function"
    },
    {
      "constant": true,
      "inputs": [],
      "name": "factory",
      "outputs": [
        {
          "internalType": "contract ValidatorShareFactory",
          "name": "",
          "type": "address"
        }
      ],
      "payable": false,
      "stateMutability": "view",
      "type": "function"
    },
    {
      "constant": false,
      "inputs": [
        {
          "internalType": "uint256",
          "name": "validatorId",
          "type": "uint256"
        },
        {
          "internalType": "uint256",
          "name": "heimdallFee",
          "type": "uint256"
        },
        {
          "internalType": "bool",
          "name": "acceptDelegation",
          "type": "bool"
        },
        {
          "internalType": "bytes",
          "name": "signerPubkey",
          "type": "bytes"
        }
      ],
      "name": "confirmAuctionBid",
      "outputs": [],
      "payable": false,
      "stateMutability": "nonpayable",
      "type": "function"
    },
    {
      "constant": false,
      "inputs": [
        {
          "internalType": "uint256",
          "name": "newReward",
          "type": "uint256"
        }
      ],
      "name": "updateCheckpointReward",
      "outputs": [],
      "payable": false,
      "stateMutability": "nonpayable",
      "type": "function"
    },
    {
      "constant": true,
      "inputs": [],
      "name": "totalRewardsLiquidated",
      "outputs": [
        {
          "internalType": "uint256",
          "name": "",
          "type": "uint256"
        }
      ],
      "payable": false,
      "stateMutability": "view",
      "type": "function"
    },
    {
      "constant": true,
      "inputs": [],
      "name": "locked",
      "outputs": [
        {
          "internalType": "bool",
          "name": "",
          "type": "bool"
        }
      ],
      "payable": false,
      "stateMutability": "view",
      "type": "function"
    },
    {
      "constant": true,
      "inputs": [
        {
          "internalType": "bytes",
          "name": "pub",
          "type": "bytes"
        }
      ],
      "name": "pubToAddress",
      "outputs": [
        {
          "internalType": "address",
          "name": "",
          "type": "address"
        }
      ],
      "payable": false,
      "stateMutability": "pure",
      "type": "function"
    },
    {
      "constant": true,
      "inputs": [
        {
          "internalType": "uint256",
          "name": "",
          "type": "uint256"
        }
      ],
      "name": "latestSignerUpdateEpoch",
      "outputs": [
        {
          "internalType": "uint256",
          "name": "",
          "type": "uint256"
        }
      ],
      "payable": false,
      "stateMutability": "view",
      "type": "function"
    },
    {
      "constant": false,
      "inputs": [
        {
          "internalType": "uint256",
          "name": "validatorId",
          "type": "uint256"
        }
      ],
      "name": "unstakeClaim",
      "outputs": [],
      "payable": false,
      "stateMutability": "nonpayable",
      "type": "function"
    },
    {
      "constant": false,
      "inputs": [
        {
          "internalType": "address",
          "name": "newFactory",
          "type": "address"
        }
      ],
      "name": "updateContractFactory",
      "outputs": [],
      "payable": false,
      "stateMutability": "nonpayable",
      "type": "function"
    },
    {
      "constant": false,
      "inputs": [
        {
          "internalType": "uint256",
          "name": "newDynasty",
          "type": "uint256"
        }
      ],
      "name": "updateDynastyValue",
      "outputs": [],
      "payable": false,
      "stateMutability": "nonpayable",
      "type": "function"
    },
    {
      "constant": false,
      "inputs": [
        {
          "internalType": "address",
          "name": "newRootChain",
          "type": "address"
        }
      ],
      "name": "changeRootChain",
      "outputs": [],
      "payable": false,
      "stateMutability": "nonpayable",
      "type": "function"
    },
    {
      "constant": true,
      "inputs": [
        {
          "internalType": "uint256",
          "name": "validatorId",
          "type": "uint256"
        }
      ],
      "name": "validatorStake",
      "outputs": [
        {
          "internalType": "uint256",
          "name": "",
          "type": "uint256"
        }
      ],
      "payable": false,
      "stateMutability": "view",
      "type": "function"
    },
    {
      "constant": true,
      "inputs": [],
      "name": "logger",
      "outputs": [
        {
          "internalType": "contract StakingInfo",
          "name": "",
          "type": "address"
        }
      ],
      "payable": false,
      "stateMutability": "view",
      "type": "function"
    },
    {
      "constant": false,
      "inputs": [
        {
          "internalType": "bool",
          "name": "enabled",
          "type": "bool"
        }
      ],
      "name": "setDelegationEnabled",
      "outputs": [],
      "payable": false,
      "stateMutability": "nonpayable",
      "type": "function"
    },
    {
      "constant": false,
      "inputs": [
        {
          "internalType": "address",
          "name": "newOwner",
          "type": "address"
        }
      ],
      "name": "transferOwnership",
      "outputs": [],
      "payable": false,
      "stateMutability": "nonpayable",
      "type": "function"
    },
    {
      "constant": false,
      "inputs": [
        {
          "internalType": "uint256",
          "name": "validatorId",
          "type": "uint256"
        },
        {
          "internalType": "bytes",
          "name": "signerPubkey",
          "type": "bytes"
        }
      ],
      "name": "updateSigner",
      "outputs": [],
      "payable": false,
      "stateMutability": "nonpayable",
      "type": "function"
    },
    {
      "constant": false,
      "inputs": [
        {
          "internalType": "uint256",
          "name": "validatorId",
          "type": "uint256"
        },
        {
          "internalType": "address",
          "name": "newContractAddress",
          "type": "address"
        }
      ],
      "name": "updateContractAddress",
      "outputs": [],
      "payable": false,
      "stateMutability": "nonpayable",
      "type": "function"
    },
    {
      "constant": false,
      "inputs": [
        {
          "internalType": "uint256",
          "name": "forNCheckpoints",
          "type": "uint256"
        }
      ],
      "name": "stopAuctions",
      "outputs": [],
      "payable": false,
      "stateMutability": "nonpayable",
      "type": "function"
    },
    {
      "constant": false,
      "inputs": [],
      "name": "lock",
      "outputs": [],
      "payable": false,
      "stateMutability": "nonpayable",
      "type": "function"
    },
    {
      "constant": true,
      "inputs": [],
      "name": "minHeimdallFee",
      "outputs": [
        {
          "internalType": "uint256",
          "name": "",
          "type": "uint256"
        }
      ],
      "payable": false,
      "stateMutability": "view",
      "type": "function"
    },
    {
      "constant": true,
      "inputs": [],
      "name": "token",
      "outputs": [
        {
          "internalType": "contract IERC20",
          "name": "",
          "type": "address"
        }
      ],
      "payable": false,
      "stateMutability": "view",
      "type": "function"
    },
    {
      "anonymous": false,
      "inputs": [
        {
          "indexed": true,
          "internalType": "address",
          "name": "previousRootChain",
          "type": "address"
        },
        {
          "indexed": true,
          "internalType": "address",
          "name": "newRootChain",
          "type": "address"
        }
      ],
      "name": "RootChainChanged",
      "type": "event"
    },
    {
      "anonymous": false,
      "inputs": [
        {
          "indexed": true,
          "internalType": "address",
          "name": "previousOwner",
          "type": "address"
        },
        {
          "indexed": true,
          "internalType": "address",
          "name": "newOwner",
          "type": "address"
        }
      ],
      "name": "OwnershipTransferred",
      "type": "event"
    },
    {
      "constant": false,
      "inputs": [
        {
          "internalType": "uint256",
          "name": "delta",
          "type": "uint256"
        }
      ],
      "name": "advanceEpoch",
      "outputs": [],
      "payable": false,
      "stateMutability": "nonpayable",
      "type": "function"
    }
  ],
  "bytecode": "0x60806040526120006009556001600a55612000600b5569021e19e0c9bab2400000600c55670de0b6b3a7640000600d55670de0b6b3a7640000600e5560ff600f556064601055600a60115560016013556004600b548161005b57fe5b04601655600a601755601a805460ff19166001179055600080546001600160a01b031916331780825560405182916001600160a01b03169082907f8be0079c531659141344cd1fd0a4f28419497f9722a3daafe3b4186f6b6457e0908290a3600280546001600160a01b0319166001600160a01b039290921691909117905550615fea80620000eb6000396000f3fe608060405234801561001057600080fd5b50600436106104cd5760003560e01c806378f84a4411610283578063c45a01551161015c578063eceec1d3116100ce578063f41a964211610092578063f41a96421461116b578063f4547a4d14611216578063f771fc8714611242578063f83d08ba1461125f578063fba58f3414611267578063fc0c546a1461126f576104cd565b8063eceec1d3146110e4578063f24ccbfe14611101578063f28699fa14611109578063f2fde38b14611128578063f3b877791461114e576104cd565b8063d011027411610120578063d011027414610f9d578063d7f5549d14611041578063d86d53e71461105e578063e1edc9301461107b578063e6692f49146110a1578063e8afa8e8146110be576104cd565b8063c45a015514610ee5578063c8b194a214610eed578063cbf383d514610f70578063cd6b838814610f8d578063cf30901214610f95576104cd565b80639a8a6243116101f5578063a69df4b5116101b9578063a69df4b514610da9578063a7ab696114610db1578063b184be8114610db9578063b1d23f0214610de5578063bbcfbbb014610e08578063bc8756a914610eb3576104cd565b80639a8a624314610d3c5780639b33f43414610d445780639ff1150014610d61578063a440ab1e14610d84578063a476907114610da1576104cd565b80638da5cb5b116102475780638da5cb5b14610ce25780638f32d59b14610cea578063900cf0cf14610cf25780639146014914610cfa5780639342c8f414610d17578063987ab9db14610d34576104cd565b806378f84a4414610c9c5780637b10399914610cc25780637d66975214610cca5780637f952d9514610cd2578063817b1cd214610cda576104cd565b80634b341aed116103b55780635e47655f116103275780636901b253116102eb5780636901b25314610c425780637033e4a614610c745780637060054d14610c7c578063715018a614610c845780637667180814610c8c57806377939d1014610c94576104cd565b80635e47655f14610a6d5780636352211e14610b115780636365679814610b2e5780636400e38514610b5a57806368cb812a14610b92576104cd565b80635325e144116103795780635325e144146109be57806354b8c60114610a025780635508d8e114610a0a57806356342d8c14610a125780635aa6e67514610a2f5780635c24885514610a37576104cd565b80634b341aed1461089e5780634e3c83f1146108c45780634fd101d7146108cc5780634fdd20f1146108d45780634fee13fc1461099b576104cd565b8063253164111161044e5780633427458611610412578063342745861461077957806335aa2e44146107815780633862da0b146108175780633d02455b1461083d57806341b3d1851461085a57806348ab8b2a14610862576104cd565b806325316411146106d45780632649263a146106dc57806328cc4e411461070d5780632e17de781461073857806331c2273b14610755576104cd565b80630ebb172a116104955780630ebb172a1461065b578063144fa6d71461066357806316827b1b14610689578063174e6832146106a657806317c2b910146106cc576104cd565b8063028c4c67146104d2578063066647a01461055757806306cfb1041461062e5780630cccfc581461064b5780630e15561a14610653575b600080fd5b610555600480360360808110156104e857600080fd5b813591602081013591604082013515159190810190608081016060820135600160201b81111561051757600080fd5b82018360208201111561052957600080fd5b803590602001918460018302840111600160201b8311171561054a57600080fd5b509092509050611277565b005b61061c600480360360a081101561056d57600080fd5b8135916020810135916040820135916001600160a01b036060820135169181019060a081016080820135600160201b8111156105a857600080fd5b8201836020820111156105ba57600080fd5b803590602001918460018302840111600160201b831117156105db57600080fd5b91908080601f0160208091040260200160405190810160405280939291908181526020018383808284376000920191909152509295506112c1945050505050565b60408051918252519081900360200190f35b6105556004803603602081101561064457600080fd5b503561143a565b61061c611450565b61061c611456565b61061c61145c565b6105556004803603602081101561067957600080fd5b50356001600160a01b0316611462565b6105556004803603602081101561069f57600080fd5b50356114a8565b61061c600480360360208110156106bc57600080fd5b50356001600160a01b031661153d565b61061c6115c7565b61061c6115cd565b6106f9600480360360208110156106f257600080fd5b50356115d3565b604080519115158252519081900360200190f35b6105556004803603606081101561072357600080fd5b5080359060208101359060400135151561168d565b6105556004803603602081101561074e57600080fd5b5035611aad565b61075d611c30565b604080516001600160a01b039092168252519081900360200190f35b61061c611c3f565b61079e6004803603602081101561079757600080fd5b5035611c45565b60405180898152602001888152602001878152602001868152602001858152602001846001600160a01b03166001600160a01b03168152602001836001600160a01b03166001600160a01b031681526020018260038111156107fc57fe5b60ff1681526020019850505050505050505060405180910390f35b61061c6004803603602081101561082d57600080fd5b50356001600160a01b0316611c9b565b6105556004803603602081101561085357600080fd5b5035611cad565b61061c611f2d565b6105556004803603608081101561087857600080fd5b508035906001600160a01b03602082013581169160408101359091169060600135611f33565b61061c600480360360208110156108b457600080fd5b50356001600160a01b031661204d565b61061c612184565b61061c61218a565b610555600480360360a08110156108ea57600080fd5b6001600160a01b0382351691602081013591604082013591606081013515159181019060a081016080820135600160201b81111561092757600080fd5b82018360208201111561093957600080fd5b803590602001918460018302840111600160201b8311171561095a57600080fd5b91908080601f016020809104026020016040519081016040528093929190818152602001838380828437600092019190915250929550612190945050505050565b610555600480360360408110156109b157600080fd5b50803590602001356123e1565b6109db600480360360208110156109d457600080fd5b5035612946565b6040805193845260208401929092526001600160a01b031682820152519081900360600190f35b6106f9612970565b61061c612979565b61075d60048036036020811015610a2857600080fd5b503561297f565b61075d61299d565b610a5460048036036020811015610a4d57600080fd5b50356129ac565b6040805192835260208301919091528051918290030190f35b61061c60048036036020811015610a8357600080fd5b810190602081018135600160201b811115610a9d57600080fd5b820183602082011115610aaf57600080fd5b803590602001918460018302840111600160201b83111715610ad057600080fd5b91908080601f0160208091040260200160405190810160405280939291908181526020018383808284376000920191909152509295506129c5945050505050565b61075d60048036036020811015610b2757600080fd5b5035612ca6565b61055560048036036040811015610b4457600080fd5b506001600160a01b038135169060200135612cf2565b61055560048036036060811015610b7057600080fd5b506001600160a01b038135811691602081013582169160409091013516612e6e565b61055560048036036060811015610ba857600080fd5b813591602081013591810190606081016040820135600160201b811115610bce57600080fd5b820183602082011115610be057600080fd5b803590602001918460018302840111600160201b83111715610c0157600080fd5b91908080601f016020809104026020016040519081016040528093929190818152602001838380828437600092019190915250929550612ef6945050505050565b6106f960048036036060811015610c5857600080fd5b50803590602081013590604001356001600160a01b0316613145565b6106f9613295565b61061c61329a565b6105556132a0565b61061c6132fb565b61061c613301565b61061c60048036036020811015610cb257600080fd5b50356001600160a01b0316613307565b61075d613319565b61061c613328565b61061c61332e565b61061c613346565b61075d61334c565b6106f961335b565b61061c61336c565b61055560048036036020811015610d1057600080fd5b5035613372565b61055560048036036020811015610d2d57600080fd5b5035613392565b61075d6135f0565b61061c6135ff565b61055560048036036020811015610d5a57600080fd5b5035613605565b61055560048036036040811015610d7757600080fd5b50803590602001356136ca565b61055560048036036020811015610d9a57600080fd5b503561374e565b61061c6137b9565b6105556137ce565b61061c613826565b61055560048036036040811015610dcf57600080fd5b506001600160a01b03813516906020013561382c565b61055560048036036040811015610dfb57600080fd5b508035906020013561393b565b610a5460048036036040811015610e1e57600080fd5b81359190810190604081016020820135600160201b811115610e3f57600080fd5b820183602082011115610e5157600080fd5b803590602001918460018302840111600160201b83111715610e7257600080fd5b91908080601f016020809104026020016040519081016040528093929190818152602001838380828437600092019190915250929550613957945050505050565b6106f960048036036060811015610ec957600080fd5b50803590602081013590604001356001600160a01b0316613b94565b61075d613cee565b61055560048036036080811015610f0357600080fd5b813591602081013591604082013515159190810190608081016060820135600160201b811115610f3257600080fd5b820183602082011115610f4457600080fd5b803590602001918460018302840111600160201b83111715610f6557600080fd5b509092509050613cfd565b61055560048036036020811015610f8657600080fd5b503561424f565b61061c6142e4565b6106f96142ea565b61075d60048036036020811015610fb357600080fd5b810190602081018135600160201b811115610fcd57600080fd5b820183602082011115610fdf57600080fd5b803590602001918460018302840111600160201b8311171561100057600080fd5b91908080601f0160208091040260200160405190810160405280939291908181526020018383808284376000920191909152509295506142fa945050505050565b61061c6004803603602081101561105757600080fd5b503561434f565b6105556004803603602081101561107457600080fd5b5035614360565b6105556004803603602081101561109157600080fd5b50356001600160a01b0316614681565b610555600480360360208110156110b757600080fd5b50356146b4565b610555600480360360208110156110d457600080fd5b50356001600160a01b0316614779565b61061c600480360360208110156110fa57600080fd5b50356147f9565b61075d61480b565b6105556004803603602081101561111f57600080fd5b5035151561481a565b6105556004803603602081101561113e57600080fd5b50356001600160a01b0316614876565b6105556004803603602081101561116457600080fd5b5035614890565b6105556004803603604081101561118157600080fd5b81359190810190604081016020820135600160201b8111156111a257600080fd5b8201836020820111156111b457600080fd5b803590602001918460018302840111600160201b831117156111d557600080fd5b91908080601f0160208091040260200160405190810160405280939291908181526020018383808284376000920191909152509295506148a9945050505050565b6105556004803603604081101561122c57600080fd5b50803590602001356001600160a01b0316614b9c565b6105556004803603602081101561125857600080fd5b5035614c92565b610555614cb6565b61061c614d14565b61075d614d1a565b6112ba3386868686868080601f01602080910402602001604051908101604052809392919081815260200183838082843760009201919091525061219092505050565b5050505050565b6003546000906001600160a01b031633146112db57600080fd5b6000611304600f546112f8600c548a614d2990919063ffffffff16565b9063ffffffff614d5716565b9050611312600c5482614d79565b9050600061133060646112f860175485614d2990919063ffffffff16565b6001600160a01b038087166000908152601c60209081526040808320548352601b909152902060068101549293509116156113da5760068101548154604080516301a6632160e31b8152600481018690526024810192909252516001600160a01b0390921691630d3319089160448082019260009290919082900301818387803b1580156113bd57600080fd5b505af11580156113d1573d6000803e3d6000fd5b505050506113f5565b60018101546113ef908363ffffffff614d8f16565b60018201555b611405838363ffffffff614da116565b925060006114116137b9565b60188990559050611420614db6565b61142c81858b89614e14565b9a9950505050505050505050565b61144261335b565b61144b57600080fd5b601055565b60165481565b60145481565b60095481565b61146a61335b565b61147357600080fd5b6001600160a01b03811661148657600080fd5b600480546001600160a01b0319166001600160a01b0392909216919091179055565b6114b061335b565b6114b957600080fd5b600081116114c657600080fd5b60065460115460408051630f1980a560e41b8152600481018590526024810192909252516001600160a01b039092169163f1980a509160448082019260009290919082900301818387803b15801561151d57600080fd5b505af1158015611531573d6000803e3d6000fd5b50505060119190915550565b60075460408051632f745c5960e01b81526001600160a01b038481166004830152600060248301819052925192931691632f745c5991604480820192602092909190829003018186803b15801561159357600080fd5b505afa1580156115a7573d6000803e3d6000fd5b505050506040513d60208110156115bd57600080fd5b505190505b919050565b60185481565b600f5481565b6000818152601b60205260408120541580159061161e57506000828152601b60205260409020600201541580159061161e5750600a546000838152601b602052604090206002015411155b801561165557506000828152601b602052604090206003015415806116555750600a546000838152601b6020526040902060030154115b8015611687575060016000838152601b6020526040902060060154600160a01b900460ff16600381111561168557fe5b145b92915050565b600254600160a01b900460ff16156116d8576040805162461bcd60e51b8152602060048201526009602482015268125cc8131bd8dad95960ba1b604482015290519081900360640190fd5b600754604080516331a9108f60e11b8152600481018690529051859233926001600160a01b0390911691636352211e91602480820192602092909190829003018186803b15801561172857600080fd5b505afa15801561173c573d6000803e3d6000fd5b505050506040513d602081101561175257600080fd5b50516001600160a01b03161461176757600080fd5b600a546000858152601b6020526040902060030154106117c4576040805162461bcd60e51b81526020600482015260136024820152724e6f20757365206f662072657374616b696e6760681b604482015290519081900360640190fd5b82156118935760048054604080516323b872dd60e01b8152339381019390935230602484015260448301869052516001600160a01b03909116916323b872dd9160648083019260209291908290030181600087803b15801561182557600080fd5b505af1158015611839573d6000803e3d6000fd5b505050506040513d602081101561184f57600080fd5b5051611893576040805162461bcd60e51b815260206004820152600e60248201526d5472616e73666572207374616b6560901b604482015290519081900360640190fd5b811561196e576000848152601b60205260409020600101546118bc90849063ffffffff614d8f16565b6000858152601b60205260409020600601549093506001600160a01b0316801561195a57611957816001600160a01b03166332ba2e536040518163ffffffff1660e01b8152600401602060405180830381600087803b15801561191e57600080fd5b505af1158015611932573d6000803e3d6000fd5b505050506040513d602081101561194857600080fd5b5051859063ffffffff614d8f16565b93505b506000848152601b60205260408120600101555b601254611981908463ffffffff614d8f16565b6012556000848152601b60205260409020546119a3908463ffffffff614d8f16565b6000858152601b6020908152604080832093909355600a548252601d9052818120805486019055600654825163532e19a960e01b81526004810188905292516001600160a01b039091169263532e19a992602480830193919282900301818387803b158015611a1157600080fd5b505af1158015611a25573d6000803e3d6000fd5b50506006546000878152601b602052604080822054601254825163242c1b9960e01b8152600481018c90526024810192909252604482015290516001600160a01b03909316945063242c1b9993506064808201939182900301818387803b158015611a8f57600080fd5b505af1158015611aa3573d6000803e3d6000fd5b5050505050505050565b600754604080516331a9108f60e11b8152600481018490529051839233926001600160a01b0390911691636352211e91602480820192602092909190829003018186803b158015611afd57600080fd5b505afa158015611b11573d6000803e3d6000fd5b505050506040513d6020811015611b2757600080fd5b50516001600160a01b031614611b3c57600080fd5b6000828152601f602052604090205415611b9d576040805162461bcd60e51b815260206004820152601b60248201527f5761697420666f722061756374696f6e20636f6d706c6574696f6e0000000000604482015290519081900360640190fd5b600a54600090611bb490600163ffffffff614d8f16565b6000848152601b602052604090206002015490915015801590611be657506000838152601b6020526040902060030154155b8015611c18575060016000848152601b6020526040902060060154600160a01b900460ff166003811115611c1657fe5b145b611c2157600080fd5b611c2b8382615143565b505050565b6007546001600160a01b031681565b60175481565b601b602052600090815260409020805460018201546002830154600384015460048501546005860154600690960154949593949293919290916001600160a01b039081169190811690600160a01b900460ff1688565b601c6020526000908152604090205481565b600754604080516331a9108f60e11b8152600481018490529051839233926001600160a01b0390911691636352211e91602480820192602092909190829003018186803b158015611cfd57600080fd5b505afa158015611d11573d6000803e3d6000fd5b505050506040513d6020811015611d2757600080fd5b50516001600160a01b031614611d3c57600080fd5b60026000838152601b6020526040902060060154600160a01b900460ff166003811115611d6557fe5b14611d6f57600080fd5b600a546000838152601b60205260409020600401541115611dd0576040805162461bcd60e51b8152602060048201526016602482015275125b98dbdb5c1b195d19481a985a5b081c195c9a5bd960521b604482015290519081900360640190fd5b6000828152601b6020526040902054600d54811015611dee57600080fd5b6000838152601b60205260408120600601546001600160a01b031615611e92576000848152601b602090815260408083206006015481516322f0f2f960e01b815291516001600160a01b03909116936322f0f2f993600480850194919392918390030190829087803b158015611e6357600080fd5b505af1158015611e77573d6000803e3d6000fd5b505050506040513d6020811015611e8d57600080fd5b505190505b600a54611eb090611ea9848463ffffffff614d8f16565b60016153a1565b6000848152601b6020526040808220600381018390556006808201805460ff60a01b1916600160a01b17905554600590910154825163c3917e9960e01b8152600481018990526001600160a01b039182166024820152925191169263c3917e99926044808201939182900301818387803b158015611a8f57600080fd5b600d5481565b6002546001600160a01b03163314611f7c5760405162461bcd60e51b8152600401808060200182810382526026815260200180615f396026913960400191505060405180910390fd5b6000848152601b60205260409020600601546001600160a01b031680611fd35760405162461bcd60e51b815260040180806020018281038252602a815260200180615f8c602a913960400191505060405180910390fd5b6040805163abf59fc960e01b81526001600160a01b0386811660048301528581166024830152604482018590529151839283169163abf59fc991606480830192600092919082900301818387803b15801561202d57600080fd5b505af1158015612041573d6000803e3d6000fd5b50505050505050505050565b60006001600160a01b03821615806120db5750600754604080516370a0823160e01b81526001600160a01b038581166004830152915191909216916370a08231916024808301926020929190829003018186803b1580156120ad57600080fd5b505afa1580156120c1573d6000803e3d6000fd5b505050506040513d60208110156120d757600080fd5b5051155b156120e8575060006115c2565b60075460408051632f745c5960e01b81526001600160a01b0385811660048301526000602483018190529251601b949190911691632f745c59916044808301926020929190829003018186803b15801561214157600080fd5b505afa158015612155573d6000803e3d6000fd5b505050506040513d602081101561216b57600080fd5b5051815260208101919091526040016000205492915050565b60105481565b60115481565b600254600160a01b900460ff16156121db576040805162461bcd60e51b8152602060048201526009602482015268125cc8131bd8dad95960ba1b604482015290519081900360640190fd5b6011546121e661332e565b106122225760405162461bcd60e51b8152600401808060200182810382526021815260200180615e926021913960400191505060405180910390fd5b600d548411612278576040805162461bcd60e51b815260206004820152601960248201527f6d696e206465706f736974206c696d6974206661696c65642100000000000000604482015290519081900360640190fd5b600e548310156122cb576040805162461bcd60e51b81526020600482015260196024820152784d696e696d756d20616d6f756e742069732031204d6174696360381b604482015290519081900360640190fd5b6004546001600160a01b03166323b872dd33306122ee888863ffffffff614d8f16565b6040518463ffffffff1660e01b815260040180846001600160a01b03166001600160a01b03168152602001836001600160a01b03166001600160a01b031681526020018281526020019350505050602060405180830381600087803b15801561235657600080fd5b505af115801561236a573d6000803e3d6000fd5b505050506040513d602081101561238057600080fd5b50516123cb576040805162461bcd60e51b8152602060048201526015602482015274151c985b9cd9995c881cdd185ad94819985a5b1959605a1b604482015290519081900360640190fd5b6123d7858584846153c3565b6112ba85846157de565b600254600160a01b900460ff161561242c576040805162461bcd60e51b8152602060048201526009602482015268125cc8131bd8dad95960ba1b604482015290519081900360640190fd5b612435826115d3565b61243e57600080fd5b336000818152601c60209081526040918290205460075483516370a0823160e01b81526004810195909552925190936001600160a01b03909316926370a08231926024808301939192829003018186803b15801561249b57600080fd5b505afa1580156124af573d6000803e3d6000fd5b505050506040513d60208110156124c557600080fd5b50511580156124d657506000198114155b61251e576040805162461bcd60e51b8152602060048201526014602482015273416c72656164792075736564206164647265737360601b604482015290519081900360640190fd5b60195415806125315750600a5460195411155b612574576040805162461bcd60e51b815260206004820152600f60248201526e10dbdbdb191bdddb881c195c9a5bd9608a1b604482015290519081900360640190fd5b601654600b5461258a908263ffffffff614d8f16565b6000858152601b6020526040902060020154600a546125ae9163ffffffff614da116565b816125b557fe5b061115612602576040805162461bcd60e51b8152602060048201526016602482015275125b9d985b1a5908185d58dd1a5bdb881c195c9a5bd960521b604482015290519081900360640190fd5b6000838152601b6020526040902080546006909101546001600160a01b0316801561269f5761269c816001600160a01b0316633a09bf446040518163ffffffff1660e01b815260040160206040518083038186803b15801561266357600080fd5b505afa158015612677573d6000803e3d6000fd5b505050506040513d602081101561268d57600080fd5b5051839063ffffffff614d8f16565b91505b6000858152601f60205260409020546126b9908390615865565b9150838210612708576040805162461bcd60e51b8152602060048201526016602482015275135d5cdd08189a59081a1a59da195c88185b5bdd5b9d60521b604482015290519081900360640190fd5b60048054604080516323b872dd60e01b8152339381019390935230602484015260448301879052516001600160a01b03909116916323b872dd9160648083019260209291908290030181600087803b15801561276357600080fd5b505af1158015612777573d6000803e3d6000fd5b505050506040513d602081101561278d57600080fd5b50516127d9576040805162461bcd60e51b8152602060048201526016602482015275151c985b9cd9995c88185b5bdd5b9d0819985a5b195960521b604482015290519081900360640190fd5b6000858152601f602052604090208054156128bf5760048054600283015483546040805163a9059cbb60e01b81526001600160a01b039384169581019590955260248501919091525191169163a9059cbb9160448083019260209291908290030181600087803b15801561284c57600080fd5b505af1158015612860573d6000803e3d6000fd5b505050506040513d602081101561287657600080fd5b50516128bf576040805162461bcd60e51b8152602060048201526013602482015272151bdad95b881c995d1d5c9b8819985a5b1959606a1b604482015290519081900360640190fd5b8481556002810180546001600160a01b031916331790556006546000878152601b6020908152604080832054601f909252808320548151630934a6df60e01b8152600481018c905260248101939093526044830152516001600160a01b039390931692630934a6df9260648084019391929182900301818387803b15801561202d57600080fd5b601f602052600090815260409020805460018201546002909201549091906001600160a01b031683565b601a5460ff1681565b60135481565b6000908152601b60205260409020600601546001600160a01b031690565b6002546001600160a01b031681565b601d602052600090815260409020805460019091015482565b6000336001600160a01b0316600560009054906101000a90046001600160a01b03166001600160a01b031663d580b4186040518163ffffffff1660e01b815260040160206040518083038186803b158015612a1f57600080fd5b505afa158015612a33573d6000803e3d6000fd5b505050506040513d6020811015612a4957600080fd5b50516001600160a01b031614612aa6576040805162461bcd60e51b815260206004820181905260248201527f53656e646572206d75737420626520736c617368696e67206d616e6167657221604482015290519081900360640190fd5b6060612ab9612ab484615875565b61589a565b905060008080805b8451811015612c79576060612ae8868381518110612adb57fe5b602002602001015161589a565b90506000612b0982600081518110612afc57fe5b602002602001015161596b565b90506000612b1d83600181518110612afc57fe5b9050612b2f858263ffffffff614d8f16565b6000838152601b60205260409020600601549095506001600160a01b031615612bf7576000828152601b602090815260408083206006810154905482516314454c8560e31b815260048101919091526024810186905291516001600160a01b039091169263a22a6428926044808201939182900301818787803b158015612bb557600080fd5b505af1158015612bc9573d6000803e3d6000fd5b505050506040513d6020811015612bdf57600080fd5b50519050612bf3828263ffffffff614da116565b9150505b6000828152601b6020526040902054612c16908263ffffffff614da116565b6000838152601b60205260409020558251612c459084906002908110612c3857fe5b60200260200101516159cb565b15612c6e57612c65612c588360016159ff565b879063ffffffff614d8f16565b60019097019695505b505050600101612ac1565b50600a54612c9d90612c91838563ffffffff614d8f16565b600003856000036153a1565b95945050505050565b600754604080516331a9108f60e11b81526004810184905290516000926001600160a01b031691636352211e916024808301926020929190829003018186803b15801561159357600080fd5b600254600160a01b900460ff1615612d3d576040805162461bcd60e51b8152602060048201526009602482015268125cc8131bd8dad95960ba1b604482015290519081900360640190fd5b600e54811015612d90576040805162461bcd60e51b81526020600482015260196024820152784d696e696d756d20616d6f756e742069732031204d6174696360381b604482015290519081900360640190fd5b60048054604080516323b872dd60e01b8152339381019390935230602484015260448301849052516001600160a01b03909116916323b872dd9160648083019260209291908290030181600087803b158015612deb57600080fd5b505af1158015612dff573d6000803e3d6000fd5b505050506040513d6020811015612e1557600080fd5b5051612e60576040805162461bcd60e51b8152602060048201526015602482015274151c985b9cd9995c881cdd185ad94819985a5b1959605a1b604482015290519081900360640190fd5b612e6a82826157de565b5050565b6002546001600160a01b03163314612eb75760405162461bcd60e51b8152600401808060200182810382526026815260200180615f396026913960400191505060405180910390fd5b600780546001600160a01b039485166001600160a01b031991821617909155600680549385169382169390931790925560088054919093169116179055565b604080513360208083018290528284018790528351808403850181526060840194859052805190820120601854631b23d15760e21b909552606484018181526084850188905260a48501869052608060c48601908152875160e48701528751949673__Merkle________________________________96636c8f455c9694958b9592948b9490939092610104019185019080838360005b83811015612fa5578181015183820152602001612f8d565b50505050905090810190601f168015612fd25780820380516001836020036101000a031916815260200191505b509550505050505060206040518083038186803b158015612ff257600080fd5b505af4158015613006573d6000803e3d6000fd5b505050506040513d602081101561301c57600080fd5b5051613061576040805162461bcd60e51b815260206004820152600f60248201526e2bb937b7339030b1b190383937b7b360891b604482015290519081900360640190fd5b6001600160a01b0381166000908152601e602052604081205461308b90869063ffffffff614da116565b600480546040805163a9059cbb60e01b81526001600160a01b038781169482019490945260248101859052905193945091169163a9059cbb916044808201926020929091908290030181600087803b1580156130e657600080fd5b505af11580156130fa573d6000803e3d6000fd5b505050506040513d602081101561311057600080fd5b505161311b57600080fd5b6131258282615b8d565b506001600160a01b03166000908152601e60205260409020929092555050565b601a5460009060ff16613198576040805162461bcd60e51b815260206004820152601660248201527511195b1959d85d1a5bdb881a5cc8191a5cd8589b195960521b604482015290519081900360640190fd5b6000848152601b60205260409020600601546001600160a01b03163314613201576040805162461bcd60e51b8152602060048201526018602482015277496e76616c696420636f6e7472616374206164647265737360401b604482015290519081900360640190fd5b60048054604080516323b872dd60e01b81526001600160a01b038681169482019490945230602482015260448101879052905192909116916323b872dd916064808201926020929091908290030181600087803b15801561326157600080fd5b505af1158015613275573d6000803e3d6000fd5b505050506040513d602081101561328b57600080fd5b5051949350505050565b600090565b600b5481565b6132a861335b565b6132b157600080fd5b600080546040516001600160a01b03909116907f8be0079c531659141344cd1fd0a4f28419497f9722a3daafe3b4186f6b6457e0908390a3600080546001600160a01b0319169055565b600a5481565b60195481565b601e6020526000908152604090205481565b6005546001600160a01b031681565b600c5481565b600a546000908152601d602052604090206001015490565b60125481565b6000546001600160a01b031690565b6000546001600160a01b0316331490565b600a5490565b61337a61335b565b61338357600080fd5b61338f81600a54615143565b50565b600754604080516331a9108f60e11b8152600481018490529051839233926001600160a01b0390911691636352211e91602480820192602092909190829003018186803b1580156133e257600080fd5b505afa1580156133f6573d6000803e3d6000fd5b505050506040513d602081101561340c57600080fd5b50516001600160a01b03161461342157600080fd5b6000828152601b6020526040902060018101546006909101546001600160a01b0316801561349e5761349b816001600160a01b03166332ba2e536040518163ffffffff1660e01b8152600401602060405180830381600087803b15801561348757600080fd5b505af1158015612677573d6000803e3d6000fd5b91505b6015546134b1908363ffffffff614d8f16565b6015556000848152601b6020908152604080832060010183905560048054825163a9059cbb60e01b815233928101929092526024820187905291516001600160a01b039092169363a9059cbb9360448084019491939192918390030190829087803b15801561351f57600080fd5b505af1158015613533573d6000803e3d6000fd5b505050506040513d602081101561354957600080fd5b5051613592576040805162461bcd60e51b8152602060048201526013602482015272496e737566666963656e74207265776172647360681b604482015290519081900360640190fd5b60065460155460408051635b42d93560e11b815260048101889052602481018690526044810192909252516001600160a01b039092169163b685b26a9160648082019260009290919082900301818387803b158015611a8f57600080fd5b6003546001600160a01b031681565b60215481565b61360d61335b565b61361657600080fd5b6006546017546040805163a3b1d8cb60e01b8152600481018590526024810192909252516001600160a01b039092169163a3b1d8cb9160448082019260009290919082900301818387803b15801561366d57600080fd5b505af1158015613681573d6000803e3d6000fd5b5050505060648111156136c55760405162461bcd60e51b8152600401808060200182810382526032815260200180615eb36032913960400191505060405180910390fd5b601755565b6000828152601b60205260409020600601546001600160a01b03163314613733576040805162461bcd60e51b8152602060048201526018602482015277496e76616c696420636f6e7472616374206164647265737360401b604482015290519081900360640190fd5b600a546000908152601d602052604090208054909101905550565b61375661335b565b61375f57600080fd5b600081116137b4576040805162461bcd60e51b815260206004820181905260248201527f426c6f636b7320696e74657276616c206d757374206265206e6f6e2d7a65726f604482015290519081900360640190fd5b600f55565b600a546000908152601d602052604090205490565b6002546001600160a01b031633146138175760405162461bcd60e51b8152600401808060200182810382526026815260200180615f396026913960400191505060405180910390fd5b6002805460ff60a01b19169055565b60095490565b6002546001600160a01b031633146138755760405162461bcd60e51b8152600401808060200182810382526026815260200180615f396026913960400191505060405180910390fd5b600480546040805163a9059cbb60e01b81526001600160a01b0386811694820194909452602481018590529051929091169163a9059cbb916044808201926020929091908290030181600087803b1580156138cf57600080fd5b505af11580156138e3573d6000803e3d6000fd5b505050506040513d60208110156138f957600080fd5b5051612e6a576040805162461bcd60e51b815260206004820152600c60248201526b111c985a5b8819985a5b195960a21b604482015290519081900360640190fd5b61394361335b565b61394c57600080fd5b600d91909155600e55565b6000808080805b85518167ffffffffffffffff161015613b56576060613989878367ffffffffffffffff166041615bf8565b60408051631df4cba560e21b8152600481018b81526024820192835283516044830152835193945060009373__ECVerify______________________________936377d32e94938e9388939092916064019060208501908083838c5b838110156139fd5781810151838201526020016139e5565b50505050905090810190601f168015613a2a5780820380516001836020036101000a031916815260200191505b50935050505060206040518083038186803b158015613a4857600080fd5b505af4158015613a5c573d6000803e3d6000fd5b505050506040513d6020811015613a7257600080fd5b50516001600160a01b038082166000818152601c60205260409020549293509086161415613aa257505050613b56565b613aab816115d3565b8015613ac85750846001600160a01b0316826001600160a01b0316115b15613b4b576000818152601b60205260409020805460069091015492955085926001600160a01b03168015613b3657613b33816001600160a01b0316633a09bf446040518163ffffffff1660e01b815260040160206040518083038186803b15801561266357600080fd5b91505b613b46888363ffffffff614d8f16565b975050505b50505060410161395e565b5081613b876001613b7b60036112f86002613b6f6137b9565b9063ffffffff614d2916565b9063ffffffff614d8f16565b9350935050509250929050565b6000336001600160a01b0316600560009054906101000a90046001600160a01b03166001600160a01b031663d580b4186040518163ffffffff1660e01b815260040160206040518083038186803b158015613bee57600080fd5b505afa158015613c02573d6000803e3d6000fd5b505050506040513d6020811015613c1857600080fd5b50516001600160a01b03161480613c4857506000848152601b60205260409020600601546001600160a01b031633145b613c94576040805162461bcd60e51b8152602060048201526018602482015277496e76616c696420636f6e7472616374206164647265737360401b604482015290519081900360640190fd5b600480546040805163a9059cbb60e01b81526001600160a01b0386811694820194909452602481018790529051929091169163a9059cbb916044808201926020929091908290030181600087803b15801561326157600080fd5b6008546001600160a01b031681565b600254600160a01b900460ff1615613d48576040805162461bcd60e51b8152602060048201526009602482015268125cc8131bd8dad95960ba1b604482015290519081900360640190fd5b6000858152601f60209081526040808320601b90925290912060028201546001600160a01b0316331480613d83575086613d813361153d565b145b613dbe5760405162461bcd60e51b8152600401808060200182810382526024815260200180615ee56024913960400191505060405180910390fd5b601654600b54613dd590829063ffffffff614d8f16565b6001840154600a54613dec9163ffffffff614da116565b81613df357fe5b061015613e315760405162461bcd60e51b8152600401808060200182810382526030815260200180615f096030913960400191505060405180910390fd5b6000878152601b6020526040902080546006909101546001600160a01b03168015613e9557613e92816001600160a01b0316633a09bf446040518163ffffffff1660e01b815260040160206040518083038186803b15801561266357600080fd5b91505b83548210613fff5760048054600286015486546040805163a9059cbb60e01b81526001600160a01b039384169581019590955260248501919091525191169163a9059cbb9160448083019260209291908290030181600087803b158015613efb57600080fd5b505af1158015613f0f573d6000803e3d6000fd5b505050506040513d6020811015613f2557600080fd5b5051613f6c576040805162461bcd60e51b8152602060048201526011602482015270109a59081c995d1d5c9b8819985a5b1959607a1b604482015290519081900360640190fd5b60008085556002850180546001600160a01b0319169055600a54600186015560065484546040805163e12ab1af60e01b8152600481018e9052602481018e90526044810192909252516001600160a01b039092169263e12ab1af9260648084019382900301818387803b158015613fe257600080fd5b505af1158015613ff6573d6000803e3d6000fd5b50505050614244565b61400b89600a54615143565b60048054604080516323b872dd60e01b81523393810193909352306024840152604483018b9052516001600160a01b03909116916323b872dd9160648083019260209291908290030181600087803b15801561406657600080fd5b505af115801561407a573d6000803e3d6000fd5b505050506040513d602081101561409057600080fd5b50516140d9576040805162461bcd60e51b8152602060048201526013602482015272151c985b9cd9995c881999594819985a5b1959606a1b604482015290519081900360640190fd5b60028401548454604080516020601f8a0181900481028201810190925288815261412b936001600160a01b031692918b91908b908b90819084018382808284376000920191909152506153c392505050565b600e5488101561417e576040805162461bcd60e51b81526020600482015260196024820152784d696e696d756d20616d6f756e742069732031204d6174696360381b604482015290519081900360640190fd5b6002840154614196906001600160a01b0316896157de565b6006546013546001600160a01b039091169063e12ab1af906141bf90600163ffffffff614da116565b8b87600001546040518463ffffffff1660e01b8152600401808481526020018381526020018281526020019350505050600060405180830381600087803b15801561420957600080fd5b505af115801561421d573d6000803e3d6000fd5b50505060008a8152601f6020526040812090815560020180546001600160a01b0319169055505b505050505050505050565b61425761335b565b61426057600080fd5b6000811161426d57600080fd5b600654600c5460408051632dbe9d3160e21b8152600481018590526024810192909252516001600160a01b039092169163b6fa74c49160448082019260009290919082900301818387803b1580156142c457600080fd5b505af11580156142d8573d6000803e3d6000fd5b505050600c9190915550565b60155481565b600254600160a01b900460ff1681565b60008151604014614343576040805162461bcd60e51b815260206004820152600e60248201526d496e76616c6964207075626b657960901b604482015290519081900360640190fd5b50805160209091012090565b602080526000908152604090205481565b600754604080516331a9108f60e11b8152600481018490529051839233926001600160a01b0390911691636352211e91602480820192602092909190829003018186803b1580156143b057600080fd5b505afa1580156143c4573d6000803e3d6000fd5b505050506040513d60208110156143da57600080fd5b50516001600160a01b0316146143ef57600080fd5b6000828152601b6020526040902060030154158015906144345750600a546009546000848152601b60205260409020600301546144319163ffffffff614d8f16565b11155b8015614467575060036000838152601b6020526040902060060154600160a01b900460ff16600381111561446457fe5b14155b61447057600080fd5b6000828152601b6020526040902054601254614492908263ffffffff614da116565b60125560075460408051630852cd8d60e31b81526004810186905290516001600160a01b03909216916342966c689160248082019260009290919082900301818387803b1580156144e257600080fd5b505af11580156144f6573d6000803e3d6000fd5b5050506000848152601b6020818152604080842060058101546001600160a01b039081168652601c84528286206000199055898652938352600601805460ff60a01b1916600360a01b17905560048054825163a9059cbb60e01b8152339281019290925260248201889052915191909316945063a9059cbb936044808501948390030190829087803b15801561458b57600080fd5b505af115801561459f573d6000803e3d6000fd5b505050506040513d60208110156145b557600080fd5b5051614600576040805162461bcd60e51b8152602060048201526015602482015274151c985b9cd9995c881cdd185ad94819985a5b1959605a1b604482015290519081900360640190fd5b6006546012546040805163ae2e26b160e01b815233600482015260248101879052604481018590526064810192909252516001600160a01b039092169163ae2e26b19160848082019260009290919082900301818387803b15801561466457600080fd5b505af1158015614678573d6000803e3d6000fd5b50505050505050565b61468961335b565b61469257600080fd5b600880546001600160a01b0319166001600160a01b0392909216919091179055565b6146bc61335b565b6146c557600080fd5b600081116146d257600080fd5b600654600b5460408051635071805360e11b8152600481018590526024810192909252516001600160a01b039092169163a0e300a69160448082019260009290919082900301818387803b15801561472957600080fd5b505af115801561473d573d6000803e3d6000fd5b505050600b82905550600981905561475c81600463ffffffff614d5716565b6016819055600a546147739163ffffffff614d8f16565b60195550565b61478161335b565b61478a57600080fd5b6001600160a01b03811661479d57600080fd5b6003546040516001600160a01b038084169216907f211c9015fc81c0dbd45bd99f0f29fc1c143bfd53442d5ffd722bbbef7a887fe990600090a3600380546001600160a01b0319166001600160a01b0392909216919091179055565b6000908152601b602052604090205490565b6006546001600160a01b031681565b6002546001600160a01b031633146148635760405162461bcd60e51b8152600401808060200182810382526026815260200180615f396026913960400191505060405180910390fd5b601a805460ff1916911515919091179055565b61487e61335b565b61488757600080fd5b61338f81615c77565b600a546148a3908263ffffffff614d8f16565b600a5550565b600754604080516331a9108f60e11b8152600481018590529051849233926001600160a01b0390911691636352211e91602480820192602092909190829003018186803b1580156148f957600080fd5b505afa15801561490d573d6000803e3d6000fd5b505050506040513d602081101561492357600080fd5b50516001600160a01b03161461493857600080fd5b6000614943836142fa565b90506001600160a01b0381161580159061497357506001600160a01b0381166000908152601c6020526040902054155b6149b6576040805162461bcd60e51b815260206004820152600f60248201526e496e76616c6964205369676e65722160881b604482015290519081900360640190fd5b60105460008581526020805260409020546149d69163ffffffff614d8f16565b6149de61336c565b1015614a31576040805162461bcd60e51b815260206004820152601a60248201527f496e76616c696420636865636b706f696e74206e756d62657221000000000000604482015290519081900360640190fd5b6006546000858152601b6020908152604080832060050154905163b80fbce560e01b8152600481018981526001600160a01b039283166024830181905287841660448401526080606484019081528a5160848501528a51949097169663b80fbce5968c9692958a958d959460a49091019290860191908190849084905b83811015614ac6578181015183820152602001614aae565b50505050905090810190601f168015614af35780820380516001836020036101000a031916815260200191505b5095505050505050600060405180830381600087803b158015614b1557600080fd5b505af1158015614b29573d6000803e3d6000fd5b5050506000858152601b6020818152604080842060050180546001600160a01b039081168652601c8452828620600019905587168086529185208a90559389905291905281546001600160a01b03191617905550614b8561336c565b600094855260208052604090942093909355505050565b614ba461335b565b614bad57600080fd5b306001600160a01b0316816001600160a01b0316638da5cb5b6040518163ffffffff1660e01b815260040160206040518083038186803b158015614bf057600080fd5b505afa158015614c04573d6000803e3d6000fd5b505050506040513d6020811015614c1a57600080fd5b50516001600160a01b031614614c615760405162461bcd60e51b815260040180806020018281038252602d815260200180615f5f602d913960400191505060405180910390fd5b6000918252601b602052604090912060060180546001600160a01b0319166001600160a01b03909216919091179055565b614c9a61335b565b614ca357600080fd5b600a54614773908263ffffffff614d8f16565b6002546001600160a01b03163314614cff5760405162461bcd60e51b8152600401808060200182810382526026815260200180615f396026913960400191505060405180910390fd5b6002805460ff60a01b1916600160a01b179055565b600e5481565b6004546001600160a01b031681565b600082614d3857506000611687565b82820282848281614d4557fe5b0414614d5057600080fd5b9392505050565b6000808211614d6557600080fd5b6000828481614d7057fe5b04949350505050565b6000818310614d885781614d50565b5090919050565b600082820183811015614d5057600080fd5b600082821115614db057600080fd5b50900390565b600a54600090614dcd90600163ffffffff614d8f16565b6000818152601d60205260408082208054600a8054855283852054909101825560019182018054825486528486208401540190558054845291832083815501919091555550565b60008080805b84518167ffffffffffffffff16101561509f576060614e45868367ffffffffffffffff166041615bf8565b60408051631df4cba560e21b8152600481018a81526024820192835283516044830152835193945060009373__ECVerify______________________________936377d32e94938d9388939092916064019060208501908083838c5b83811015614eb9578181015183820152602001614ea1565b50505050905090810190601f168015614ee65780820380516001836020036101000a031916815260200191505b50935050505060206040518083038186803b158015614f0457600080fd5b505af4158015614f18573d6000803e3d6000fd5b505050506040513d6020811015614f2e57600080fd5b50516001600160a01b038082166000818152601c60205260409020549293509086161415614f5e5750505061509f565b614f67816115d3565b8015614f845750846001600160a01b0316826001600160a01b0316115b15615094576000818152601b60205260408120600681015493965086939091906001600160a01b0316156150475760068201546001600160a01b031663b37f25908d8f614fd0876147f9565b6040518463ffffffff1660e01b8152600401808481526020018381526020018281526020019350505050602060405180830381600087803b15801561501457600080fd5b505af1158015615028573d6000803e3d6000fd5b505050506040513d602081101561503e57600080fd5b5051905061507f565b816000015490506150796150688e6112f88f85614d2990919063ffffffff16565b60018401549063ffffffff614d8f16565b60018301555b61508f888263ffffffff614d8f16565b975050505b505050604101614e1a565b506150be6150ab6137b9565b600c546112f8908563ffffffff614d2916565b6014549096506150d4908763ffffffff614d8f16565b6014556150ee6001613b7b60036112f86002613b6f6137b9565b821015615138576040805162461bcd60e51b8152602060048201526013602482015272322f332b31206e6f6e2d6d616a6f726974792160681b604482015290519081900360640190fd5b509395945050505050565b6000828152601b60205260408120549061515c84612ca6565b6000858152601b6020526040812060038101869055600181015460069091015492935090916001600160a01b031615615255576000868152601b602090815260408083206006015481516332ba2e5360e01b815291516001600160a01b03909116936151e89385936332ba2e539360048083019491928390030190829087803b15801561348757600080fd5b9150806001600160a01b031663753868e36040518163ffffffff1660e01b8152600401602060405180830381600087803b15801561522557600080fd5b505af1158015615239573d6000803e3d6000fd5b505050506040513d602081101561524f57600080fd5b50519250505b600480546040805163a9059cbb60e01b81526001600160a01b0387811694820194909452602481018590529051929091169163a9059cbb916044808201926020929091908290030181600087803b1580156152af57600080fd5b505af11580156152c3573d6000803e3d6000fd5b505050506040513d60208110156152d957600080fd5b505161532c576040805162461bcd60e51b815260206004820152601760248201527f52657761726473207472616e73666572206661696c6564000000000000000000604482015290519081900360640190fd5b61533e858386016000036000196153a1565b60065460408051635e04d48360e01b81526001600160a01b038681166004830152602482018a9052604482018990526064820188905291519190921691635e04d48391608480830192600092919082900301818387803b15801561202d57600080fd5b6000928352601d60205260409092208054909101815560010180549091019055565b60006153ce826142fa565b6001600160a01b0381166000908152601c602052604090205490915015615431576040805162461bcd60e51b8152602060048201526012602482015271496e76616c6964205369676e6572206b657960701b604482015290519081900360640190fd5b601254615444908563ffffffff614d8f16565b60128190555060405180610100016040528085815260200160008152602001600a5481526020016000815260200160008152602001826001600160a01b0316815260200184615494576000615527565b6008546013546006546005546040805163d4ad267360e01b815260048101949094526001600160a01b03928316602485015290821660448401525192169163d4ad2673916064808201926020929091908290030181600087803b1580156154fa57600080fd5b505af115801561550e573d6000803e3d6000fd5b505050506040513d602081101561552457600080fd5b50515b6001600160a01b03168152602001600190526013546000908152601b60209081526040918290208351815590830151600182015590820151600282015560608201516003808301919091556080830151600483015560a08301516005830180546001600160a01b039283166001600160a01b03199182161790915560c08501516006850180549190931691161780825560e08501519260ff60a01b1990911690600160a01b9084908111156155d857fe5b021790555050600a5460138054600090815260208052604080822093909355600754915483516340c10f1960e01b81526001600160a01b038b8116600483015260248201929092529351921693506340c10f19926044808201939182900301818387803b15801561564857600080fd5b505af115801561565c573d6000803e3d6000fd5b50506013546001600160a01b0384166000908152601c60205260409020555050600a5461568b908560016153a1565b600a54601f6000601354815260200190815260200160002060010181905550600660009054906101000a90046001600160a01b03166001600160a01b03166333a8383c8284601354600a54896012546040518763ffffffff1660e01b815260040180876001600160a01b03166001600160a01b0316815260200180602001868152602001858152602001848152602001838152602001828103825287818151815260200191508051906020019080838360005b8381101561575657818101518382015260200161573e565b50505050905090810190601f1680156157835780820380516001836020036101000a031916815260200191505b50975050505050505050600060405180830381600087803b1580156157a757600080fd5b505af11580156157bb573d6000803e3d6000fd5b50506013546157d492509050600163ffffffff614d8f16565b6013555050505050565b6021546157f1908263ffffffff614d8f16565b6021556006546040805163a449d79560e01b81526001600160a01b038581166004830152602482018590529151919092169163a449d79591604480830192600092919082900301818387803b15801561584957600080fd5b505af115801561585d573d6000803e3d6000fd5b505050505050565b600081831015614d885781614d50565b61587d615e77565b506040805180820190915281518152602082810190820152919050565b60606158a582615ce5565b6158ae57600080fd5b60006158b983615d1f565b90506060816040519080825280602002602001820160405280156158f757816020015b6158e4615e77565b8152602001906001900390816158dc5790505b50905060006159098560200151615d7b565b60208601510190506000805b848110156159605761592683615dde565b915060405180604001604052808381526020018481525084828151811061594957fe5b602090810291909101015291810191600101615915565b509195945050505050565b80516000901580159061598057508151602110155b61598957600080fd5b60006159988360200151615d7b565b835160208086015183018051939450918490039291908310156159c257826020036101000a820491505b50949350505050565b80516000906001146159dc57600080fd5b6020820151805160001a9081156159f45760016159f7565b60005b949350505050565b6000828152601b602052604081206006015481906001600160a01b031615615aa5576000848152601b6020908152604080832060060154815163753868e360e01b815291516001600160a01b039091169363753868e393600480850194919392918390030190829087803b158015615a7657600080fd5b505af1158015615a8a573d6000803e3d6000fd5b505050506040513d6020811015615aa057600080fd5b505190505b600a546000858152601b60205260409020600301819055615acc908463ffffffff614d8f16565b6000858152601b60205260408082206004808201949094556006808201805460ff60a01b1916600160a11b17905554600a5460059092015483516381dc101b60e01b81529586018a905260248601929092526001600160a01b03918216604486015291519116926381dc101b92606480830193919282900301818387803b158015615b5657600080fd5b505af1158015615b6a573d6000803e3d6000fd5b5050506000858152601b60205260409020546159f791508263ffffffff614d8f16565b602154615ba0908263ffffffff614da116565b6021556006546040805163122b648160e01b81526001600160a01b038581166004830152602482018590529151919092169163122b648191604480830192600092919082900301818387803b15801561584957600080fd5b606081830184511015615c0a57600080fd5b606082158015615c25576040519150602082016040526159c2565b6040519150601f8416801560200281840101858101878315602002848b0101015b81831015615c5e578051835260209283019201615c46565b5050858452601f01601f19166040525050949350505050565b6001600160a01b038116615c8a57600080fd5b600080546040516001600160a01b03808516939216917f8be0079c531659141344cd1fd0a4f28419497f9722a3daafe3b4186f6b6457e091a3600080546001600160a01b0319166001600160a01b0392909216919091179055565b8051600090615cf6575060006115c2565b6020820151805160001a9060c0821015615d15576000925050506115c2565b5060019392505050565b8051600090615d30575060006115c2565b60008090506000615d448460200151615d7b565b602085015185519181019250015b80821015615d7257615d6382615dde565b60019093019290910190615d52565b50909392505050565b8051600090811a6080811015615d955760009150506115c2565b60b8811080615db0575060c08110801590615db0575060f881105b15615dbf5760019150506115c2565b60c0811015615dd35760b5190190506115c2565b60f5190190506115c2565b80516000908190811a6080811015615df95760019150615e70565b60b8811015615e0e57607e1981019150615e70565b60c0811015615e3b5760b78103600185019450806020036101000a85510460018201810193505050615e70565b60f8811015615e505760be1981019150615e70565b60f78103600185019450806020036101000a855104600182018101935050505b5092915050565b60405180604001604052806000815260200160008152509056fe56616c696461746f7220736574205468726573686f6c642065786365656465642150726f706f73657220626f6e75732073686f756c64206265206c657373207468616e206f7220657175616c20746f203130304f6e6c7920626964646572206f722076616c696461746f722063616e20636f6e6669726d436f6e6669726d6174696f6e206973206e6f7420616c6c6f776564206265666f72652061756374696f6e506572696f644f6e6c7920676f7665726e616e636520636f6e747261637420697320617574686f72697a65644f776e6572206f662076616c696461746f72207368617265206d757374206265207374616b654d616e61676572756e6b6e6f776e2076616c696461746f72206f72206e6f2064656c65676174696f6e20656e61626c6564a265627a7a72315820647a6c6d9262f64d4c1990fb721c4518a2f3ea5e720912c0b4e09868f973f76b64736f6c634300050b0032",
  "source": "pragma solidity ^0.5.2;\n\nimport { StakeManager } from \"../staking/stakeManager/StakeManager.sol\";\n\ncontract StakeManagerTestable is StakeManager {\n    function advanceEpoch(uint delta) public {\n        currentEpoch = currentEpoch.add(delta);\n    }\n}\n",
  "sourcePath": "/Users/arth/Documents/Projects/contracts/contracts/test/StakeManagerTestable.sol",
  "compiler": {
    "name": "solc",
    "version": "0.5.11+commit.c082d0b4.Emscripten.clang"
  },
  "schemaVersion": "3.0.14",
  "updatedAt": "2020-05-27T11:07:39.912Z",
  "devdoc": {
    "methods": {
      "changeRootChain(address)": {
        "details": "Allows the current owner to change root chain address.",
        "params": {
          "newRootChain": "The address to new rootchain."
        }
      },
      "isOwner()": {
        "return": "true if `msg.sender` is the owner of the contract."
      },
      "owner()": {
        "return": "the address of the owner."
      },
      "renounceOwnership()": {
        "details": "Allows the current owner to relinquish control of the contract. It will not be possible to call the functions with the `onlyOwner` modifier anymore."
      },
      "transferOwnership(address)": {
        "details": "Allows the current owner to transfer control of the contract to a newOwner.",
        "params": {
          "newOwner": "The address to transfer ownership to."
        }
      }
    }
  },
  "userdoc": {
    "methods": {
      "renounceOwnership()": {
        "notice": "Renouncing ownership will leave the contract without an owner, thereby removing any functionality that is only available to the owner."
      }
    }
  }
}