{
  "contractName": "StakeManager",
  "abi": [
    {
      "constant": true,
      "inputs": [],
      "name": "auctionPeriod",
      "outputs": [
        {
          "internalType": "uint256",
          "name": "",
          "type": "uint256"
        }
      ],
      "payable": false,
      "stateMutability": "view",
      "type": "function"
    },
    {
      "constant": true,
      "inputs": [],
      "name": "totalRewards",
      "outputs": [
        {
          "internalType": "uint256",
          "name": "",
          "type": "uint256"
        }
      ],
      "payable": false,
      "stateMutability": "view",
      "type": "function"
    },
    {
      "constant": true,
      "inputs": [],
      "name": "WITHDRAWAL_DELAY",
      "outputs": [
        {
          "internalType": "uint256",
          "name": "",
          "type": "uint256"
        }
      ],
      "payable": false,
      "stateMutability": "view",
      "type": "function"
    },
    {
      "constant": true,
      "inputs": [],
      "name": "accountStateRoot",
      "outputs": [
        {
          "internalType": "bytes32",
          "name": "",
          "type": "bytes32"
        }
      ],
      "payable": false,
      "stateMutability": "view",
      "type": "function"
    },
    {
      "constant": true,
      "inputs": [],
      "name": "checkPointBlockInterval",
      "outputs": [
        {
          "internalType": "uint256",
          "name": "",
          "type": "uint256"
        }
      ],
      "payable": false,
      "stateMutability": "view",
      "type": "function"
    },
    {
      "constant": true,
      "inputs": [],
      "name": "NFTContract",
      "outputs": [
        {
          "internalType": "contract StakingNFT",
          "name": "",
          "type": "address"
        }
      ],
      "payable": false,
      "stateMutability": "view",
      "type": "function"
    },
    {
      "constant": true,
      "inputs": [],
      "name": "proposerBonus",
      "outputs": [
        {
          "internalType": "uint256",
          "name": "",
          "type": "uint256"
        }
      ],
      "payable": false,
      "stateMutability": "view",
      "type": "function"
    },
    {
      "constant": true,
      "inputs": [
        {
          "internalType": "uint256",
          "name": "",
          "type": "uint256"
        }
      ],
      "name": "validators",
      "outputs": [
        {
          "internalType": "uint256",
          "name": "amount",
          "type": "uint256"
        },
        {
          "internalType": "uint256",
          "name": "reward",
          "type": "uint256"
        },
        {
          "internalType": "uint256",
          "name": "activationEpoch",
          "type": "uint256"
        },
        {
          "internalType": "uint256",
          "name": "deactivationEpoch",
          "type": "uint256"
        },
        {
          "internalType": "uint256",
          "name": "jailTime",
          "type": "uint256"
        },
        {
          "internalType": "address",
          "name": "signer",
          "type": "address"
        },
        {
          "internalType": "address",
          "name": "contractAddress",
          "type": "address"
        },
        {
          "internalType": "enum StakeManagerStorage.Status",
          "name": "status",
          "type": "uint8"
        }
      ],
      "payable": false,
      "stateMutability": "view",
      "type": "function"
    },
    {
      "constant": true,
      "inputs": [
        {
          "internalType": "address",
          "name": "",
          "type": "address"
        }
      ],
      "name": "signerToValidator",
      "outputs": [
        {
          "internalType": "uint256",
          "name": "",
          "type": "uint256"
        }
      ],
      "payable": false,
      "stateMutability": "view",
      "type": "function"
    },
    {
      "constant": true,
      "inputs": [],
      "name": "minDeposit",
      "outputs": [
        {
          "internalType": "uint256",
          "name": "",
          "type": "uint256"
        }
      ],
      "payable": false,
      "stateMutability": "view",
      "type": "function"
    },
    {
      "constant": true,
      "inputs": [],
      "name": "signerUpdateLimit",
      "outputs": [
        {
          "internalType": "uint256",
          "name": "",
          "type": "uint256"
        }
      ],
      "payable": false,
      "stateMutability": "view",
      "type": "function"
    },
    {
      "constant": true,
      "inputs": [],
      "name": "validatorThreshold",
      "outputs": [
        {
          "internalType": "uint256",
          "name": "",
          "type": "uint256"
        }
      ],
      "payable": false,
      "stateMutability": "view",
      "type": "function"
    },
    {
      "constant": true,
      "inputs": [
        {
          "internalType": "uint256",
          "name": "",
          "type": "uint256"
        }
      ],
      "name": "validatorAuction",
      "outputs": [
        {
          "internalType": "uint256",
          "name": "amount",
          "type": "uint256"
        },
        {
          "internalType": "uint256",
          "name": "startEpoch",
          "type": "uint256"
        },
        {
          "internalType": "address",
          "name": "user",
          "type": "address"
        }
      ],
      "payable": false,
      "stateMutability": "view",
      "type": "function"
    },
    {
      "constant": true,
      "inputs": [],
      "name": "delegationEnabled",
      "outputs": [
        {
          "internalType": "bool",
          "name": "",
          "type": "bool"
        }
      ],
      "payable": false,
      "stateMutability": "view",
      "type": "function"
    },
    {
      "constant": true,
      "inputs": [],
      "name": "NFTCounter",
      "outputs": [
        {
          "internalType": "uint256",
          "name": "",
          "type": "uint256"
        }
      ],
      "payable": false,
      "stateMutability": "view",
      "type": "function"
    },
    {
      "constant": true,
      "inputs": [],
      "name": "governance",
      "outputs": [
        {
          "internalType": "contract IGovernance",
          "name": "",
          "type": "address"
        }
      ],
      "payable": false,
      "stateMutability": "view",
      "type": "function"
    },
    {
      "constant": true,
      "inputs": [
        {
          "internalType": "uint256",
          "name": "",
          "type": "uint256"
        }
      ],
      "name": "validatorState",
      "outputs": [
        {
          "internalType": "int256",
          "name": "amount",
          "type": "int256"
        },
        {
          "internalType": "int256",
          "name": "stakerCount",
          "type": "int256"
        }
      ],
      "payable": false,
      "stateMutability": "view",
      "type": "function"
    },
    {
      "constant": true,
      "inputs": [],
      "name": "dynasty",
      "outputs": [
        {
          "internalType": "uint256",
          "name": "",
          "type": "uint256"
        }
      ],
      "payable": false,
      "stateMutability": "view",
      "type": "function"
    },
    {
      "constant": false,
      "inputs": [],
      "name": "renounceOwnership",
      "outputs": [],
      "payable": false,
      "stateMutability": "nonpayable",
      "type": "function"
    },
    {
      "constant": true,
      "inputs": [],
      "name": "currentEpoch",
      "outputs": [
        {
          "internalType": "uint256",
          "name": "",
          "type": "uint256"
        }
      ],
      "payable": false,
      "stateMutability": "view",
      "type": "function"
    },
    {
      "constant": true,
      "inputs": [],
      "name": "replacementCoolDown",
      "outputs": [
        {
          "internalType": "uint256",
          "name": "",
          "type": "uint256"
        }
      ],
      "payable": false,
      "stateMutability": "view",
      "type": "function"
    },
    {
      "constant": true,
      "inputs": [
        {
          "internalType": "address",
          "name": "",
          "type": "address"
        }
      ],
      "name": "userFeeExit",
      "outputs": [
        {
          "internalType": "uint256",
          "name": "",
          "type": "uint256"
        }
      ],
      "payable": false,
      "stateMutability": "view",
      "type": "function"
    },
    {
      "constant": true,
      "inputs": [],
      "name": "registry",
      "outputs": [
        {
          "internalType": "address",
          "name": "",
          "type": "address"
        }
      ],
      "payable": false,
      "stateMutability": "view",
      "type": "function"
    },
    {
      "constant": true,
      "inputs": [],
      "name": "CHECKPOINT_REWARD",
      "outputs": [
        {
          "internalType": "uint256",
          "name": "",
          "type": "uint256"
        }
      ],
      "payable": false,
      "stateMutability": "view",
      "type": "function"
    },
    {
      "constant": true,
      "inputs": [],
      "name": "totalStaked",
      "outputs": [
        {
          "internalType": "uint256",
          "name": "",
          "type": "uint256"
        }
      ],
      "payable": false,
      "stateMutability": "view",
      "type": "function"
    },
    {
      "constant": true,
      "inputs": [],
      "name": "owner",
      "outputs": [
        {
          "internalType": "address",
          "name": "",
          "type": "address"
        }
      ],
      "payable": false,
      "stateMutability": "view",
      "type": "function"
    },
    {
      "constant": true,
      "inputs": [],
      "name": "isOwner",
      "outputs": [
        {
          "internalType": "bool",
          "name": "",
          "type": "bool"
        }
      ],
      "payable": false,
      "stateMutability": "view",
      "type": "function"
    },
    {
      "constant": true,
      "inputs": [],
      "name": "rootChain",
      "outputs": [
        {
          "internalType": "address",
          "name": "",
          "type": "address"
        }
      ],
      "payable": false,
      "stateMutability": "view",
      "type": "function"
    },
    {
      "constant": true,
      "inputs": [],
      "name": "totalHeimdallFee",
      "outputs": [
        {
          "internalType": "uint256",
          "name": "",
          "type": "uint256"
        }
      ],
      "payable": false,
      "stateMutability": "view",
      "type": "function"
    },
    {
      "constant": false,
      "inputs": [],
      "name": "unlock",
      "outputs": [],
      "payable": false,
      "stateMutability": "nonpayable",
      "type": "function"
    },
    {
      "constant": true,
      "inputs": [],
      "name": "factory",
      "outputs": [
        {
          "internalType": "contract ValidatorShareFactory",
          "name": "",
          "type": "address"
        }
      ],
      "payable": false,
      "stateMutability": "view",
      "type": "function"
    },
    {
      "constant": true,
      "inputs": [],
      "name": "totalRewardsLiquidated",
      "outputs": [
        {
          "internalType": "uint256",
          "name": "",
          "type": "uint256"
        }
      ],
      "payable": false,
      "stateMutability": "view",
      "type": "function"
    },
    {
      "constant": true,
      "inputs": [],
      "name": "locked",
      "outputs": [
        {
          "internalType": "bool",
          "name": "",
          "type": "bool"
        }
      ],
      "payable": false,
      "stateMutability": "view",
      "type": "function"
    },
    {
      "constant": true,
      "inputs": [
        {
          "internalType": "uint256",
          "name": "",
          "type": "uint256"
        }
      ],
      "name": "latestSignerUpdateEpoch",
      "outputs": [
        {
          "internalType": "uint256",
          "name": "",
          "type": "uint256"
        }
      ],
      "payable": false,
      "stateMutability": "view",
      "type": "function"
    },
    {
      "constant": false,
      "inputs": [
        {
          "internalType": "address",
          "name": "newRootChain",
          "type": "address"
        }
      ],
      "name": "changeRootChain",
      "outputs": [],
      "payable": false,
      "stateMutability": "nonpayable",
      "type": "function"
    },
    {
      "constant": true,
      "inputs": [],
      "name": "logger",
      "outputs": [
        {
          "internalType": "contract StakingInfo",
          "name": "",
          "type": "address"
        }
      ],
      "payable": false,
      "stateMutability": "view",
      "type": "function"
    },
    {
      "constant": false,
      "inputs": [
        {
          "internalType": "address",
          "name": "newOwner",
          "type": "address"
        }
      ],
      "name": "transferOwnership",
      "outputs": [],
      "payable": false,
      "stateMutability": "nonpayable",
      "type": "function"
    },
    {
      "constant": false,
      "inputs": [],
      "name": "lock",
      "outputs": [],
      "payable": false,
      "stateMutability": "nonpayable",
      "type": "function"
    },
    {
      "constant": true,
      "inputs": [],
      "name": "minHeimdallFee",
      "outputs": [
        {
          "internalType": "uint256",
          "name": "",
          "type": "uint256"
        }
      ],
      "payable": false,
      "stateMutability": "view",
      "type": "function"
    },
    {
      "constant": true,
      "inputs": [],
      "name": "token",
      "outputs": [
        {
          "internalType": "contract IERC20",
          "name": "",
          "type": "address"
        }
      ],
      "payable": false,
      "stateMutability": "view",
      "type": "function"
    },
    {
      "inputs": [],
      "payable": false,
      "stateMutability": "nonpayable",
      "type": "constructor"
    },
    {
      "anonymous": false,
      "inputs": [
        {
          "indexed": true,
          "internalType": "address",
          "name": "previousRootChain",
          "type": "address"
        },
        {
          "indexed": true,
          "internalType": "address",
          "name": "newRootChain",
          "type": "address"
        }
      ],
      "name": "RootChainChanged",
      "type": "event"
    },
    {
      "anonymous": false,
      "inputs": [
        {
          "indexed": true,
          "internalType": "address",
          "name": "previousOwner",
          "type": "address"
        },
        {
          "indexed": true,
          "internalType": "address",
          "name": "newOwner",
          "type": "address"
        }
      ],
      "name": "OwnershipTransferred",
      "type": "event"
    },
    {
      "constant": false,
      "inputs": [
        {
          "internalType": "bool",
          "name": "enabled",
          "type": "bool"
        }
      ],
      "name": "setDelegationEnabled",
      "outputs": [],
      "payable": false,
      "stateMutability": "nonpayable",
      "type": "function"
    },
    {
      "constant": false,
      "inputs": [
        {
          "internalType": "address",
          "name": "user",
          "type": "address"
        },
        {
          "internalType": "uint256",
          "name": "heimdallFee",
          "type": "uint256"
        }
      ],
      "name": "topUpForFee",
      "outputs": [],
      "payable": false,
      "stateMutability": "nonpayable",
      "type": "function"
    },
    {
      "constant": true,
      "inputs": [
        {
          "internalType": "uint256",
          "name": "tokenId",
          "type": "uint256"
        }
      ],
      "name": "ownerOf",
      "outputs": [
        {
          "internalType": "address",
          "name": "",
          "type": "address"
        }
      ],
      "payable": false,
      "stateMutability": "view",
      "type": "function"
    },
    {
      "constant": true,
      "inputs": [],
      "name": "epoch",
      "outputs": [
        {
          "internalType": "uint256",
          "name": "",
          "type": "uint256"
        }
      ],
      "payable": false,
      "stateMutability": "view",
      "type": "function"
    },
    {
      "constant": true,
      "inputs": [],
      "name": "withdrawalDelay",
      "outputs": [
        {
          "internalType": "uint256",
          "name": "",
          "type": "uint256"
        }
      ],
      "payable": false,
      "stateMutability": "view",
      "type": "function"
    },
    {
      "constant": true,
      "inputs": [
        {
          "internalType": "uint256",
          "name": "validatorId",
          "type": "uint256"
        }
      ],
      "name": "validatorStake",
      "outputs": [
        {
          "internalType": "uint256",
          "name": "",
          "type": "uint256"
        }
      ],
      "payable": false,
      "stateMutability": "view",
      "type": "function"
    },
    {
      "constant": false,
      "inputs": [
        {
          "internalType": "uint256",
          "name": "accumFeeAmount",
          "type": "uint256"
        },
        {
          "internalType": "uint256",
          "name": "index",
          "type": "uint256"
        },
        {
          "internalType": "bytes",
          "name": "proof",
          "type": "bytes"
        }
      ],
      "name": "claimFee",
      "outputs": [],
      "payable": false,
      "stateMutability": "nonpayable",
      "type": "function"
    },
    {
      "constant": false,
      "inputs": [
        {
          "internalType": "uint256",
          "name": "amount",
          "type": "uint256"
        },
        {
          "internalType": "uint256",
          "name": "heimdallFee",
          "type": "uint256"
        },
        {
          "internalType": "bool",
          "name": "acceptDelegation",
          "type": "bool"
        },
        {
          "internalType": "bytes",
          "name": "signerPubkey",
          "type": "bytes"
        }
      ],
      "name": "stake",
      "outputs": [],
      "payable": false,
      "stateMutability": "nonpayable",
      "type": "function"
    },
    {
      "constant": true,
      "inputs": [
        {
          "internalType": "address",
          "name": "user",
          "type": "address"
        }
      ],
      "name": "totalStakedFor",
      "outputs": [
        {
          "internalType": "uint256",
          "name": "",
          "type": "uint256"
        }
      ],
      "payable": false,
      "stateMutability": "view",
      "type": "function"
    },
    {
      "constant": true,
      "inputs": [],
      "name": "supportsHistory",
      "outputs": [
        {
          "internalType": "bool",
          "name": "",
          "type": "bool"
        }
      ],
      "payable": false,
      "stateMutability": "pure",
      "type": "function"
    },
    {
      "constant": false,
      "inputs": [
        {
          "internalType": "uint256",
          "name": "validatorId",
          "type": "uint256"
        },
        {
          "internalType": "uint256",
          "name": "amount",
          "type": "uint256"
        }
      ],
      "name": "startAuction",
      "outputs": [],
      "payable": false,
      "stateMutability": "nonpayable",
      "type": "function"
    },
    {
      "constant": false,
      "inputs": [
        {
          "internalType": "uint256",
          "name": "validatorId",
          "type": "uint256"
        },
        {
          "internalType": "uint256",
          "name": "heimdallFee",
          "type": "uint256"
        },
        {
          "internalType": "bool",
          "name": "acceptDelegation",
          "type": "bool"
        },
        {
          "internalType": "bytes",
          "name": "signerPubkey",
          "type": "bytes"
        }
      ],
      "name": "confirmAuctionBid",
      "outputs": [],
      "payable": false,
      "stateMutability": "nonpayable",
      "type": "function"
    },
    {
      "constant": false,
      "inputs": [
        {
          "internalType": "uint256",
          "name": "validatorId",
          "type": "uint256"
        }
      ],
      "name": "unstake",
      "outputs": [],
      "payable": false,
      "stateMutability": "nonpayable",
      "type": "function"
    },
    {
      "constant": false,
      "inputs": [
        {
          "internalType": "uint256",
          "name": "validatorId",
          "type": "uint256"
        }
      ],
      "name": "forceUnstake",
      "outputs": [],
      "payable": false,
      "stateMutability": "nonpayable",
      "type": "function"
    },
    {
      "constant": false,
      "inputs": [
        {
          "internalType": "uint256",
          "name": "validatorId",
          "type": "uint256"
        },
        {
          "internalType": "uint256",
          "name": "amount",
          "type": "uint256"
        },
        {
          "internalType": "address",
          "name": "delegator",
          "type": "address"
        }
      ],
      "name": "transferFunds",
      "outputs": [
        {
          "internalType": "bool",
          "name": "",
          "type": "bool"
        }
      ],
      "payable": false,
      "stateMutability": "nonpayable",
      "type": "function"
    },
    {
      "constant": false,
      "inputs": [
        {
          "internalType": "uint256",
          "name": "validatorId",
          "type": "uint256"
        },
        {
          "internalType": "uint256",
          "name": "amount",
          "type": "uint256"
        },
        {
          "internalType": "address",
          "name": "delegator",
          "type": "address"
        }
      ],
      "name": "delegationDeposit",
      "outputs": [
        {
          "internalType": "bool",
          "name": "",
          "type": "bool"
        }
      ],
      "payable": false,
      "stateMutability": "nonpayable",
      "type": "function"
    },
    {
      "constant": false,
      "inputs": [
        {
          "internalType": "address",
          "name": "user",
          "type": "address"
        },
        {
          "internalType": "uint256",
          "name": "amount",
          "type": "uint256"
        },
        {
          "internalType": "uint256",
          "name": "heimdallFee",
          "type": "uint256"
        },
        {
          "internalType": "bool",
          "name": "acceptDelegation",
          "type": "bool"
        },
        {
          "internalType": "bytes",
          "name": "signerPubkey",
          "type": "bytes"
        }
      ],
      "name": "stakeFor",
      "outputs": [],
      "payable": false,
      "stateMutability": "nonpayable",
      "type": "function"
    },
    {
      "constant": false,
      "inputs": [
        {
          "internalType": "uint256",
          "name": "validatorId",
          "type": "uint256"
        }
      ],
      "name": "unstakeClaim",
      "outputs": [],
      "payable": false,
      "stateMutability": "nonpayable",
      "type": "function"
    },
    {
      "constant": false,
      "inputs": [
        {
          "internalType": "uint256",
          "name": "validatorId",
          "type": "uint256"
        },
        {
          "internalType": "uint256",
          "name": "amount",
          "type": "uint256"
        },
        {
          "internalType": "bool",
          "name": "stakeRewards",
          "type": "bool"
        }
      ],
      "name": "restake",
      "outputs": [],
      "payable": false,
      "stateMutability": "nonpayable",
      "type": "function"
    },
    {
      "constant": false,
      "inputs": [
        {
          "internalType": "uint256",
          "name": "validatorId",
          "type": "uint256"
        }
      ],
      "name": "withdrawRewards",
      "outputs": [],
      "payable": false,
      "stateMutability": "nonpayable",
      "type": "function"
    },
    {
      "constant": true,
      "inputs": [
        {
          "internalType": "address",
          "name": "user",
          "type": "address"
        }
      ],
      "name": "getValidatorId",
      "outputs": [
        {
          "internalType": "uint256",
          "name": "",
          "type": "uint256"
        }
      ],
      "payable": false,
      "stateMutability": "view",
      "type": "function"
    },
    {
      "constant": false,
      "inputs": [
        {
          "internalType": "address",
          "name": "_token",
          "type": "address"
        }
      ],
      "name": "setToken",
      "outputs": [],
      "payable": false,
      "stateMutability": "nonpayable",
      "type": "function"
    },
    {
      "constant": false,
      "inputs": [
        {
          "internalType": "uint256",
          "name": "newThreshold",
          "type": "uint256"
        }
      ],
      "name": "updateValidatorThreshold",
      "outputs": [],
      "payable": false,
      "stateMutability": "nonpayable",
      "type": "function"
    },
    {
      "constant": false,
      "inputs": [
        {
          "internalType": "uint256",
          "name": "_blocks",
          "type": "uint256"
        }
      ],
      "name": "updateCheckPointBlockInterval",
      "outputs": [],
      "payable": false,
      "stateMutability": "nonpayable",
      "type": "function"
    },
    {
      "constant": false,
      "inputs": [
        {
          "internalType": "uint256",
          "name": "newReward",
          "type": "uint256"
        }
      ],
      "name": "updateCheckpointReward",
      "outputs": [],
      "payable": false,
      "stateMutability": "nonpayable",
      "type": "function"
    },
    {
      "constant": false,
      "inputs": [
        {
          "internalType": "uint256",
          "name": "validatorId",
          "type": "uint256"
        },
        {
          "internalType": "address",
          "name": "newContractAddress",
          "type": "address"
        }
      ],
      "name": "updateContractAddress",
      "outputs": [],
      "payable": false,
      "stateMutability": "nonpayable",
      "type": "function"
    },
    {
      "constant": false,
      "inputs": [
        {
          "internalType": "address",
          "name": "newFactory",
          "type": "address"
        }
      ],
      "name": "updateContractFactory",
      "outputs": [],
      "payable": false,
      "stateMutability": "nonpayable",
      "type": "function"
    },
    {
      "constant": false,
      "inputs": [
        {
          "internalType": "uint256",
          "name": "validatorId",
          "type": "uint256"
        },
        {
          "internalType": "int256",
          "name": "amount",
          "type": "int256"
        }
      ],
      "name": "updateValidatorState",
      "outputs": [],
      "payable": false,
      "stateMutability": "nonpayable",
      "type": "function"
    },
    {
      "constant": false,
      "inputs": [
        {
          "internalType": "uint256",
          "name": "newDynasty",
          "type": "uint256"
        }
      ],
      "name": "updateDynastyValue",
      "outputs": [],
      "payable": false,
      "stateMutability": "nonpayable",
      "type": "function"
    },
    {
      "constant": false,
      "inputs": [
        {
          "internalType": "uint256",
          "name": "forNCheckpoints",
          "type": "uint256"
        }
      ],
      "name": "stopAuctions",
      "outputs": [],
      "payable": false,
      "stateMutability": "nonpayable",
      "type": "function"
    },
    {
      "constant": false,
      "inputs": [
        {
          "internalType": "uint256",
          "name": "newProposerBonus",
          "type": "uint256"
        }
      ],
      "name": "updateProposerBonus",
      "outputs": [],
      "payable": false,
      "stateMutability": "nonpayable",
      "type": "function"
    },
    {
      "constant": false,
      "inputs": [
        {
          "internalType": "uint256",
          "name": "_limit",
          "type": "uint256"
        }
      ],
      "name": "updateSignerUpdateLimit",
      "outputs": [],
      "payable": false,
      "stateMutability": "nonpayable",
      "type": "function"
    },
    {
      "constant": false,
      "inputs": [
        {
          "internalType": "uint256",
          "name": "_minDeposit",
          "type": "uint256"
        },
        {
          "internalType": "uint256",
          "name": "_minHeimdallFee",
          "type": "uint256"
        }
      ],
      "name": "updateMinAmounts",
      "outputs": [],
      "payable": false,
      "stateMutability": "nonpayable",
      "type": "function"
    },
    {
      "constant": false,
      "inputs": [
        {
          "internalType": "uint256",
          "name": "validatorId",
          "type": "uint256"
        },
        {
          "internalType": "bytes",
          "name": "signerPubkey",
          "type": "bytes"
        }
      ],
      "name": "updateSigner",
      "outputs": [],
      "payable": false,
      "stateMutability": "nonpayable",
      "type": "function"
    },
    {
      "constant": true,
      "inputs": [],
      "name": "currentValidatorSetSize",
      "outputs": [
        {
          "internalType": "uint256",
          "name": "",
          "type": "uint256"
        }
      ],
      "payable": false,
      "stateMutability": "view",
      "type": "function"
    },
    {
      "constant": true,
      "inputs": [],
      "name": "currentValidatorSetTotalStake",
      "outputs": [
        {
          "internalType": "uint256",
          "name": "",
          "type": "uint256"
        }
      ],
      "payable": false,
      "stateMutability": "view",
      "type": "function"
    },
    {
      "constant": true,
      "inputs": [
        {
          "internalType": "uint256",
          "name": "validatorId",
          "type": "uint256"
        }
      ],
      "name": "getValidatorContract",
      "outputs": [
        {
          "internalType": "address",
          "name": "",
          "type": "address"
        }
      ],
      "payable": false,
      "stateMutability": "view",
      "type": "function"
    },
    {
      "constant": true,
      "inputs": [
        {
          "internalType": "uint256",
          "name": "validatorId",
          "type": "uint256"
        }
      ],
      "name": "isValidator",
      "outputs": [
        {
          "internalType": "bool",
          "name": "",
          "type": "bool"
        }
      ],
      "payable": false,
      "stateMutability": "view",
      "type": "function"
    },
    {
      "constant": false,
      "inputs": [
        {
          "internalType": "uint256",
          "name": "blockInterval",
          "type": "uint256"
        },
        {
          "internalType": "bytes32",
          "name": "voteHash",
          "type": "bytes32"
        },
        {
          "internalType": "bytes32",
          "name": "stateRoot",
          "type": "bytes32"
        },
        {
          "internalType": "address",
          "name": "proposer",
          "type": "address"
        },
        {
          "internalType": "bytes",
          "name": "sigs",
          "type": "bytes"
        }
      ],
      "name": "checkSignatures",
      "outputs": [
        {
          "internalType": "uint256",
          "name": "",
          "type": "uint256"
        }
      ],
      "payable": false,
      "stateMutability": "nonpayable",
      "type": "function"
    },
    {
      "constant": false,
      "inputs": [
        {
          "internalType": "bytes",
          "name": "_slashingInfoList",
          "type": "bytes"
        }
      ],
      "name": "slash",
      "outputs": [
        {
          "internalType": "uint256",
          "name": "",
          "type": "uint256"
        }
      ],
      "payable": false,
      "stateMutability": "nonpayable",
      "type": "function"
    },
    {
      "constant": false,
      "inputs": [
        {
          "internalType": "uint256",
          "name": "validatorId",
          "type": "uint256"
        }
      ],
      "name": "unJail",
      "outputs": [],
      "payable": false,
      "stateMutability": "nonpayable",
      "type": "function"
    },
    {
      "constant": true,
      "inputs": [
        {
          "internalType": "bytes",
          "name": "pub",
          "type": "bytes"
        }
      ],
      "name": "pubToAddress",
      "outputs": [
        {
          "internalType": "address",
          "name": "",
          "type": "address"
        }
      ],
      "payable": false,
      "stateMutability": "pure",
      "type": "function"
    },
    {
      "constant": true,
      "inputs": [
        {
          "internalType": "bytes32",
          "name": "voteHash",
          "type": "bytes32"
        },
        {
          "internalType": "bytes",
          "name": "sigs",
          "type": "bytes"
        }
      ],
      "name": "verifyConsensus",
      "outputs": [
        {
          "internalType": "uint256",
          "name": "",
          "type": "uint256"
        },
        {
          "internalType": "uint256",
          "name": "",
          "type": "uint256"
        }
      ],
      "payable": false,
      "stateMutability": "view",
      "type": "function"
    },
    {
      "constant": false,
      "inputs": [
        {
          "internalType": "uint256",
          "name": "validatorId",
          "type": "uint256"
        },
        {
          "internalType": "address",
          "name": "token",
          "type": "address"
        },
        {
          "internalType": "address payable",
          "name": "destination",
          "type": "address"
        },
        {
          "internalType": "uint256",
          "name": "amount",
          "type": "uint256"
        }
      ],
      "name": "drainValidatorShares",
      "outputs": [],
      "payable": false,
      "stateMutability": "nonpayable",
      "type": "function"
    },
    {
      "constant": false,
      "inputs": [
        {
          "internalType": "address",
          "name": "destination",
          "type": "address"
        },
        {
          "internalType": "uint256",
          "name": "amount",
          "type": "uint256"
        }
      ],
      "name": "drain",
      "outputs": [],
      "payable": false,
      "stateMutability": "nonpayable",
      "type": "function"
    },
    {
      "constant": false,
      "inputs": [
        {
          "internalType": "address",
          "name": "_NFTContract",
          "type": "address"
        },
        {
          "internalType": "address",
          "name": "_stakingLogger",
          "type": "address"
        },
        {
          "internalType": "address",
          "name": "_validatorShareFactory",
          "type": "address"
        }
      ],
      "name": "reinitialize",
      "outputs": [],
      "payable": false,
      "stateMutability": "nonpayable",
      "type": "function"
    }
  ],
  "bytecode": "0x60806040526120006009556001600a55612000600b5569021e19e0c9bab2400000600c55670de0b6b3a7640000600d55670de0b6b3a7640000600e5560ff600f556064601055600a60115560016013556004600b54816200005c57fe5b04601655600a601755601a805460ff191660011790553480156200007f57600080fd5b50600080546001600160a01b031916331780825560405182916001600160a01b03169082907f8be0079c531659141344cd1fd0a4f28419497f9722a3daafe3b4186f6b6457e0908290a3600280546001600160a01b0319166001600160a01b039290921691909117905550615fa980620000fa6000396000f3fe608060405234801561001057600080fd5b50600436106104c25760003560e01c806378f84a4411610278578063bc8756a91161015c578063e8afa8e8116100ce578063f41a964211610092578063f41a964214611143578063f4547a4d146111ee578063f771fc871461121a578063f83d08ba14611237578063fba58f341461123f578063fc0c546a14611247576104c2565b8063e8afa8e8146110b3578063eceec1d3146110d9578063f24ccbfe146110f6578063f28699fa146110fe578063f2fde38b1461111d576104c2565b8063cf30901211610120578063cf30901214610f8a578063d011027414610f92578063d7f5549d14611036578063d86d53e714611053578063e1edc93014611070578063e6692f4914611096576104c2565b8063bc8756a914610ea8578063c45a015514610eda578063c8b194a214610ee2578063cbf383d514610f65578063cd6b838814610f82576104c2565b8063987ab9db116101f5578063a4769071116101b9578063a476907114610d96578063a69df4b514610d9e578063a7ab696114610da6578063b184be8114610dae578063b1d23f0214610dda578063bbcfbbb014610dfd576104c2565b8063987ab9db14610d295780639a8a624314610d315780639b33f43414610d395780639ff1150014610d56578063a440ab1e14610d79576104c2565b80638da5cb5b1161023c5780638da5cb5b14610cd75780638f32d59b14610cdf578063900cf0cf14610ce75780639146014914610cef5780639342c8f414610d0c576104c2565b806378f84a4414610c915780637b10399914610cb75780637d66975214610cbf5780637f952d9514610cc7578063817b1cd214610ccf576104c2565b80634b341aed116103aa5780635e47655f1161031c5780636901b253116102e05780636901b25314610c375780637033e4a614610c695780637060054d14610c71578063715018a614610c795780637667180814610c8157806377939d1014610c89576104c2565b80635e47655f14610a625780636352211e14610b065780636365679814610b235780636400e38514610b4f57806368cb812a14610b87576104c2565b80635325e1441161036e5780635325e144146109b357806354b8c601146109f75780635508d8e1146109ff57806356342d8c14610a075780635aa6e67514610a245780635c24885514610a2c576104c2565b80634b341aed146108935780634e3c83f1146108b95780634fd101d7146108c15780634fdd20f1146108c95780634fee13fc14610990576104c2565b806325316411116104435780633427458611610407578063342745861461076e57806335aa2e44146107765780633862da0b1461080c5780633d02455b1461083257806341b3d1851461084f57806348ab8b2a14610857576104c2565b806325316411146106c95780632649263a146106d157806328cc4e41146107025780632e17de781461072d57806331c2273b1461074a576104c2565b80630ebb172a1161048a5780630ebb172a14610650578063144fa6d71461065857806316827b1b1461067e578063174e68321461069b57806317c2b910146106c1576104c2565b8063028c4c67146104c7578063066647a01461054c57806306cfb104146106235780630cccfc58146106405780630e15561a14610648575b600080fd5b61054a600480360360808110156104dd57600080fd5b813591602081013591604082013515159190810190608081016060820135600160201b81111561050c57600080fd5b82018360208201111561051e57600080fd5b803590602001918460018302840111600160201b8311171561053f57600080fd5b50909250905061124f565b005b610611600480360360a081101561056257600080fd5b8135916020810135916040820135916001600160a01b036060820135169181019060a081016080820135600160201b81111561059d57600080fd5b8201836020820111156105af57600080fd5b803590602001918460018302840111600160201b831117156105d057600080fd5b91908080601f016020809104026020016040519081016040528093929190818152602001838380828437600092019190915250929550611299945050505050565b60408051918252519081900360200190f35b61054a6004803603602081101561063957600080fd5b5035611412565b610611611428565b61061161142e565b610611611434565b61054a6004803603602081101561066e57600080fd5b50356001600160a01b031661143a565b61054a6004803603602081101561069457600080fd5b5035611480565b610611600480360360208110156106b157600080fd5b50356001600160a01b0316611515565b61061161159f565b6106116115a5565b6106ee600480360360208110156106e757600080fd5b50356115ab565b604080519115158252519081900360200190f35b61054a6004803603606081101561071857600080fd5b50803590602081013590604001351515611665565b61054a6004803603602081101561074357600080fd5b5035611a85565b610752611c08565b604080516001600160a01b039092168252519081900360200190f35b610611611c17565b6107936004803603602081101561078c57600080fd5b5035611c1d565b60405180898152602001888152602001878152602001868152602001858152602001846001600160a01b03166001600160a01b03168152602001836001600160a01b03166001600160a01b031681526020018260038111156107f157fe5b60ff1681526020019850505050505050505060405180910390f35b6106116004803603602081101561082257600080fd5b50356001600160a01b0316611c73565b61054a6004803603602081101561084857600080fd5b5035611c85565b610611611f05565b61054a6004803603608081101561086d57600080fd5b508035906001600160a01b03602082013581169160408101359091169060600135611f0b565b610611600480360360208110156108a957600080fd5b50356001600160a01b0316612025565b61061161215c565b610611612162565b61054a600480360360a08110156108df57600080fd5b6001600160a01b0382351691602081013591604082013591606081013515159181019060a081016080820135600160201b81111561091c57600080fd5b82018360208201111561092e57600080fd5b803590602001918460018302840111600160201b8311171561094f57600080fd5b91908080601f016020809104026020016040519081016040528093929190818152602001838380828437600092019190915250929550612168945050505050565b61054a600480360360408110156109a657600080fd5b50803590602001356123b9565b6109d0600480360360208110156109c957600080fd5b503561291e565b6040805193845260208401929092526001600160a01b031682820152519081900360600190f35b6106ee612948565b610611612951565b61075260048036036020811015610a1d57600080fd5b5035612957565b610752612975565b610a4960048036036020811015610a4257600080fd5b5035612984565b6040805192835260208301919091528051918290030190f35b61061160048036036020811015610a7857600080fd5b810190602081018135600160201b811115610a9257600080fd5b820183602082011115610aa457600080fd5b803590602001918460018302840111600160201b83111715610ac557600080fd5b91908080601f01602080910402602001604051908101604052809392919081815260200183838082843760009201919091525092955061299d945050505050565b61075260048036036020811015610b1c57600080fd5b5035612c7e565b61054a60048036036040811015610b3957600080fd5b506001600160a01b038135169060200135612cca565b61054a60048036036060811015610b6557600080fd5b506001600160a01b038135811691602081013582169160409091013516612e46565b61054a60048036036060811015610b9d57600080fd5b813591602081013591810190606081016040820135600160201b811115610bc357600080fd5b820183602082011115610bd557600080fd5b803590602001918460018302840111600160201b83111715610bf657600080fd5b91908080601f016020809104026020016040519081016040528093929190818152602001838380828437600092019190915250929550612ece945050505050565b6106ee60048036036060811015610c4d57600080fd5b50803590602081013590604001356001600160a01b031661311d565b6106ee61326d565b610611613272565b61054a613278565b6106116132d3565b6106116132d9565b61061160048036036020811015610ca757600080fd5b50356001600160a01b03166132df565b6107526132f1565b610611613300565b610611613306565b61061161331e565b610752613324565b6106ee613333565b610611613344565b61054a60048036036020811015610d0557600080fd5b503561334a565b61054a60048036036020811015610d2257600080fd5b503561336a565b6107526135c8565b6106116135d7565b61054a60048036036020811015610d4f57600080fd5b50356135dd565b61054a60048036036040811015610d6c57600080fd5b50803590602001356136a2565b61054a60048036036020811015610d8f57600080fd5b5035613726565b610611613791565b61054a6137a6565b6106116137fe565b61054a60048036036040811015610dc457600080fd5b506001600160a01b038135169060200135613804565b61054a60048036036040811015610df057600080fd5b5080359060200135613913565b610a4960048036036040811015610e1357600080fd5b81359190810190604081016020820135600160201b811115610e3457600080fd5b820183602082011115610e4657600080fd5b803590602001918460018302840111600160201b83111715610e6757600080fd5b91908080601f01602080910402602001604051908101604052809392919081815260200183838082843760009201919091525092955061392f945050505050565b6106ee60048036036060811015610ebe57600080fd5b50803590602081013590604001356001600160a01b0316613b6c565b610752613cc6565b61054a60048036036080811015610ef857600080fd5b813591602081013591604082013515159190810190608081016060820135600160201b811115610f2757600080fd5b820183602082011115610f3957600080fd5b803590602001918460018302840111600160201b83111715610f5a57600080fd5b509092509050613cd5565b61054a60048036036020811015610f7b57600080fd5b5035614227565b6106116142bc565b6106ee6142c2565b61075260048036036020811015610fa857600080fd5b810190602081018135600160201b811115610fc257600080fd5b820183602082011115610fd457600080fd5b803590602001918460018302840111600160201b83111715610ff557600080fd5b91908080601f0160208091040260200160405190810160405280939291908181526020018383808284376000920191909152509295506142d2945050505050565b6106116004803603602081101561104c57600080fd5b5035614327565b61054a6004803603602081101561106957600080fd5b5035614338565b61054a6004803603602081101561108657600080fd5b50356001600160a01b0316614659565b61054a600480360360208110156110ac57600080fd5b503561468c565b61054a600480360360208110156110c957600080fd5b50356001600160a01b0316614751565b610611600480360360208110156110ef57600080fd5b50356147d1565b6107526147e3565b61054a6004803603602081101561111457600080fd5b503515156147f2565b61054a6004803603602081101561113357600080fd5b50356001600160a01b031661484e565b61054a6004803603604081101561115957600080fd5b81359190810190604081016020820135600160201b81111561117a57600080fd5b82018360208201111561118c57600080fd5b803590602001918460018302840111600160201b831117156111ad57600080fd5b91908080601f016020809104026020016040519081016040528093929190818152602001838380828437600092019190915250929550614868945050505050565b61054a6004803603604081101561120457600080fd5b50803590602001356001600160a01b0316614b5b565b61054a6004803603602081101561123057600080fd5b5035614c51565b61054a614c75565b610611614cd3565b610752614cd9565b6112923386868686868080601f01602080910402602001604051908101604052809392919081815260200183838082843760009201919091525061216892505050565b5050505050565b6003546000906001600160a01b031633146112b357600080fd5b60006112dc600f546112d0600c548a614ce890919063ffffffff16565b9063ffffffff614d1616565b90506112ea600c5482614d38565b9050600061130860646112d060175485614ce890919063ffffffff16565b6001600160a01b038087166000908152601c60209081526040808320548352601b909152902060068101549293509116156113b25760068101548154604080516301a6632160e31b8152600481018690526024810192909252516001600160a01b0390921691630d3319089160448082019260009290919082900301818387803b15801561139557600080fd5b505af11580156113a9573d6000803e3d6000fd5b505050506113cd565b60018101546113c7908363ffffffff614d4e16565b60018201555b6113dd838363ffffffff614d6016565b925060006113e9613791565b601889905590506113f8614d75565b61140481858b89614dd3565b9a9950505050505050505050565b61141a613333565b61142357600080fd5b601055565b60165481565b60145481565b60095481565b611442613333565b61144b57600080fd5b6001600160a01b03811661145e57600080fd5b600480546001600160a01b0319166001600160a01b0392909216919091179055565b611488613333565b61149157600080fd5b6000811161149e57600080fd5b60065460115460408051630f1980a560e41b8152600481018590526024810192909252516001600160a01b039092169163f1980a509160448082019260009290919082900301818387803b1580156114f557600080fd5b505af1158015611509573d6000803e3d6000fd5b50505060119190915550565b60075460408051632f745c5960e01b81526001600160a01b038481166004830152600060248301819052925192931691632f745c5991604480820192602092909190829003018186803b15801561156b57600080fd5b505afa15801561157f573d6000803e3d6000fd5b505050506040513d602081101561159557600080fd5b505190505b919050565b60185481565b600f5481565b6000818152601b6020526040812054158015906115f657506000828152601b6020526040902060020154158015906115f65750600a546000838152601b602052604090206002015411155b801561162d57506000828152601b6020526040902060030154158061162d5750600a546000838152601b6020526040902060030154115b801561165f575060016000838152601b6020526040902060060154600160a01b900460ff16600381111561165d57fe5b145b92915050565b600254600160a01b900460ff16156116b0576040805162461bcd60e51b8152602060048201526009602482015268125cc8131bd8dad95960ba1b604482015290519081900360640190fd5b600754604080516331a9108f60e11b8152600481018690529051859233926001600160a01b0390911691636352211e91602480820192602092909190829003018186803b15801561170057600080fd5b505afa158015611714573d6000803e3d6000fd5b505050506040513d602081101561172a57600080fd5b50516001600160a01b03161461173f57600080fd5b600a546000858152601b60205260409020600301541061179c576040805162461bcd60e51b81526020600482015260136024820152724e6f20757365206f662072657374616b696e6760681b604482015290519081900360640190fd5b821561186b5760048054604080516323b872dd60e01b8152339381019390935230602484015260448301869052516001600160a01b03909116916323b872dd9160648083019260209291908290030181600087803b1580156117fd57600080fd5b505af1158015611811573d6000803e3d6000fd5b505050506040513d602081101561182757600080fd5b505161186b576040805162461bcd60e51b815260206004820152600e60248201526d5472616e73666572207374616b6560901b604482015290519081900360640190fd5b8115611946576000848152601b602052604090206001015461189490849063ffffffff614d4e16565b6000858152601b60205260409020600601549093506001600160a01b031680156119325761192f816001600160a01b03166332ba2e536040518163ffffffff1660e01b8152600401602060405180830381600087803b1580156118f657600080fd5b505af115801561190a573d6000803e3d6000fd5b505050506040513d602081101561192057600080fd5b5051859063ffffffff614d4e16565b93505b506000848152601b60205260408120600101555b601254611959908463ffffffff614d4e16565b6012556000848152601b602052604090205461197b908463ffffffff614d4e16565b6000858152601b6020908152604080832093909355600a548252601d9052818120805486019055600654825163532e19a960e01b81526004810188905292516001600160a01b039091169263532e19a992602480830193919282900301818387803b1580156119e957600080fd5b505af11580156119fd573d6000803e3d6000fd5b50506006546000878152601b602052604080822054601254825163242c1b9960e01b8152600481018c90526024810192909252604482015290516001600160a01b03909316945063242c1b9993506064808201939182900301818387803b158015611a6757600080fd5b505af1158015611a7b573d6000803e3d6000fd5b5050505050505050565b600754604080516331a9108f60e11b8152600481018490529051839233926001600160a01b0390911691636352211e91602480820192602092909190829003018186803b158015611ad557600080fd5b505afa158015611ae9573d6000803e3d6000fd5b505050506040513d6020811015611aff57600080fd5b50516001600160a01b031614611b1457600080fd5b6000828152601f602052604090205415611b75576040805162461bcd60e51b815260206004820152601b60248201527f5761697420666f722061756374696f6e20636f6d706c6574696f6e0000000000604482015290519081900360640190fd5b600a54600090611b8c90600163ffffffff614d4e16565b6000848152601b602052604090206002015490915015801590611bbe57506000838152601b6020526040902060030154155b8015611bf0575060016000848152601b6020526040902060060154600160a01b900460ff166003811115611bee57fe5b145b611bf957600080fd5b611c038382615102565b505050565b6007546001600160a01b031681565b60175481565b601b602052600090815260409020805460018201546002830154600384015460048501546005860154600690960154949593949293919290916001600160a01b039081169190811690600160a01b900460ff1688565b601c6020526000908152604090205481565b600754604080516331a9108f60e11b8152600481018490529051839233926001600160a01b0390911691636352211e91602480820192602092909190829003018186803b158015611cd557600080fd5b505afa158015611ce9573d6000803e3d6000fd5b505050506040513d6020811015611cff57600080fd5b50516001600160a01b031614611d1457600080fd5b60026000838152601b6020526040902060060154600160a01b900460ff166003811115611d3d57fe5b14611d4757600080fd5b600a546000838152601b60205260409020600401541115611da8576040805162461bcd60e51b8152602060048201526016602482015275125b98dbdb5c1b195d19481a985a5b081c195c9a5bd960521b604482015290519081900360640190fd5b6000828152601b6020526040902054600d54811015611dc657600080fd5b6000838152601b60205260408120600601546001600160a01b031615611e6a576000848152601b602090815260408083206006015481516322f0f2f960e01b815291516001600160a01b03909116936322f0f2f993600480850194919392918390030190829087803b158015611e3b57600080fd5b505af1158015611e4f573d6000803e3d6000fd5b505050506040513d6020811015611e6557600080fd5b505190505b600a54611e8890611e81848463ffffffff614d4e16565b6001615360565b6000848152601b6020526040808220600381018390556006808201805460ff60a01b1916600160a01b17905554600590910154825163c3917e9960e01b8152600481018990526001600160a01b039182166024820152925191169263c3917e99926044808201939182900301818387803b158015611a6757600080fd5b600d5481565b6002546001600160a01b03163314611f545760405162461bcd60e51b8152600401808060200182810382526026815260200180615ef86026913960400191505060405180910390fd5b6000848152601b60205260409020600601546001600160a01b031680611fab5760405162461bcd60e51b815260040180806020018281038252602a815260200180615f4b602a913960400191505060405180910390fd5b6040805163abf59fc960e01b81526001600160a01b0386811660048301528581166024830152604482018590529151839283169163abf59fc991606480830192600092919082900301818387803b15801561200557600080fd5b505af1158015612019573d6000803e3d6000fd5b50505050505050505050565b60006001600160a01b03821615806120b35750600754604080516370a0823160e01b81526001600160a01b038581166004830152915191909216916370a08231916024808301926020929190829003018186803b15801561208557600080fd5b505afa158015612099573d6000803e3d6000fd5b505050506040513d60208110156120af57600080fd5b5051155b156120c05750600061159a565b60075460408051632f745c5960e01b81526001600160a01b0385811660048301526000602483018190529251601b949190911691632f745c59916044808301926020929190829003018186803b15801561211957600080fd5b505afa15801561212d573d6000803e3d6000fd5b505050506040513d602081101561214357600080fd5b5051815260208101919091526040016000205492915050565b60105481565b60115481565b600254600160a01b900460ff16156121b3576040805162461bcd60e51b8152602060048201526009602482015268125cc8131bd8dad95960ba1b604482015290519081900360640190fd5b6011546121be613306565b106121fa5760405162461bcd60e51b8152600401808060200182810382526021815260200180615e516021913960400191505060405180910390fd5b600d548411612250576040805162461bcd60e51b815260206004820152601960248201527f6d696e206465706f736974206c696d6974206661696c65642100000000000000604482015290519081900360640190fd5b600e548310156122a3576040805162461bcd60e51b81526020600482015260196024820152784d696e696d756d20616d6f756e742069732031204d6174696360381b604482015290519081900360640190fd5b6004546001600160a01b03166323b872dd33306122c6888863ffffffff614d4e16565b6040518463ffffffff1660e01b815260040180846001600160a01b03166001600160a01b03168152602001836001600160a01b03166001600160a01b031681526020018281526020019350505050602060405180830381600087803b15801561232e57600080fd5b505af1158015612342573d6000803e3d6000fd5b505050506040513d602081101561235857600080fd5b50516123a3576040805162461bcd60e51b8152602060048201526015602482015274151c985b9cd9995c881cdd185ad94819985a5b1959605a1b604482015290519081900360640190fd5b6123af85858484615382565b611292858461579d565b600254600160a01b900460ff1615612404576040805162461bcd60e51b8152602060048201526009602482015268125cc8131bd8dad95960ba1b604482015290519081900360640190fd5b61240d826115ab565b61241657600080fd5b336000818152601c60209081526040918290205460075483516370a0823160e01b81526004810195909552925190936001600160a01b03909316926370a08231926024808301939192829003018186803b15801561247357600080fd5b505afa158015612487573d6000803e3d6000fd5b505050506040513d602081101561249d57600080fd5b50511580156124ae57506000198114155b6124f6576040805162461bcd60e51b8152602060048201526014602482015273416c72656164792075736564206164647265737360601b604482015290519081900360640190fd5b60195415806125095750600a5460195411155b61254c576040805162461bcd60e51b815260206004820152600f60248201526e10dbdbdb191bdddb881c195c9a5bd9608a1b604482015290519081900360640190fd5b601654600b54612562908263ffffffff614d4e16565b6000858152601b6020526040902060020154600a546125869163ffffffff614d6016565b8161258d57fe5b0611156125da576040805162461bcd60e51b8152602060048201526016602482015275125b9d985b1a5908185d58dd1a5bdb881c195c9a5bd960521b604482015290519081900360640190fd5b6000838152601b6020526040902080546006909101546001600160a01b0316801561267757612674816001600160a01b0316633a09bf446040518163ffffffff1660e01b815260040160206040518083038186803b15801561263b57600080fd5b505afa15801561264f573d6000803e3d6000fd5b505050506040513d602081101561266557600080fd5b5051839063ffffffff614d4e16565b91505b6000858152601f6020526040902054612691908390615824565b91508382106126e0576040805162461bcd60e51b8152602060048201526016602482015275135d5cdd08189a59081a1a59da195c88185b5bdd5b9d60521b604482015290519081900360640190fd5b60048054604080516323b872dd60e01b8152339381019390935230602484015260448301879052516001600160a01b03909116916323b872dd9160648083019260209291908290030181600087803b15801561273b57600080fd5b505af115801561274f573d6000803e3d6000fd5b505050506040513d602081101561276557600080fd5b50516127b1576040805162461bcd60e51b8152602060048201526016602482015275151c985b9cd9995c88185b5bdd5b9d0819985a5b195960521b604482015290519081900360640190fd5b6000858152601f602052604090208054156128975760048054600283015483546040805163a9059cbb60e01b81526001600160a01b039384169581019590955260248501919091525191169163a9059cbb9160448083019260209291908290030181600087803b15801561282457600080fd5b505af1158015612838573d6000803e3d6000fd5b505050506040513d602081101561284e57600080fd5b5051612897576040805162461bcd60e51b8152602060048201526013602482015272151bdad95b881c995d1d5c9b8819985a5b1959606a1b604482015290519081900360640190fd5b8481556002810180546001600160a01b031916331790556006546000878152601b6020908152604080832054601f909252808320548151630934a6df60e01b8152600481018c905260248101939093526044830152516001600160a01b039390931692630934a6df9260648084019391929182900301818387803b15801561200557600080fd5b601f602052600090815260409020805460018201546002909201549091906001600160a01b031683565b601a5460ff1681565b60135481565b6000908152601b60205260409020600601546001600160a01b031690565b6002546001600160a01b031681565b601d602052600090815260409020805460019091015482565b6000336001600160a01b0316600560009054906101000a90046001600160a01b03166001600160a01b031663d580b4186040518163ffffffff1660e01b815260040160206040518083038186803b1580156129f757600080fd5b505afa158015612a0b573d6000803e3d6000fd5b505050506040513d6020811015612a2157600080fd5b50516001600160a01b031614612a7e576040805162461bcd60e51b815260206004820181905260248201527f53656e646572206d75737420626520736c617368696e67206d616e6167657221604482015290519081900360640190fd5b6060612a91612a8c84615834565b615859565b905060008080805b8451811015612c51576060612ac0868381518110612ab357fe5b6020026020010151615859565b90506000612ae182600081518110612ad457fe5b602002602001015161592a565b90506000612af583600181518110612ad457fe5b9050612b07858263ffffffff614d4e16565b6000838152601b60205260409020600601549095506001600160a01b031615612bcf576000828152601b602090815260408083206006810154905482516314454c8560e31b815260048101919091526024810186905291516001600160a01b039091169263a22a6428926044808201939182900301818787803b158015612b8d57600080fd5b505af1158015612ba1573d6000803e3d6000fd5b505050506040513d6020811015612bb757600080fd5b50519050612bcb828263ffffffff614d6016565b9150505b6000828152601b6020526040902054612bee908263ffffffff614d6016565b6000838152601b60205260409020558251612c1d9084906002908110612c1057fe5b602002602001015161598a565b15612c4657612c3d612c308360016159be565b879063ffffffff614d4e16565b60019097019695505b505050600101612a99565b50600a54612c7590612c69838563ffffffff614d4e16565b60000385600003615360565b95945050505050565b600754604080516331a9108f60e11b81526004810184905290516000926001600160a01b031691636352211e916024808301926020929190829003018186803b15801561156b57600080fd5b600254600160a01b900460ff1615612d15576040805162461bcd60e51b8152602060048201526009602482015268125cc8131bd8dad95960ba1b604482015290519081900360640190fd5b600e54811015612d68576040805162461bcd60e51b81526020600482015260196024820152784d696e696d756d20616d6f756e742069732031204d6174696360381b604482015290519081900360640190fd5b60048054604080516323b872dd60e01b8152339381019390935230602484015260448301849052516001600160a01b03909116916323b872dd9160648083019260209291908290030181600087803b158015612dc357600080fd5b505af1158015612dd7573d6000803e3d6000fd5b505050506040513d6020811015612ded57600080fd5b5051612e38576040805162461bcd60e51b8152602060048201526015602482015274151c985b9cd9995c881cdd185ad94819985a5b1959605a1b604482015290519081900360640190fd5b612e42828261579d565b5050565b6002546001600160a01b03163314612e8f5760405162461bcd60e51b8152600401808060200182810382526026815260200180615ef86026913960400191505060405180910390fd5b600780546001600160a01b039485166001600160a01b031991821617909155600680549385169382169390931790925560088054919093169116179055565b604080513360208083018290528284018790528351808403850181526060840194859052805190820120601854631b23d15760e21b909552606484018181526084850188905260a48501869052608060c48601908152875160e48701528751949673__Merkle________________________________96636c8f455c9694958b9592948b9490939092610104019185019080838360005b83811015612f7d578181015183820152602001612f65565b50505050905090810190601f168015612faa5780820380516001836020036101000a031916815260200191505b509550505050505060206040518083038186803b158015612fca57600080fd5b505af4158015612fde573d6000803e3d6000fd5b505050506040513d6020811015612ff457600080fd5b5051613039576040805162461bcd60e51b815260206004820152600f60248201526e2bb937b7339030b1b190383937b7b360891b604482015290519081900360640190fd5b6001600160a01b0381166000908152601e602052604081205461306390869063ffffffff614d6016565b600480546040805163a9059cbb60e01b81526001600160a01b038781169482019490945260248101859052905193945091169163a9059cbb916044808201926020929091908290030181600087803b1580156130be57600080fd5b505af11580156130d2573d6000803e3d6000fd5b505050506040513d60208110156130e857600080fd5b50516130f357600080fd5b6130fd8282615b4c565b506001600160a01b03166000908152601e60205260409020929092555050565b601a5460009060ff16613170576040805162461bcd60e51b815260206004820152601660248201527511195b1959d85d1a5bdb881a5cc8191a5cd8589b195960521b604482015290519081900360640190fd5b6000848152601b60205260409020600601546001600160a01b031633146131d9576040805162461bcd60e51b8152602060048201526018602482015277496e76616c696420636f6e7472616374206164647265737360401b604482015290519081900360640190fd5b60048054604080516323b872dd60e01b81526001600160a01b038681169482019490945230602482015260448101879052905192909116916323b872dd916064808201926020929091908290030181600087803b15801561323957600080fd5b505af115801561324d573d6000803e3d6000fd5b505050506040513d602081101561326357600080fd5b5051949350505050565b600090565b600b5481565b613280613333565b61328957600080fd5b600080546040516001600160a01b03909116907f8be0079c531659141344cd1fd0a4f28419497f9722a3daafe3b4186f6b6457e0908390a3600080546001600160a01b0319169055565b600a5481565b60195481565b601e6020526000908152604090205481565b6005546001600160a01b031681565b600c5481565b600a546000908152601d602052604090206001015490565b60125481565b6000546001600160a01b031690565b6000546001600160a01b0316331490565b600a5490565b613352613333565b61335b57600080fd5b61336781600a54615102565b50565b600754604080516331a9108f60e11b8152600481018490529051839233926001600160a01b0390911691636352211e91602480820192602092909190829003018186803b1580156133ba57600080fd5b505afa1580156133ce573d6000803e3d6000fd5b505050506040513d60208110156133e457600080fd5b50516001600160a01b0316146133f957600080fd5b6000828152601b6020526040902060018101546006909101546001600160a01b0316801561347657613473816001600160a01b03166332ba2e536040518163ffffffff1660e01b8152600401602060405180830381600087803b15801561345f57600080fd5b505af115801561264f573d6000803e3d6000fd5b91505b601554613489908363ffffffff614d4e16565b6015556000848152601b6020908152604080832060010183905560048054825163a9059cbb60e01b815233928101929092526024820187905291516001600160a01b039092169363a9059cbb9360448084019491939192918390030190829087803b1580156134f757600080fd5b505af115801561350b573d6000803e3d6000fd5b505050506040513d602081101561352157600080fd5b505161356a576040805162461bcd60e51b8152602060048201526013602482015272496e737566666963656e74207265776172647360681b604482015290519081900360640190fd5b60065460155460408051635b42d93560e11b815260048101889052602481018690526044810192909252516001600160a01b039092169163b685b26a9160648082019260009290919082900301818387803b158015611a6757600080fd5b6003546001600160a01b031681565b60215481565b6135e5613333565b6135ee57600080fd5b6006546017546040805163a3b1d8cb60e01b8152600481018590526024810192909252516001600160a01b039092169163a3b1d8cb9160448082019260009290919082900301818387803b15801561364557600080fd5b505af1158015613659573d6000803e3d6000fd5b50505050606481111561369d5760405162461bcd60e51b8152600401808060200182810382526032815260200180615e726032913960400191505060405180910390fd5b601755565b6000828152601b60205260409020600601546001600160a01b0316331461370b576040805162461bcd60e51b8152602060048201526018602482015277496e76616c696420636f6e7472616374206164647265737360401b604482015290519081900360640190fd5b600a546000908152601d602052604090208054909101905550565b61372e613333565b61373757600080fd5b6000811161378c576040805162461bcd60e51b815260206004820181905260248201527f426c6f636b7320696e74657276616c206d757374206265206e6f6e2d7a65726f604482015290519081900360640190fd5b600f55565b600a546000908152601d602052604090205490565b6002546001600160a01b031633146137ef5760405162461bcd60e51b8152600401808060200182810382526026815260200180615ef86026913960400191505060405180910390fd5b6002805460ff60a01b19169055565b60095490565b6002546001600160a01b0316331461384d5760405162461bcd60e51b8152600401808060200182810382526026815260200180615ef86026913960400191505060405180910390fd5b600480546040805163a9059cbb60e01b81526001600160a01b0386811694820194909452602481018590529051929091169163a9059cbb916044808201926020929091908290030181600087803b1580156138a757600080fd5b505af11580156138bb573d6000803e3d6000fd5b505050506040513d60208110156138d157600080fd5b5051612e42576040805162461bcd60e51b815260206004820152600c60248201526b111c985a5b8819985a5b195960a21b604482015290519081900360640190fd5b61391b613333565b61392457600080fd5b600d91909155600e55565b6000808080805b85518167ffffffffffffffff161015613b2e576060613961878367ffffffffffffffff166041615bb7565b60408051631df4cba560e21b8152600481018b81526024820192835283516044830152835193945060009373__ECVerify______________________________936377d32e94938e9388939092916064019060208501908083838c5b838110156139d55781810151838201526020016139bd565b50505050905090810190601f168015613a025780820380516001836020036101000a031916815260200191505b50935050505060206040518083038186803b158015613a2057600080fd5b505af4158015613a34573d6000803e3d6000fd5b505050506040513d6020811015613a4a57600080fd5b50516001600160a01b038082166000818152601c60205260409020549293509086161415613a7a57505050613b2e565b613a83816115ab565b8015613aa05750846001600160a01b0316826001600160a01b0316115b15613b23576000818152601b60205260409020805460069091015492955085926001600160a01b03168015613b0e57613b0b816001600160a01b0316633a09bf446040518163ffffffff1660e01b815260040160206040518083038186803b15801561263b57600080fd5b91505b613b1e888363ffffffff614d4e16565b975050505b505050604101613936565b5081613b5f6001613b5360036112d06002613b47613791565b9063ffffffff614ce816565b9063ffffffff614d4e16565b9350935050509250929050565b6000336001600160a01b0316600560009054906101000a90046001600160a01b03166001600160a01b031663d580b4186040518163ffffffff1660e01b815260040160206040518083038186803b158015613bc657600080fd5b505afa158015613bda573d6000803e3d6000fd5b505050506040513d6020811015613bf057600080fd5b50516001600160a01b03161480613c2057506000848152601b60205260409020600601546001600160a01b031633145b613c6c576040805162461bcd60e51b8152602060048201526018602482015277496e76616c696420636f6e7472616374206164647265737360401b604482015290519081900360640190fd5b600480546040805163a9059cbb60e01b81526001600160a01b0386811694820194909452602481018790529051929091169163a9059cbb916044808201926020929091908290030181600087803b15801561323957600080fd5b6008546001600160a01b031681565b600254600160a01b900460ff1615613d20576040805162461bcd60e51b8152602060048201526009602482015268125cc8131bd8dad95960ba1b604482015290519081900360640190fd5b6000858152601f60209081526040808320601b90925290912060028201546001600160a01b0316331480613d5b575086613d5933611515565b145b613d965760405162461bcd60e51b8152600401808060200182810382526024815260200180615ea46024913960400191505060405180910390fd5b601654600b54613dad90829063ffffffff614d4e16565b6001840154600a54613dc49163ffffffff614d6016565b81613dcb57fe5b061015613e095760405162461bcd60e51b8152600401808060200182810382526030815260200180615ec86030913960400191505060405180910390fd5b6000878152601b6020526040902080546006909101546001600160a01b03168015613e6d57613e6a816001600160a01b0316633a09bf446040518163ffffffff1660e01b815260040160206040518083038186803b15801561263b57600080fd5b91505b83548210613fd75760048054600286015486546040805163a9059cbb60e01b81526001600160a01b039384169581019590955260248501919091525191169163a9059cbb9160448083019260209291908290030181600087803b158015613ed357600080fd5b505af1158015613ee7573d6000803e3d6000fd5b505050506040513d6020811015613efd57600080fd5b5051613f44576040805162461bcd60e51b8152602060048201526011602482015270109a59081c995d1d5c9b8819985a5b1959607a1b604482015290519081900360640190fd5b60008085556002850180546001600160a01b0319169055600a54600186015560065484546040805163e12ab1af60e01b8152600481018e9052602481018e90526044810192909252516001600160a01b039092169263e12ab1af9260648084019382900301818387803b158015613fba57600080fd5b505af1158015613fce573d6000803e3d6000fd5b5050505061421c565b613fe389600a54615102565b60048054604080516323b872dd60e01b81523393810193909352306024840152604483018b9052516001600160a01b03909116916323b872dd9160648083019260209291908290030181600087803b15801561403e57600080fd5b505af1158015614052573d6000803e3d6000fd5b505050506040513d602081101561406857600080fd5b50516140b1576040805162461bcd60e51b8152602060048201526013602482015272151c985b9cd9995c881999594819985a5b1959606a1b604482015290519081900360640190fd5b60028401548454604080516020601f8a01819004810282018101909252888152614103936001600160a01b031692918b91908b908b908190840183828082843760009201919091525061538292505050565b600e54881015614156576040805162461bcd60e51b81526020600482015260196024820152784d696e696d756d20616d6f756e742069732031204d6174696360381b604482015290519081900360640190fd5b600284015461416e906001600160a01b03168961579d565b6006546013546001600160a01b039091169063e12ab1af9061419790600163ffffffff614d6016565b8b87600001546040518463ffffffff1660e01b8152600401808481526020018381526020018281526020019350505050600060405180830381600087803b1580156141e157600080fd5b505af11580156141f5573d6000803e3d6000fd5b50505060008a8152601f6020526040812090815560020180546001600160a01b0319169055505b505050505050505050565b61422f613333565b61423857600080fd5b6000811161424557600080fd5b600654600c5460408051632dbe9d3160e21b8152600481018590526024810192909252516001600160a01b039092169163b6fa74c49160448082019260009290919082900301818387803b15801561429c57600080fd5b505af11580156142b0573d6000803e3d6000fd5b505050600c9190915550565b60155481565b600254600160a01b900460ff1681565b6000815160401461431b576040805162461bcd60e51b815260206004820152600e60248201526d496e76616c6964207075626b657960901b604482015290519081900360640190fd5b50805160209091012090565b602080526000908152604090205481565b600754604080516331a9108f60e11b8152600481018490529051839233926001600160a01b0390911691636352211e91602480820192602092909190829003018186803b15801561438857600080fd5b505afa15801561439c573d6000803e3d6000fd5b505050506040513d60208110156143b257600080fd5b50516001600160a01b0316146143c757600080fd5b6000828152601b60205260409020600301541580159061440c5750600a546009546000848152601b60205260409020600301546144099163ffffffff614d4e16565b11155b801561443f575060036000838152601b6020526040902060060154600160a01b900460ff16600381111561443c57fe5b14155b61444857600080fd5b6000828152601b602052604090205460125461446a908263ffffffff614d6016565b60125560075460408051630852cd8d60e31b81526004810186905290516001600160a01b03909216916342966c689160248082019260009290919082900301818387803b1580156144ba57600080fd5b505af11580156144ce573d6000803e3d6000fd5b5050506000848152601b6020818152604080842060058101546001600160a01b039081168652601c84528286206000199055898652938352600601805460ff60a01b1916600360a01b17905560048054825163a9059cbb60e01b8152339281019290925260248201889052915191909316945063a9059cbb936044808501948390030190829087803b15801561456357600080fd5b505af1158015614577573d6000803e3d6000fd5b505050506040513d602081101561458d57600080fd5b50516145d8576040805162461bcd60e51b8152602060048201526015602482015274151c985b9cd9995c881cdd185ad94819985a5b1959605a1b604482015290519081900360640190fd5b6006546012546040805163ae2e26b160e01b815233600482015260248101879052604481018590526064810192909252516001600160a01b039092169163ae2e26b19160848082019260009290919082900301818387803b15801561463c57600080fd5b505af1158015614650573d6000803e3d6000fd5b50505050505050565b614661613333565b61466a57600080fd5b600880546001600160a01b0319166001600160a01b0392909216919091179055565b614694613333565b61469d57600080fd5b600081116146aa57600080fd5b600654600b5460408051635071805360e11b8152600481018590526024810192909252516001600160a01b039092169163a0e300a69160448082019260009290919082900301818387803b15801561470157600080fd5b505af1158015614715573d6000803e3d6000fd5b505050600b82905550600981905561473481600463ffffffff614d1616565b6016819055600a5461474b9163ffffffff614d4e16565b60195550565b614759613333565b61476257600080fd5b6001600160a01b03811661477557600080fd5b6003546040516001600160a01b038084169216907f211c9015fc81c0dbd45bd99f0f29fc1c143bfd53442d5ffd722bbbef7a887fe990600090a3600380546001600160a01b0319166001600160a01b0392909216919091179055565b6000908152601b602052604090205490565b6006546001600160a01b031681565b6002546001600160a01b0316331461483b5760405162461bcd60e51b8152600401808060200182810382526026815260200180615ef86026913960400191505060405180910390fd5b601a805460ff1916911515919091179055565b614856613333565b61485f57600080fd5b61336781615c36565b600754604080516331a9108f60e11b8152600481018590529051849233926001600160a01b0390911691636352211e91602480820192602092909190829003018186803b1580156148b857600080fd5b505afa1580156148cc573d6000803e3d6000fd5b505050506040513d60208110156148e257600080fd5b50516001600160a01b0316146148f757600080fd5b6000614902836142d2565b90506001600160a01b0381161580159061493257506001600160a01b0381166000908152601c6020526040902054155b614975576040805162461bcd60e51b815260206004820152600f60248201526e496e76616c6964205369676e65722160881b604482015290519081900360640190fd5b60105460008581526020805260409020546149959163ffffffff614d4e16565b61499d613344565b10156149f0576040805162461bcd60e51b815260206004820152601a60248201527f496e76616c696420636865636b706f696e74206e756d62657221000000000000604482015290519081900360640190fd5b6006546000858152601b6020908152604080832060050154905163b80fbce560e01b8152600481018981526001600160a01b039283166024830181905287841660448401526080606484019081528a5160848501528a51949097169663b80fbce5968c9692958a958d959460a49091019290860191908190849084905b83811015614a85578181015183820152602001614a6d565b50505050905090810190601f168015614ab25780820380516001836020036101000a031916815260200191505b5095505050505050600060405180830381600087803b158015614ad457600080fd5b505af1158015614ae8573d6000803e3d6000fd5b5050506000858152601b6020818152604080842060050180546001600160a01b039081168652601c8452828620600019905587168086529185208a90559389905291905281546001600160a01b03191617905550614b44613344565b600094855260208052604090942093909355505050565b614b63613333565b614b6c57600080fd5b306001600160a01b0316816001600160a01b0316638da5cb5b6040518163ffffffff1660e01b815260040160206040518083038186803b158015614baf57600080fd5b505afa158015614bc3573d6000803e3d6000fd5b505050506040513d6020811015614bd957600080fd5b50516001600160a01b031614614c205760405162461bcd60e51b815260040180806020018281038252602d815260200180615f1e602d913960400191505060405180910390fd5b6000918252601b602052604090912060060180546001600160a01b0319166001600160a01b03909216919091179055565b614c59613333565b614c6257600080fd5b600a5461474b908263ffffffff614d4e16565b6002546001600160a01b03163314614cbe5760405162461bcd60e51b8152600401808060200182810382526026815260200180615ef86026913960400191505060405180910390fd5b6002805460ff60a01b1916600160a01b179055565b600e5481565b6004546001600160a01b031681565b600082614cf75750600061165f565b82820282848281614d0457fe5b0414614d0f57600080fd5b9392505050565b6000808211614d2457600080fd5b6000828481614d2f57fe5b04949350505050565b6000818310614d475781614d0f565b5090919050565b600082820183811015614d0f57600080fd5b600082821115614d6f57600080fd5b50900390565b600a54600090614d8c90600163ffffffff614d4e16565b6000818152601d60205260408082208054600a8054855283852054909101825560019182018054825486528486208401540190558054845291832083815501919091555550565b60008080805b84518167ffffffffffffffff16101561505e576060614e04868367ffffffffffffffff166041615bb7565b60408051631df4cba560e21b8152600481018a81526024820192835283516044830152835193945060009373__ECVerify______________________________936377d32e94938d9388939092916064019060208501908083838c5b83811015614e78578181015183820152602001614e60565b50505050905090810190601f168015614ea55780820380516001836020036101000a031916815260200191505b50935050505060206040518083038186803b158015614ec357600080fd5b505af4158015614ed7573d6000803e3d6000fd5b505050506040513d6020811015614eed57600080fd5b50516001600160a01b038082166000818152601c60205260409020549293509086161415614f1d5750505061505e565b614f26816115ab565b8015614f435750846001600160a01b0316826001600160a01b0316115b15615053576000818152601b60205260408120600681015493965086939091906001600160a01b0316156150065760068201546001600160a01b031663b37f25908d8f614f8f876147d1565b6040518463ffffffff1660e01b8152600401808481526020018381526020018281526020019350505050602060405180830381600087803b158015614fd357600080fd5b505af1158015614fe7573d6000803e3d6000fd5b505050506040513d6020811015614ffd57600080fd5b5051905061503e565b816000015490506150386150278e6112d08f85614ce890919063ffffffff16565b60018401549063ffffffff614d4e16565b60018301555b61504e888263ffffffff614d4e16565b975050505b505050604101614dd9565b5061507d61506a613791565b600c546112d0908563ffffffff614ce816565b601454909650615093908763ffffffff614d4e16565b6014556150ad6001613b5360036112d06002613b47613791565b8210156150f7576040805162461bcd60e51b8152602060048201526013602482015272322f332b31206e6f6e2d6d616a6f726974792160681b604482015290519081900360640190fd5b509395945050505050565b6000828152601b60205260408120549061511b84612c7e565b6000858152601b6020526040812060038101869055600181015460069091015492935090916001600160a01b031615615214576000868152601b602090815260408083206006015481516332ba2e5360e01b815291516001600160a01b03909116936151a79385936332ba2e539360048083019491928390030190829087803b15801561345f57600080fd5b9150806001600160a01b031663753868e36040518163ffffffff1660e01b8152600401602060405180830381600087803b1580156151e457600080fd5b505af11580156151f8573d6000803e3d6000fd5b505050506040513d602081101561520e57600080fd5b50519250505b600480546040805163a9059cbb60e01b81526001600160a01b0387811694820194909452602481018590529051929091169163a9059cbb916044808201926020929091908290030181600087803b15801561526e57600080fd5b505af1158015615282573d6000803e3d6000fd5b505050506040513d602081101561529857600080fd5b50516152eb576040805162461bcd60e51b815260206004820152601760248201527f52657761726473207472616e73666572206661696c6564000000000000000000604482015290519081900360640190fd5b6152fd85838601600003600019615360565b60065460408051635e04d48360e01b81526001600160a01b038681166004830152602482018a9052604482018990526064820188905291519190921691635e04d48391608480830192600092919082900301818387803b15801561200557600080fd5b6000928352601d60205260409092208054909101815560010180549091019055565b600061538d826142d2565b6001600160a01b0381166000908152601c6020526040902054909150156153f0576040805162461bcd60e51b8152602060048201526012602482015271496e76616c6964205369676e6572206b657960701b604482015290519081900360640190fd5b601254615403908563ffffffff614d4e16565b60128190555060405180610100016040528085815260200160008152602001600a5481526020016000815260200160008152602001826001600160a01b03168152602001846154535760006154e6565b6008546013546006546005546040805163d4ad267360e01b815260048101949094526001600160a01b03928316602485015290821660448401525192169163d4ad2673916064808201926020929091908290030181600087803b1580156154b957600080fd5b505af11580156154cd573d6000803e3d6000fd5b505050506040513d60208110156154e357600080fd5b50515b6001600160a01b03168152602001600190526013546000908152601b60209081526040918290208351815590830151600182015590820151600282015560608201516003808301919091556080830151600483015560a08301516005830180546001600160a01b039283166001600160a01b03199182161790915560c08501516006850180549190931691161780825560e08501519260ff60a01b1990911690600160a01b90849081111561559757fe5b021790555050600a5460138054600090815260208052604080822093909355600754915483516340c10f1960e01b81526001600160a01b038b8116600483015260248201929092529351921693506340c10f19926044808201939182900301818387803b15801561560757600080fd5b505af115801561561b573d6000803e3d6000fd5b50506013546001600160a01b0384166000908152601c60205260409020555050600a5461564a90856001615360565b600a54601f6000601354815260200190815260200160002060010181905550600660009054906101000a90046001600160a01b03166001600160a01b03166333a8383c8284601354600a54896012546040518763ffffffff1660e01b815260040180876001600160a01b03166001600160a01b0316815260200180602001868152602001858152602001848152602001838152602001828103825287818151815260200191508051906020019080838360005b838110156157155781810151838201526020016156fd565b50505050905090810190601f1680156157425780820380516001836020036101000a031916815260200191505b50975050505050505050600060405180830381600087803b15801561576657600080fd5b505af115801561577a573d6000803e3d6000fd5b505060135461579392509050600163ffffffff614d4e16565b6013555050505050565b6021546157b0908263ffffffff614d4e16565b6021556006546040805163a449d79560e01b81526001600160a01b038581166004830152602482018590529151919092169163a449d79591604480830192600092919082900301818387803b15801561580857600080fd5b505af115801561581c573d6000803e3d6000fd5b505050505050565b600081831015614d475781614d0f565b61583c615e36565b506040805180820190915281518152602082810190820152919050565b606061586482615ca4565b61586d57600080fd5b600061587883615cde565b90506060816040519080825280602002602001820160405280156158b657816020015b6158a3615e36565b81526020019060019003908161589b5790505b50905060006158c88560200151615d3a565b60208601510190506000805b8481101561591f576158e583615d9d565b915060405180604001604052808381526020018481525084828151811061590857fe5b6020908102919091010152918101916001016158d4565b509195945050505050565b80516000901580159061593f57508151602110155b61594857600080fd5b60006159578360200151615d3a565b8351602080860151830180519394509184900392919083101561598157826020036101000a820491505b50949350505050565b805160009060011461599b57600080fd5b6020820151805160001a9081156159b35760016159b6565b60005b949350505050565b6000828152601b602052604081206006015481906001600160a01b031615615a64576000848152601b6020908152604080832060060154815163753868e360e01b815291516001600160a01b039091169363753868e393600480850194919392918390030190829087803b158015615a3557600080fd5b505af1158015615a49573d6000803e3d6000fd5b505050506040513d6020811015615a5f57600080fd5b505190505b600a546000858152601b60205260409020600301819055615a8b908463ffffffff614d4e16565b6000858152601b60205260408082206004808201949094556006808201805460ff60a01b1916600160a11b17905554600a5460059092015483516381dc101b60e01b81529586018a905260248601929092526001600160a01b03918216604486015291519116926381dc101b92606480830193919282900301818387803b158015615b1557600080fd5b505af1158015615b29573d6000803e3d6000fd5b5050506000858152601b60205260409020546159b691508263ffffffff614d4e16565b602154615b5f908263ffffffff614d6016565b6021556006546040805163122b648160e01b81526001600160a01b038581166004830152602482018590529151919092169163122b648191604480830192600092919082900301818387803b15801561580857600080fd5b606081830184511015615bc957600080fd5b606082158015615be457604051915060208201604052615981565b6040519150601f8416801560200281840101858101878315602002848b0101015b81831015615c1d578051835260209283019201615c05565b5050858452601f01601f19166040525050949350505050565b6001600160a01b038116615c4957600080fd5b600080546040516001600160a01b03808516939216917f8be0079c531659141344cd1fd0a4f28419497f9722a3daafe3b4186f6b6457e091a3600080546001600160a01b0319166001600160a01b0392909216919091179055565b8051600090615cb55750600061159a565b6020820151805160001a9060c0821015615cd45760009250505061159a565b5060019392505050565b8051600090615cef5750600061159a565b60008090506000615d038460200151615d3a565b602085015185519181019250015b80821015615d3157615d2282615d9d565b60019093019290910190615d11565b50909392505050565b8051600090811a6080811015615d5457600091505061159a565b60b8811080615d6f575060c08110801590615d6f575060f881105b15615d7e57600191505061159a565b60c0811015615d925760b51901905061159a565b60f51901905061159a565b80516000908190811a6080811015615db85760019150615e2f565b60b8811015615dcd57607e1981019150615e2f565b60c0811015615dfa5760b78103600185019450806020036101000a85510460018201810193505050615e2f565b60f8811015615e0f5760be1981019150615e2f565b60f78103600185019450806020036101000a855104600182018101935050505b5092915050565b60405180604001604052806000815260200160008152509056fe56616c696461746f7220736574205468726573686f6c642065786365656465642150726f706f73657220626f6e75732073686f756c64206265206c657373207468616e206f7220657175616c20746f203130304f6e6c7920626964646572206f722076616c696461746f722063616e20636f6e6669726d436f6e6669726d6174696f6e206973206e6f7420616c6c6f776564206265666f72652061756374696f6e506572696f644f6e6c7920676f7665726e616e636520636f6e747261637420697320617574686f72697a65644f776e6572206f662076616c696461746f72207368617265206d757374206265207374616b654d616e61676572756e6b6e6f776e2076616c696461746f72206f72206e6f2064656c65676174696f6e20656e61626c6564a265627a7a723158208691ec2f51f40051ad2b5f9e575ea5af36c597bea9a578edac44eb569af1ae1e64736f6c634300050b0032",
  "source": "pragma solidity ^0.5.2;\n\nimport {IERC20} from \"openzeppelin-solidity/contracts/token/ERC20/IERC20.sol\";\nimport {Math} from \"openzeppelin-solidity/contracts/math/Math.sol\";\nimport {SafeMath} from \"openzeppelin-solidity/contracts/math/SafeMath.sol\";\nimport {Ownable} from \"openzeppelin-solidity/contracts/ownership/Ownable.sol\";\nimport {RLPReader} from \"solidity-rlp/contracts/RLPReader.sol\";\n\nimport {BytesLib} from \"../../common/lib/BytesLib.sol\";\nimport {ECVerify} from \"../../common/lib/ECVerify.sol\";\nimport {Merkle} from \"../../common/lib/Merkle.sol\";\nimport {Lockable} from \"../../common/mixin/Lockable.sol\";\nimport {RootChainable} from \"../../common/mixin/RootChainable.sol\";\nimport {Registry} from \"../../common/Registry.sol\";\nimport {IStakeManager} from \"./IStakeManager.sol\";\nimport {IValidatorShare} from \"../validatorShare/IValidatorShare.sol\";\nimport {StakingInfo} from \"../StakingInfo.sol\";\nimport {StakingNFT} from \"./StakingNFT.sol\";\nimport {ValidatorShareFactory} from \"../validatorShare/ValidatorShareFactory.sol\";\nimport {ISlashingManager} from \"../slashing/ISlashingManager.sol\";\nimport {StakeManagerStorage} from \"./StakeManagerStorage.sol\";\nimport {Governable} from \"../../common/governance/Governable.sol\";\n\n\ncontract StakeManager is IStakeManager, StakeManagerStorage {\n    using SafeMath for uint256;\n    using ECVerify for bytes32;\n    using Merkle for bytes32;\n    using RLPReader for bytes;\n    using RLPReader for RLPReader.RLPItem;\n\n    uint256 private constant INCORRECT_VALIDATOR_ID = 2**256 - 1;\n\n    modifier onlyStaker(uint256 validatorId) {\n        require(NFTContract.ownerOf(validatorId) == msg.sender);\n        _;\n    }\n\n    constructor() public Lockable(address(0x0)) {}\n\n    function setDelegationEnabled(bool enabled) public onlyGovernance {\n        delegationEnabled = enabled;\n    }\n\n    // TopUp heimdall fee\n    function topUpForFee(address user, uint256 heimdallFee) public onlyWhenUnlocked {\n        require(heimdallFee >= minHeimdallFee, \"Minimum amount is 1 Matic\");\n        require(token.transferFrom(msg.sender, address(this), heimdallFee), \"Transfer stake failed\");\n        _topUpForFee(user, heimdallFee);\n    }\n\n    function ownerOf(uint256 tokenId) public view returns (address) {\n        return NFTContract.ownerOf(tokenId);\n    }\n\n    function epoch() public view returns (uint256) {\n        return currentEpoch;\n    }\n\n    function withdrawalDelay() public view returns (uint256) {\n        return WITHDRAWAL_DELAY;\n    }\n\n    function validatorStake(uint256 validatorId) public view returns (uint256) {\n        return validators[validatorId].amount;\n    }\n\n    function _topUpForFee(address user, uint256 amount) private {\n        totalHeimdallFee = totalHeimdallFee.add(amount);\n        logger.logTopUpFee(user, amount);\n    }\n\n    function _claimFee(address user, uint256 amount) private {\n        totalHeimdallFee = totalHeimdallFee.sub(amount);\n        logger.logClaimFee(user, amount);\n    }\n\n    function claimFee(uint256 accumFeeAmount, uint256 index, bytes memory proof) public {\n        address user = msg.sender;\n        //Ignoring other params becuase rewards distribution is on chain\n        require(\n            keccak256(abi.encode(user, accumFeeAmount)).checkMembership(index, accountStateRoot, proof),\n            \"Wrong acc proof\"\n        );\n        uint256 withdrawAmount = accumFeeAmount.sub(userFeeExit[user]);\n\n        require(token.transfer(user, withdrawAmount));\n        _claimFee(user, withdrawAmount);\n        userFeeExit[user] = accumFeeAmount;\n    }\n\n    function stake(uint256 amount, uint256 heimdallFee, bool acceptDelegation, bytes calldata signerPubkey) external {\n        stakeFor(msg.sender, amount, heimdallFee, acceptDelegation, signerPubkey);\n    }\n\n    function totalStakedFor(address user) external view returns (uint256) {\n        if (user == address(0x0) || NFTContract.balanceOf(user) == 0) {\n            return 0;\n        }\n        return validators[NFTContract.tokenOfOwnerByIndex(user, 0)].amount;\n    }\n\n    function supportsHistory() external pure returns (bool) {\n        return false;\n    }\n\n    function startAuction(uint256 validatorId, uint256 amount) external onlyWhenUnlocked {\n        require(isValidator(validatorId));\n        uint256 senderValidatorId = signerToValidator[msg.sender];\n        // make sure that signer wasn't used already\n        require(\n            NFTContract.balanceOf(msg.sender) == 0 && // existing validators can't bid\n                senderValidatorId != INCORRECT_VALIDATOR_ID,\n            \"Already used address\"\n        );\n        // when dynasty period is updated validators are in cooldown period\n        require(replacementCoolDown == 0 || replacementCoolDown <= currentEpoch, \"Cooldown period\");\n        // (auctionPeriod--dynasty)--(auctionPeriod--dynasty)--(auctionPeriod--dynasty)\n        // if it's auctionPeriod then will get residue smaller then auctionPeriod\n        // from (CurrentPeriod of validator )%(auctionPeriod--dynasty)\n        // make sure that its `auctionPeriod` window\n        // dynasty = 30, auctionPeriod = 7, activationEpoch = 1, currentEpoch = 39\n        // residue 1 = (39-1)% (7+30), if residue <= auctionPeriod it's `auctionPeriod`\n\n        require(\n            (currentEpoch.sub(validators[validatorId].activationEpoch) % dynasty.add(auctionPeriod)) <= auctionPeriod,\n            \"Invalid auction period\"\n        );\n        uint256 perceivedStake = validators[validatorId].amount;\n        address _contract = validators[validatorId].contractAddress;\n        if (_contract != address(0x0)) {\n            perceivedStake = perceivedStake.add(IValidatorShare(_contract).activeAmount());\n        }\n        perceivedStake = Math.max(perceivedStake, validatorAuction[validatorId].amount);\n\n        require(perceivedStake < amount, \"Must bid higher amount\");\n        require(token.transferFrom(msg.sender, address(this), amount), \"Transfer amount failed\");\n\n        Auction storage auction = validatorAuction[validatorId];\n        // create new auction\n        if (validatorAuction[validatorId].amount != 0) {\n            //replace prev auction\n            require(token.transfer(auction.user, auction.amount), \"Token return failed\");\n        }\n        auction.amount = amount;\n        auction.user = msg.sender;\n\n        logger.logStartAuction(validatorId, validators[validatorId].amount, validatorAuction[validatorId].amount);\n    }\n\n    function confirmAuctionBid(\n        uint256 validatorId,\n        uint256 heimdallFee, /** for new validator */\n        bool acceptDelegation,\n        bytes calldata signerPubkey\n    ) external onlyWhenUnlocked {\n        Auction storage auction = validatorAuction[validatorId];\n        Validator storage validator = validators[validatorId];\n        require(\n            msg.sender == auction.user || getValidatorId(msg.sender) == validatorId,\n            \"Only bidder or validator can confirm\"\n        );\n\n        require(\n            currentEpoch.sub(auction.startEpoch) % auctionPeriod.add(dynasty) >= auctionPeriod,\n            \"Confirmation is not allowed before auctionPeriod\"\n        );\n        uint256 perceivedStake = validators[validatorId].amount;\n        address _contract = validators[validatorId].contractAddress;\n        if (_contract != address(0x0)) {\n            perceivedStake = perceivedStake.add(IValidatorShare(_contract).activeAmount());\n        }\n        // validator is last auctioner\n        if (perceivedStake >= auction.amount) {\n            require(token.transfer(auction.user, auction.amount), \"Bid return failed\");\n            //cleanup auction data\n            auction.amount = 0;\n            auction.user = address(0x0);\n            auction.startEpoch = currentEpoch;\n            logger.logConfirmAuction(validatorId, validatorId, validator.amount);\n        } else {\n            // dethrone\n            _unstake(validatorId, currentEpoch);\n            require(token.transferFrom(msg.sender, address(this), heimdallFee), \"Transfer fee failed\");\n            _stakeFor(auction.user, auction.amount, acceptDelegation, signerPubkey);\n            require(heimdallFee >= minHeimdallFee, \"Minimum amount is 1 Matic\");\n            _topUpForFee(auction.user, heimdallFee);\n\n            logger.logConfirmAuction(NFTCounter.sub(1), validatorId, auction.amount);\n            validatorAuction[validatorId].amount = 0;\n            validatorAuction[validatorId].user = address(0x0);\n        }\n    }\n\n    function unstake(uint256 validatorId) external onlyStaker(validatorId) {\n        require(validatorAuction[validatorId].amount == 0, \"Wait for auction completion\");\n        uint256 exitEpoch = currentEpoch.add(1); // notice period\n        require(\n            validators[validatorId].activationEpoch > 0 &&\n                validators[validatorId].deactivationEpoch == 0 &&\n                validators[validatorId].status == Status.Active\n        );\n        _unstake(validatorId, exitEpoch);\n    }\n\n    // Housekeeping function. @todo remove later\n    function forceUnstake(uint256 validatorId) external onlyOwner {\n        _unstake(validatorId, currentEpoch);\n    }\n\n    function transferFunds(uint256 validatorId, uint256 amount, address delegator) external returns (bool) {\n        require(\n            Registry(registry).getSlashingManagerAddress() == msg.sender ||\n                validators[validatorId].contractAddress == msg.sender,\n            \"Invalid contract address\"\n        );\n        return token.transfer(delegator, amount);\n    }\n\n    function delegationDeposit(uint256 validatorId, uint256 amount, address delegator) external returns (bool) {\n        require(delegationEnabled, \"Delegation is disabled\");\n        require(validators[validatorId].contractAddress == msg.sender, \"Invalid contract address\");\n        return token.transferFrom(delegator, address(this), amount);\n    }\n\n    function stakeFor(\n        address user,\n        uint256 amount,\n        uint256 heimdallFee,\n        bool acceptDelegation,\n        bytes memory signerPubkey\n    ) public onlyWhenUnlocked {\n        require(currentValidatorSetSize() < validatorThreshold, \"Validator set Threshold exceeded!\");\n        require(amount > minDeposit, \"min deposit limit failed!\");\n        require(heimdallFee >= minHeimdallFee, \"Minimum amount is 1 Matic\");\n\n        require(token.transferFrom(msg.sender, address(this), amount.add(heimdallFee)), \"Transfer stake failed\");\n        _stakeFor(user, amount, acceptDelegation, signerPubkey);\n        // _topup\n        _topUpForFee(user, heimdallFee);\n    }\n\n    function unstakeClaim(uint256 validatorId) public onlyStaker(validatorId) {\n        // can only claim stake back after WITHDRAWAL_DELAY\n        require(\n            validators[validatorId].deactivationEpoch > 0 &&\n                validators[validatorId].deactivationEpoch.add(WITHDRAWAL_DELAY) <= currentEpoch &&\n                validators[validatorId].status != Status.Unstaked\n        );\n        uint256 amount = validators[validatorId].amount;\n        totalStaked = totalStaked.sub(amount);\n\n        NFTContract.burn(validatorId);\n        signerToValidator[validators[validatorId].signer] = INCORRECT_VALIDATOR_ID;\n        // delete validators[validatorId];\n        validators[validatorId].status = Status.Unstaked;\n        require(token.transfer(msg.sender, amount), \"Transfer stake failed\");\n        logger.logUnstaked(msg.sender, validatorId, amount, totalStaked);\n    }\n\n    // slashing and jail interface\n    function restake(uint256 validatorId, uint256 amount, bool stakeRewards)\n        public\n        onlyWhenUnlocked\n        onlyStaker(validatorId)\n    {\n        require(validators[validatorId].deactivationEpoch < currentEpoch, \"No use of restaking\");\n\n        if (amount > 0) {\n            require(token.transferFrom(msg.sender, address(this), amount), \"Transfer stake\");\n        }\n        if (stakeRewards) {\n            amount = amount.add(validators[validatorId].reward);\n            address _contract = validators[validatorId].contractAddress;\n            if (_contract != address(0x0)) {\n                amount = amount.add(IValidatorShare(_contract).withdrawRewardsValidator());\n            }\n            validators[validatorId].reward = 0;\n        }\n        totalStaked = totalStaked.add(amount);\n        validators[validatorId].amount = validators[validatorId].amount.add(amount);\n        validatorState[currentEpoch].amount = (validatorState[currentEpoch].amount + int256(amount));\n\n        logger.logStakeUpdate(validatorId);\n        logger.logReStaked(validatorId, validators[validatorId].amount, totalStaked);\n    }\n\n    function withdrawRewards(uint256 validatorId) public onlyStaker(validatorId) {\n        uint256 amount = validators[validatorId].reward;\n        address _contract = validators[validatorId].contractAddress;\n        if (_contract != address(0x0)) {\n            amount = amount.add(IValidatorShare(_contract).withdrawRewardsValidator());\n        }\n        totalRewardsLiquidated = totalRewardsLiquidated.add(amount);\n        validators[validatorId].reward = 0;\n        require(token.transfer(msg.sender, amount), \"Insufficent rewards\");\n        logger.logClaimRewards(validatorId, amount, totalRewardsLiquidated);\n    }\n\n    function getValidatorId(address user) public view returns (uint256) {\n        return NFTContract.tokenOfOwnerByIndex(user, 0);\n    }\n\n    // set staking Token\n    function setToken(address _token) public onlyOwner {\n        require(_token != address(0x0));\n        token = IERC20(_token);\n    }\n\n    // Change the number of validators required to allow a passed header root\n    function updateValidatorThreshold(uint256 newThreshold) public onlyOwner {\n        require(newThreshold > 0);\n        logger.logThresholdChange(newThreshold, validatorThreshold);\n        validatorThreshold = newThreshold;\n    }\n\n    function updateCheckPointBlockInterval(uint256 _blocks) public onlyOwner {\n        require(_blocks > 0, \"Blocks interval must be non-zero\");\n        checkPointBlockInterval = _blocks;\n    }\n\n    // Change reward for each checkpoint\n    function updateCheckpointReward(uint256 newReward) public onlyOwner {\n        require(newReward > 0);\n        logger.logRewardUpdate(newReward, CHECKPOINT_REWARD);\n        CHECKPOINT_REWARD = newReward;\n    }\n\n    // Change delegation contract for a validator\n    // @note: Users must exit before this update or all funds may get lost\n    function updateContractAddress(uint256 validatorId, address newContractAddress) public onlyOwner {\n        require(\n            IValidatorShare(newContractAddress).owner() == address(this),\n            \"Owner of validator share must be stakeManager\"\n        );\n        validators[validatorId].contractAddress = newContractAddress;\n    }\n\n    // Update delegation contract factory\n    function updateContractFactory(address newFactory) public onlyOwner {\n        factory = ValidatorShareFactory(newFactory);\n    }\n\n    function updateValidatorState(uint256 validatorId, int256 amount) public {\n        require(validators[validatorId].contractAddress == msg.sender, \"Invalid contract address\");\n        validatorState[currentEpoch].amount = (validatorState[currentEpoch].amount + amount);\n    }\n\n    function updateDynastyValue(uint256 newDynasty) public onlyOwner {\n        require(newDynasty > 0);\n        logger.logDynastyValueChange(newDynasty, dynasty);\n        dynasty = newDynasty;\n        WITHDRAWAL_DELAY = newDynasty;\n        auctionPeriod = newDynasty.div(4);\n        // set cooldown period\n        replacementCoolDown = currentEpoch.add(auctionPeriod);\n    }\n\n    // Housekeeping function. @todo remove later\n    function stopAuctions(uint256 forNCheckpoints) public onlyOwner {\n        replacementCoolDown = currentEpoch.add(forNCheckpoints);\n    }\n\n    function updateProposerBonus(uint256 newProposerBonus) public onlyOwner {\n        logger.logProposerBonusChange(newProposerBonus, proposerBonus);\n        require(newProposerBonus <= 100, \"Proposer bonus should be less than or equal to 100\");\n        proposerBonus = newProposerBonus;\n    }\n\n    function updateSignerUpdateLimit(uint256 _limit) public onlyOwner {\n        signerUpdateLimit = _limit;\n    }\n\n    function updateMinAmounts(uint256 _minDeposit, uint256 _minHeimdallFee) public onlyOwner {\n        minDeposit = _minDeposit;\n        minHeimdallFee = _minHeimdallFee;\n    }\n\n    function updateSigner(uint256 validatorId, bytes memory signerPubkey) public onlyStaker(validatorId) {\n        address _signer = pubToAddress(signerPubkey);\n        require(_signer != address(0x0) && signerToValidator[_signer] == 0, \"Invalid Signer!\");\n        require(epoch() >= latestSignerUpdateEpoch[validatorId].add(signerUpdateLimit), \"Invalid checkpoint number!\");\n\n        // update signer event\n        logger.logSignerChange(validatorId, validators[validatorId].signer, _signer, signerPubkey);\n\n        signerToValidator[validators[validatorId].signer] = INCORRECT_VALIDATOR_ID;\n        signerToValidator[_signer] = validatorId;\n        validators[validatorId].signer = _signer;\n        // reset update time to current time\n        latestSignerUpdateEpoch[validatorId] = epoch();\n    }\n\n    function currentValidatorSetSize() public view returns (uint256) {\n        return uint256(validatorState[currentEpoch].stakerCount);\n    }\n\n    function currentValidatorSetTotalStake() public view returns (uint256) {\n        return uint256(validatorState[currentEpoch].amount);\n    }\n\n    function getValidatorContract(uint256 validatorId) public view returns (address) {\n        return validators[validatorId].contractAddress;\n    }\n\n    function isValidator(uint256 validatorId) public view returns (bool) {\n        return (validators[validatorId].amount > 0 &&\n            (validators[validatorId].activationEpoch != 0 && validators[validatorId].activationEpoch <= currentEpoch) &&\n            (validators[validatorId].deactivationEpoch == 0 ||\n                validators[validatorId].deactivationEpoch > currentEpoch) &&\n            validators[validatorId].status == Status.Active);\n    }\n\n    function checkSignatures(\n        uint256 blockInterval,\n        bytes32 voteHash,\n        bytes32 stateRoot,\n        address proposer,\n        bytes memory sigs\n    ) public onlyRootChain returns (uint256) {\n        // checkpoint rewards are based on BlockInterval multiplied on `CHECKPOINT_REWARD`\n        // for bigger checkpoints reward is capped at `CHECKPOINT_REWARD`\n        // if interval is 50% of checkPointBlockInterval then reward R is half of `CHECKPOINT_REWARD`\n        // and then stakePower is 90% of currentValidatorSetTotalStake then final reward is 90% of R\n        uint256 _reward = blockInterval.mul(CHECKPOINT_REWARD).div(checkPointBlockInterval);\n        _reward = Math.min(CHECKPOINT_REWARD, _reward);\n        uint256 _proposerBonus = _reward.mul(proposerBonus).div(100);\n        Validator storage _proposer = validators[signerToValidator[proposer]];\n        if (_proposer.contractAddress != address(0x0)) {\n            IValidatorShare(_proposer.contractAddress).addProposerBonus(_proposerBonus, _proposer.amount);\n        } else {\n            _proposer.reward = _proposer.reward.add(_proposerBonus);\n        }\n\n        _reward = _reward.sub(_proposerBonus);\n        uint256 stakePower = currentValidatorSetTotalStake();\n        // update stateMerkleTree root for accounts balance on heimdall chain\n        accountStateRoot = stateRoot;\n        _finalizeCommit();\n        return checkSignature(stakePower, _reward, voteHash, sigs);\n    }\n\n    function checkSignature(uint256 stakePower, uint256 _reward, bytes32 voteHash, bytes memory sigs)\n        internal\n        returns (uint256)\n    {\n        // total voting power\n        uint256 _stakePower;\n        address lastAdd; // cannot have address(0x0) as an owner\n        for (uint64 i = 0; i < sigs.length; i += 65) {\n            bytes memory sigElement = BytesLib.slice(sigs, i, 65);\n            address signer = voteHash.ecrecovery(sigElement);\n\n            uint256 validatorId = signerToValidator[signer];\n            // check if signer is staker and not proposer\n            if (signer == lastAdd) {\n                break;\n            } else if (isValidator(validatorId) && signer > lastAdd) {\n                lastAdd = signer;\n                Validator storage validator = validators[validatorId];\n                uint256 valPow;\n                // add delegation power\n                if (validator.contractAddress != address(0x0)) {\n                    valPow = IValidatorShare(validator.contractAddress).updateRewards(\n                        _reward,\n                        stakePower,\n                        validatorStake(validatorId)\n                    );\n                } else {\n                    valPow = validator.amount;\n                    validator.reward = validator.reward.add(valPow.mul(_reward).div(stakePower));\n                }\n                _stakePower = _stakePower.add(valPow);\n            }\n        }\n\n        _reward = CHECKPOINT_REWARD.mul(_stakePower).div(currentValidatorSetTotalStake());\n        totalRewards = totalRewards.add(_reward);\n        require(_stakePower >= currentValidatorSetTotalStake().mul(2).div(3).add(1), \"2/3+1 non-majority!\");\n        return _reward;\n    }\n\n    function slash(bytes memory _slashingInfoList) public returns (uint256) {\n        require(Registry(registry).getSlashingManagerAddress() == msg.sender, \"Sender must be slashing manager!\");\n        RLPReader.RLPItem[] memory slashingInfoList = _slashingInfoList.toRlpItem().toList();\n        int256 valJailed = 0;\n        uint256 jailedAmount = 0;\n        uint256 _totalAmount;\n        for (uint256 i = 0; i < slashingInfoList.length; i++) {\n            RLPReader.RLPItem[] memory slashData = slashingInfoList[i].toList();\n            uint256 validatorId = slashData[0].toUint();\n            uint256 _amount = slashData[1].toUint();\n            _totalAmount = _totalAmount.add(_amount);\n            if (validators[validatorId].contractAddress != address(0x0)) {\n                uint256 delSlashedAmount = IValidatorShare(validators[validatorId].contractAddress).slash(\n                    validators[validatorId].amount,\n                    _amount\n                );\n                _amount = _amount.sub(delSlashedAmount);\n            }\n            validators[validatorId].amount = validators[validatorId].amount.sub(_amount);\n            if (slashData[2].toBoolean()) {\n                jailedAmount = jailedAmount.add(_jail(validatorId, 1));\n                valJailed++;\n            }\n        }\n\n        //update timeline\n        updateTimeLine(currentEpoch, -int256(_totalAmount.add(jailedAmount)), -valJailed);\n\n        return _totalAmount;\n    }\n\n    function unJail(uint256 validatorId) public onlyStaker(validatorId) {\n        require(validators[validatorId].status == Status.Locked);\n        require(validators[validatorId].jailTime <= currentEpoch, \"Incomplete jail period\");\n\n        uint256 amount = validators[validatorId].amount;\n        require(amount >= minDeposit);\n\n        uint256 delegationAmount = 0;\n        if (validators[validatorId].contractAddress != address(0x0)) {\n            delegationAmount = IValidatorShare(validators[validatorId].contractAddress).unlockContract();\n        }\n\n        // undo timline so that validator is normal validator\n        updateTimeLine(currentEpoch, int256(amount.add(delegationAmount)), 1);\n\n        validators[validatorId].deactivationEpoch = 0;\n        validators[validatorId].status = Status.Active;\n        logger.logUnJailed(validatorId, validators[validatorId].signer);\n    }\n\n    function _jail(uint256 validatorId, uint256 _jailCheckpoints) internal returns (uint256) {\n        uint256 delegationAmount = 0;\n        if (validators[validatorId].contractAddress != address(0x0)) {\n            delegationAmount = IValidatorShare(validators[validatorId].contractAddress).lockContract();\n        }\n        validators[validatorId].deactivationEpoch = currentEpoch;\n        validators[validatorId].jailTime = currentEpoch.add(_jailCheckpoints);\n        validators[validatorId].status = Status.Locked;\n        logger.logJailed(validatorId, currentEpoch, validators[validatorId].signer);\n        return validators[validatorId].amount.add(delegationAmount);\n    }\n\n    function _stakeFor(address user, uint256 amount, bool acceptDelegation, bytes memory signerPubkey) internal {\n        address signer = pubToAddress(signerPubkey);\n        require(signerToValidator[signer] == 0, \"Invalid Signer key\");\n\n        totalStaked = totalStaked.add(amount);\n        validators[NFTCounter] = Validator({\n            reward: 0,\n            amount: amount,\n            activationEpoch: currentEpoch,\n            deactivationEpoch: 0,\n            jailTime: 0,\n            signer: signer,\n            contractAddress: acceptDelegation ? factory.create(NFTCounter, address(logger), registry) : address(0x0),\n            status: Status.Active\n        });\n\n        latestSignerUpdateEpoch[NFTCounter] = currentEpoch;\n        NFTContract.mint(user, NFTCounter);\n\n        signerToValidator[signer] = NFTCounter;\n        updateTimeLine(currentEpoch, int256(amount), 1);\n        // no Auctions for 1 dynasty\n        validatorAuction[NFTCounter].startEpoch = currentEpoch;\n        logger.logStaked(signer, signerPubkey, NFTCounter, currentEpoch, amount, totalStaked);\n        NFTCounter = NFTCounter.add(1);\n    }\n\n    function _unstake(uint256 validatorId, uint256 exitEpoch) internal {\n        uint256 amount = validators[validatorId].amount;\n        address validator = ownerOf(validatorId);\n\n        validators[validatorId].deactivationEpoch = exitEpoch;\n\n        // unbond all delegators in future\n        int256 delegationAmount = 0;\n        uint256 rewards = validators[validatorId].reward;\n        if (validators[validatorId].contractAddress != address(0x0)) {\n            IValidatorShare validatorShare = IValidatorShare(validators[validatorId].contractAddress);\n            rewards = rewards.add(validatorShare.withdrawRewardsValidator());\n            delegationAmount = int256(validatorShare.lockContract());\n        }\n        require(token.transfer(validator, rewards), \"Rewards transfer failed\");\n        //  update future\n        updateTimeLine(exitEpoch, -(int256(amount) + delegationAmount), -1);\n\n        logger.logUnstakeInit(validator, validatorId, exitEpoch, amount);\n    }\n\n    function _finalizeCommit() internal {\n        uint256 nextEpoch = currentEpoch.add(1);\n        // update totalstake and validator count\n        validatorState[nextEpoch].amount = (validatorState[currentEpoch].amount + validatorState[nextEpoch].amount);\n        validatorState[nextEpoch].stakerCount = (validatorState[currentEpoch].stakerCount +\n            validatorState[nextEpoch].stakerCount);\n\n        // erase old data/history\n        delete validatorState[currentEpoch];\n        currentEpoch = nextEpoch;\n    }\n\n    function updateTimeLine(uint256 _epoch, int256 amount, int256 stakerCount) private {\n        validatorState[_epoch].amount += amount;\n        validatorState[_epoch].stakerCount += stakerCount;\n    }\n\n    function pubToAddress(bytes memory pub) public pure returns (address) {\n        require(pub.length == 64, \"Invalid pubkey\");\n        return address(uint160(uint256(keccak256(pub))));\n    }\n\n    function verifyConsensus(bytes32 voteHash, bytes memory sigs) public view returns (uint256, uint256) {\n        // total voting power\n        uint256 _stakePower;\n        address lastAdd; // cannot have address(0x0) as an owner\n        for (uint64 i = 0; i < sigs.length; i += 65) {\n            bytes memory sigElement = BytesLib.slice(sigs, i, 65);\n            address signer = voteHash.ecrecovery(sigElement);\n\n            uint256 validatorId = signerToValidator[signer];\n            // check if signer is staker and not proposer\n            if (signer == lastAdd) {\n                break;\n            } else if (isValidator(validatorId) && signer > lastAdd) {\n                lastAdd = signer;\n                uint256 amount = validators[validatorId].amount;\n                address contractAddress = validators[validatorId].contractAddress;\n                // add delegation power\n                if (contractAddress != address(0x0)) {\n                    amount = amount.add(\n                        IValidatorShare(contractAddress).activeAmount() // dummy interface\n                    );\n                }\n                _stakePower = _stakePower.add(amount);\n            }\n        }\n\n        return (_stakePower, currentValidatorSetTotalStake().mul(2).div(3).add(1));\n    }\n\n    function drainValidatorShares(uint256 validatorId, address token, address payable destination, uint256 amount)\n        external\n        onlyGovernance\n    {\n        address contractAddr = validators[validatorId].contractAddress;\n        require(contractAddr != address(0x0), \"unknown validator or no delegation enabled\");\n        IValidatorShare validatorShare = IValidatorShare(contractAddr);\n        validatorShare.drain(token, destination, amount);\n    }\n\n    function drain(address destination, uint256 amount) external onlyGovernance {\n        require(token.transfer(destination, amount), \"Drain failed\");\n    }\n\n    function reinitialize(address _NFTContract, address _stakingLogger, address _validatorShareFactory)\n        external\n        onlyGovernance\n    {\n        NFTContract = StakingNFT(_NFTContract);\n        logger = StakingInfo(_stakingLogger);\n        factory = ValidatorShareFactory(_validatorShareFactory);\n    }\n}\n",
  "sourcePath": "/Users/arth/Documents/Projects/contracts/contracts/staking/stakeManager/StakeManager.sol",
  "compiler": {
    "name": "solc",
    "version": "0.5.11+commit.c082d0b4.Emscripten.clang"
  },
  "schemaVersion": "3.0.14",
  "updatedAt": "2020-05-27T11:07:39.856Z",
  "devdoc": {
    "methods": {
      "changeRootChain(address)": {
        "details": "Allows the current owner to change root chain address.",
        "params": {
          "newRootChain": "The address to new rootchain."
        }
      },
      "isOwner()": {
        "return": "true if `msg.sender` is the owner of the contract."
      },
      "owner()": {
        "return": "the address of the owner."
      },
      "renounceOwnership()": {
        "details": "Allows the current owner to relinquish control of the contract. It will not be possible to call the functions with the `onlyOwner` modifier anymore."
      },
      "transferOwnership(address)": {
        "details": "Allows the current owner to transfer control of the contract to a newOwner.",
        "params": {
          "newOwner": "The address to transfer ownership to."
        }
      }
    }
  },
  "userdoc": {
    "methods": {
      "renounceOwnership()": {
        "notice": "Renouncing ownership will leave the contract without an owner, thereby removing any functionality that is only available to the owner."
      }
    }
  }
}