{
  "contractName": "ValidatorShare",
  "abi": [
    {
      "constant": false,
      "inputs": [
        {
          "internalType": "address",
          "name": "spender",
          "type": "address"
        },
        {
          "internalType": "uint256",
          "name": "value",
          "type": "uint256"
        }
      ],
      "name": "approve",
      "outputs": [
        {
          "internalType": "bool",
          "name": "",
          "type": "bool"
        }
      ],
      "payable": false,
      "stateMutability": "nonpayable",
      "type": "function"
    },
    {
      "constant": true,
      "inputs": [],
      "name": "lastCommissionUpdate",
      "outputs": [
        {
          "internalType": "uint256",
          "name": "",
          "type": "uint256"
        }
      ],
      "payable": false,
      "stateMutability": "view",
      "type": "function"
    },
    {
      "constant": true,
      "inputs": [],
      "name": "totalSupply",
      "outputs": [
        {
          "internalType": "uint256",
          "name": "",
          "type": "uint256"
        }
      ],
      "payable": false,
      "stateMutability": "view",
      "type": "function"
    },
    {
      "constant": false,
      "inputs": [
        {
          "internalType": "address",
          "name": "from",
          "type": "address"
        },
        {
          "internalType": "address",
          "name": "to",
          "type": "address"
        },
        {
          "internalType": "uint256",
          "name": "value",
          "type": "uint256"
        }
      ],
      "name": "transferFrom",
      "outputs": [
        {
          "internalType": "bool",
          "name": "",
          "type": "bool"
        }
      ],
      "payable": false,
      "stateMutability": "nonpayable",
      "type": "function"
    },
    {
      "constant": false,
      "inputs": [
        {
          "internalType": "address",
          "name": "spender",
          "type": "address"
        },
        {
          "internalType": "uint256",
          "name": "addedValue",
          "type": "uint256"
        }
      ],
      "name": "increaseAllowance",
      "outputs": [
        {
          "internalType": "bool",
          "name": "",
          "type": "bool"
        }
      ],
      "payable": false,
      "stateMutability": "nonpayable",
      "type": "function"
    },
    {
      "constant": true,
      "inputs": [],
      "name": "activeAmount",
      "outputs": [
        {
          "internalType": "uint256",
          "name": "",
          "type": "uint256"
        }
      ],
      "payable": false,
      "stateMutability": "view",
      "type": "function"
    },
    {
      "constant": true,
      "inputs": [],
      "name": "stakingLogger",
      "outputs": [
        {
          "internalType": "contract StakingInfo",
          "name": "",
          "type": "address"
        }
      ],
      "payable": false,
      "stateMutability": "view",
      "type": "function"
    },
    {
      "constant": true,
      "inputs": [],
      "name": "governance",
      "outputs": [
        {
          "internalType": "contract IGovernance",
          "name": "",
          "type": "address"
        }
      ],
      "payable": false,
      "stateMutability": "view",
      "type": "function"
    },
    {
      "constant": true,
      "inputs": [],
      "name": "withdrawPool",
      "outputs": [
        {
          "internalType": "uint256",
          "name": "",
          "type": "uint256"
        }
      ],
      "payable": false,
      "stateMutability": "view",
      "type": "function"
    },
    {
      "constant": true,
      "inputs": [],
      "name": "validatorId",
      "outputs": [
        {
          "internalType": "uint256",
          "name": "",
          "type": "uint256"
        }
      ],
      "payable": false,
      "stateMutability": "view",
      "type": "function"
    },
    {
      "constant": true,
      "inputs": [],
      "name": "validatorRewards",
      "outputs": [
        {
          "internalType": "uint256",
          "name": "",
          "type": "uint256"
        }
      ],
      "payable": false,
      "stateMutability": "view",
      "type": "function"
    },
    {
      "constant": true,
      "inputs": [],
      "name": "commissionRate",
      "outputs": [
        {
          "internalType": "uint256",
          "name": "",
          "type": "uint256"
        }
      ],
      "payable": false,
      "stateMutability": "view",
      "type": "function"
    },
    {
      "constant": true,
      "inputs": [
        {
          "internalType": "address",
          "name": "owner",
          "type": "address"
        }
      ],
      "name": "balanceOf",
      "outputs": [
        {
          "internalType": "uint256",
          "name": "",
          "type": "uint256"
        }
      ],
      "payable": false,
      "stateMutability": "view",
      "type": "function"
    },
    {
      "constant": false,
      "inputs": [],
      "name": "renounceOwnership",
      "outputs": [],
      "payable": false,
      "stateMutability": "nonpayable",
      "type": "function"
    },
    {
      "constant": true,
      "inputs": [],
      "name": "stakeManager",
      "outputs": [
        {
          "internalType": "contract IStakeManager",
          "name": "",
          "type": "address"
        }
      ],
      "payable": false,
      "stateMutability": "view",
      "type": "function"
    },
    {
      "constant": true,
      "inputs": [],
      "name": "totalStake",
      "outputs": [
        {
          "internalType": "uint256",
          "name": "",
          "type": "uint256"
        }
      ],
      "payable": false,
      "stateMutability": "view",
      "type": "function"
    },
    {
      "constant": true,
      "inputs": [],
      "name": "withdrawShares",
      "outputs": [
        {
          "internalType": "uint256",
          "name": "",
          "type": "uint256"
        }
      ],
      "payable": false,
      "stateMutability": "view",
      "type": "function"
    },
    {
      "constant": true,
      "inputs": [
        {
          "internalType": "address",
          "name": "",
          "type": "address"
        }
      ],
      "name": "delegators",
      "outputs": [
        {
          "internalType": "uint256",
          "name": "share",
          "type": "uint256"
        },
        {
          "internalType": "uint256",
          "name": "withdrawEpoch",
          "type": "uint256"
        }
      ],
      "payable": false,
      "stateMutability": "view",
      "type": "function"
    },
    {
      "constant": true,
      "inputs": [],
      "name": "owner",
      "outputs": [
        {
          "internalType": "address",
          "name": "",
          "type": "address"
        }
      ],
      "payable": false,
      "stateMutability": "view",
      "type": "function"
    },
    {
      "constant": true,
      "inputs": [],
      "name": "isOwner",
      "outputs": [
        {
          "internalType": "bool",
          "name": "",
          "type": "bool"
        }
      ],
      "payable": false,
      "stateMutability": "view",
      "type": "function"
    },
    {
      "constant": true,
      "inputs": [],
      "name": "minAmount",
      "outputs": [
        {
          "internalType": "uint256",
          "name": "",
          "type": "uint256"
        }
      ],
      "payable": false,
      "stateMutability": "view",
      "type": "function"
    },
    {
      "constant": true,
      "inputs": [],
      "name": "rewards",
      "outputs": [
        {
          "internalType": "uint256",
          "name": "",
          "type": "uint256"
        }
      ],
      "payable": false,
      "stateMutability": "view",
      "type": "function"
    },
    {
      "constant": false,
      "inputs": [
        {
          "internalType": "address",
          "name": "spender",
          "type": "address"
        },
        {
          "internalType": "uint256",
          "name": "subtractedValue",
          "type": "uint256"
        }
      ],
      "name": "decreaseAllowance",
      "outputs": [
        {
          "internalType": "bool",
          "name": "",
          "type": "bool"
        }
      ],
      "payable": false,
      "stateMutability": "nonpayable",
      "type": "function"
    },
    {
      "constant": false,
      "inputs": [],
      "name": "unlock",
      "outputs": [],
      "payable": false,
      "stateMutability": "nonpayable",
      "type": "function"
    },
    {
      "constant": false,
      "inputs": [
        {
          "internalType": "address",
          "name": "to",
          "type": "address"
        },
        {
          "internalType": "uint256",
          "name": "value",
          "type": "uint256"
        }
      ],
      "name": "transfer",
      "outputs": [
        {
          "internalType": "bool",
          "name": "",
          "type": "bool"
        }
      ],
      "payable": false,
      "stateMutability": "nonpayable",
      "type": "function"
    },
    {
      "constant": true,
      "inputs": [],
      "name": "locked",
      "outputs": [
        {
          "internalType": "bool",
          "name": "",
          "type": "bool"
        }
      ],
      "payable": false,
      "stateMutability": "view",
      "type": "function"
    },
    {
      "constant": true,
      "inputs": [
        {
          "internalType": "address",
          "name": "owner",
          "type": "address"
        },
        {
          "internalType": "address",
          "name": "spender",
          "type": "address"
        }
      ],
      "name": "allowance",
      "outputs": [
        {
          "internalType": "uint256",
          "name": "",
          "type": "uint256"
        }
      ],
      "payable": false,
      "stateMutability": "view",
      "type": "function"
    },
    {
      "constant": true,
      "inputs": [],
      "name": "delegation",
      "outputs": [
        {
          "internalType": "bool",
          "name": "",
          "type": "bool"
        }
      ],
      "payable": false,
      "stateMutability": "view",
      "type": "function"
    },
    {
      "constant": true,
      "inputs": [
        {
          "internalType": "address",
          "name": "",
          "type": "address"
        }
      ],
      "name": "amountStaked",
      "outputs": [
        {
          "internalType": "uint256",
          "name": "",
          "type": "uint256"
        }
      ],
      "payable": false,
      "stateMutability": "view",
      "type": "function"
    },
    {
      "constant": false,
      "inputs": [
        {
          "internalType": "address",
          "name": "newOwner",
          "type": "address"
        }
      ],
      "name": "transferOwnership",
      "outputs": [],
      "payable": false,
      "stateMutability": "nonpayable",
      "type": "function"
    },
    {
      "constant": true,
      "inputs": [],
      "name": "validatorDelegatorRatio",
      "outputs": [
        {
          "internalType": "uint256",
          "name": "",
          "type": "uint256"
        }
      ],
      "payable": false,
      "stateMutability": "view",
      "type": "function"
    },
    {
      "constant": false,
      "inputs": [],
      "name": "lock",
      "outputs": [],
      "payable": false,
      "stateMutability": "nonpayable",
      "type": "function"
    },
    {
      "inputs": [
        {
          "internalType": "address",
          "name": "_registry",
          "type": "address"
        },
        {
          "internalType": "uint256",
          "name": "_validatorId",
          "type": "uint256"
        },
        {
          "internalType": "address",
          "name": "_stakingLogger",
          "type": "address"
        },
        {
          "internalType": "address",
          "name": "_stakeManager",
          "type": "address"
        }
      ],
      "payable": false,
      "stateMutability": "nonpayable",
      "type": "constructor"
    },
    {
      "anonymous": false,
      "inputs": [
        {
          "indexed": true,
          "internalType": "address",
          "name": "from",
          "type": "address"
        },
        {
          "indexed": true,
          "internalType": "address",
          "name": "to",
          "type": "address"
        },
        {
          "indexed": false,
          "internalType": "uint256",
          "name": "value",
          "type": "uint256"
        }
      ],
      "name": "Transfer",
      "type": "event"
    },
    {
      "anonymous": false,
      "inputs": [
        {
          "indexed": true,
          "internalType": "address",
          "name": "owner",
          "type": "address"
        },
        {
          "indexed": true,
          "internalType": "address",
          "name": "spender",
          "type": "address"
        },
        {
          "indexed": false,
          "internalType": "uint256",
          "name": "value",
          "type": "uint256"
        }
      ],
      "name": "Approval",
      "type": "event"
    },
    {
      "anonymous": false,
      "inputs": [
        {
          "indexed": true,
          "internalType": "address",
          "name": "previousOwner",
          "type": "address"
        },
        {
          "indexed": true,
          "internalType": "address",
          "name": "newOwner",
          "type": "address"
        }
      ],
      "name": "OwnershipTransferred",
      "type": "event"
    },
    {
      "constant": false,
      "inputs": [
        {
          "internalType": "uint256",
          "name": "newCommissionRate",
          "type": "uint256"
        }
      ],
      "name": "updateCommissionRate",
      "outputs": [],
      "payable": false,
      "stateMutability": "nonpayable",
      "type": "function"
    },
    {
      "constant": false,
      "inputs": [],
      "name": "withdrawRewardsValidator",
      "outputs": [
        {
          "internalType": "uint256",
          "name": "_rewards",
          "type": "uint256"
        }
      ],
      "payable": false,
      "stateMutability": "nonpayable",
      "type": "function"
    },
    {
      "constant": true,
      "inputs": [],
      "name": "exchangeRate",
      "outputs": [
        {
          "internalType": "uint256",
          "name": "",
          "type": "uint256"
        }
      ],
      "payable": false,
      "stateMutability": "view",
      "type": "function"
    },
    {
      "constant": true,
      "inputs": [],
      "name": "withdrawExchangeRate",
      "outputs": [
        {
          "internalType": "uint256",
          "name": "",
          "type": "uint256"
        }
      ],
      "payable": false,
      "stateMutability": "view",
      "type": "function"
    },
    {
      "constant": false,
      "inputs": [
        {
          "internalType": "uint256",
          "name": "_amount",
          "type": "uint256"
        }
      ],
      "name": "buyVoucher",
      "outputs": [],
      "payable": false,
      "stateMutability": "nonpayable",
      "type": "function"
    },
    {
      "constant": false,
      "inputs": [],
      "name": "sellVoucher",
      "outputs": [],
      "payable": false,
      "stateMutability": "nonpayable",
      "type": "function"
    },
    {
      "constant": false,
      "inputs": [],
      "name": "withdrawRewards",
      "outputs": [],
      "payable": false,
      "stateMutability": "nonpayable",
      "type": "function"
    },
    {
      "constant": false,
      "inputs": [],
      "name": "reStake",
      "outputs": [],
      "payable": false,
      "stateMutability": "nonpayable",
      "type": "function"
    },
    {
      "constant": true,
      "inputs": [
        {
          "internalType": "address",
          "name": "user",
          "type": "address"
        }
      ],
      "name": "getLiquidRewards",
      "outputs": [
        {
          "internalType": "uint256",
          "name": "",
          "type": "uint256"
        }
      ],
      "payable": false,
      "stateMutability": "view",
      "type": "function"
    },
    {
      "constant": false,
      "inputs": [],
      "name": "unStakeClaimTokens",
      "outputs": [],
      "payable": false,
      "stateMutability": "nonpayable",
      "type": "function"
    },
    {
      "constant": false,
      "inputs": [
        {
          "internalType": "uint256",
          "name": "valPow",
          "type": "uint256"
        },
        {
          "internalType": "uint256",
          "name": "totalAmountToSlash",
          "type": "uint256"
        }
      ],
      "name": "slash",
      "outputs": [
        {
          "internalType": "uint256",
          "name": "",
          "type": "uint256"
        }
      ],
      "payable": false,
      "stateMutability": "nonpayable",
      "type": "function"
    },
    {
      "constant": false,
      "inputs": [
        {
          "internalType": "address",
          "name": "token",
          "type": "address"
        },
        {
          "internalType": "address payable",
          "name": "destination",
          "type": "address"
        },
        {
          "internalType": "uint256",
          "name": "amount",
          "type": "uint256"
        }
      ],
      "name": "drain",
      "outputs": [],
      "payable": false,
      "stateMutability": "nonpayable",
      "type": "function"
    },
    {
      "constant": false,
      "inputs": [],
      "name": "unlockContract",
      "outputs": [
        {
          "internalType": "uint256",
          "name": "",
          "type": "uint256"
        }
      ],
      "payable": false,
      "stateMutability": "nonpayable",
      "type": "function"
    },
    {
      "constant": false,
      "inputs": [],
      "name": "lockContract",
      "outputs": [
        {
          "internalType": "uint256",
          "name": "",
          "type": "uint256"
        }
      ],
      "payable": false,
      "stateMutability": "nonpayable",
      "type": "function"
    }
  ],
  "bytecode": "0x6080604052600a600c55670de0b6b3a7640000600d556011805460ff1916600117905534801561002e57600080fd5b5060405161222f38038061222f8339818101604052608081101561005157600080fd5b5080516020820151604080840151606090940151600080546001600160a01b03191633178082559251949593949192839283926001600160a01b039290921691907f8be0079c531659141344cd1fd0a4f28419497f9722a3daafe3b4186f6b6457e0908290a3600580546001600160a01b039092166001600160a01b03199092169190911790555050505050612143806100ec6000396000f3fe608060405234801561001057600080fd5b50600436106102895760003560e01c80637542ff951161015c578063a9059cbb116100ce578063df5cf72311610087578063df5cf723146105dc578063eba8a266146105e4578063ef40a670146105ec578063f2fde38b14610612578063f3c65e5f14610638578063f83d08ba1461064057610289565b8063a9059cbb14610534578063abf59fc914610560578063bfb18f2914610596578063c7b8981c1461059e578063cf309012146105a6578063dd62ed3e146105ae57610289565b80638f32d59b116101205780638f32d59b146104c55780639b2cb5d8146104cd5780639ec5a894146104d5578063a22a6428146104dd578063a457c2d714610500578063a69df4b51461052c57610289565b80637542ff95146104665780638b0e9f3f1461046e5780638d086da4146104765780638d23fc611461047e5780638da5cb5b146104bd57610289565b80633d94eb05116102005780635ea1d6f8116101b95780635ea1d6f8146103fa578063676e5550146104025780636bd7ee4f1461042857806370a0823114610430578063715018a614610456578063753868e31461045e57610289565b80633d94eb05146103995780634144574c146103bd5780635aa6e675146103da5780635c42c733146103e25780635c5f7dae146103ea5780635d1e3616146103f257610289565b806323b872dd1161025257806323b872dd1461031757806329ed2b341461034d57806332ba2e5314610355578063395093511461035d5780633a09bf44146103895780633ba0b9a91461039157610289565b8062fa3d501461028e578063095ea7b3146102ad5780630d58a5f3146102ed57806318160ddd1461030757806322f0f2f91461030f575b600080fd5b6102ab600480360360208110156102a457600080fd5b5035610648565b005b6102d9600480360360408110156102c357600080fd5b506001600160a01b0381351690602001356108d9565b604080519115158252519081900360200190f35b6102f56108f0565b60408051918252519081900360200190f35b6102f56108f6565b6102f56108fc565b6102d96004803603606081101561032d57600080fd5b506001600160a01b03813581169160208101359091169060400135610923565b6102ab61097a565b6102f5610d89565b6102d96004803603604081101561037357600080fd5b506001600160a01b038135169060200135610da9565b6102f5610de5565b6102f5610deb565b6103a1610e2e565b604080516001600160a01b039092168252519081900360200190f35b6102ab600480360360208110156103d357600080fd5b5035610e3d565b6103a161113c565b6102f561114b565b6102f5611151565b6102f5611157565b6102f561115d565b6102f56004803603602081101561041857600080fd5b50356001600160a01b0316611163565b6102ab6111d6565b6102f56004803603602081101561044657600080fd5b50356001600160a01b03166114f4565b6102ab61150f565b6102f561156a565b6103a1611597565b6102f56115a6565b6102f56115ac565b6104a46004803603602081101561049457600080fd5b50356001600160a01b03166115b2565b6040805192835260208301919091528051918290030190f35b6103a16115cb565b6102d96115da565b6102f56115eb565b6102f56115f1565b6102f5600480360360408110156104f357600080fd5b50803590602001356115f7565b6102d96004803603604081101561051657600080fd5b506001600160a01b0381351690602001356116bd565b6102ab6116f9565b6102d96004803603604081101561054a57600080fd5b506001600160a01b038135169060200135611751565b6102ab6004803603606081101561057657600080fd5b506001600160a01b0381358116916020810135909116906040013561175e565b6102f561188a565b6102ab6118b2565b6102d9611a96565b6102f5600480360360408110156105c457600080fd5b506001600160a01b0381358116916020013516611aa6565b6102d9611ad1565b6102ab611ada565b6102f56004803603602081101561060257600080fd5b50356001600160a01b0316611d0c565b6102ab6004803603602081101561062857600080fd5b50356001600160a01b0316611d1e565b6102f5611d3b565b6102ab611d41565b600754600854604080516331a9108f60e11b815260048101929092525133926001600160a01b031691636352211e916024808301926020929190829003018186803b15801561069657600080fd5b505afa1580156106aa573d6000803e3d6000fd5b505050506040513d60208110156106c057600080fd5b50516001600160a01b0316146106d557600080fd5b6007546040805163900cf0cf60e01b815290516000926001600160a01b03169163900cf0cf916004808301926020929190829003018186803b15801561071a57600080fd5b505afa15801561072e573d6000803e3d6000fd5b505050506040513d602081101561074457600080fd5b50516007546040805163a7ab696160e01b8152905192935083926107cc926001600160a01b03169163a7ab6961916004808301926020929190829003018186803b15801561079157600080fd5b505afa1580156107a5573d6000803e3d6000fd5b505050506040513d60208110156107bb57600080fd5b5051600b549063ffffffff611d9f16565b1115806107d95750600b54155b6108145760405162461bcd60e51b81526004018080602001828103825260268152602001806120c36026913960400191505060405180910390fd5b60648211156108545760405162461bcd60e51b815260040180806020018281038252602b815260200180612098602b913960400191505060405180910390fd5b600654600854600a54604080516364c6600160e11b81526004810193909352602483018690526044830191909152516001600160a01b039092169163c98cc0029160648082019260009290919082900301818387803b1580156108b657600080fd5b505af11580156108ca573d6000803e3d6000fd5b505050600a92909255600b5550565b60006108e6338484611db8565b5060015b92915050565b600b5481565b60045490565b60006109066115da565b61090f57600080fd5b506005805460ff60a01b1916905560105490565b6000610930848484611e40565b6001600160a01b03841660009081526003602090815260408083203380855292529091205461097091869161096b908663ffffffff611e7816565b611db8565b5060019392505050565b6000610985336114f4565b9050600081116109cb576040805162461bcd60e51b815260206004820152600c60248201526b5a65726f2062616c616e636560a01b604482015290519081900360640190fd5b60006109f660646109ea846109de610deb565b9063ffffffff611e8d16565b9063ffffffff611eb416565b9050610a023383611ed6565b60075460085460408051629ff11560e81b815260048101929092526000848103602484015290516001600160a01b0390931692639ff1150092604480820193929182900301818387803b158015610a5857600080fd5b505af1158015610a6c573d6000803e3d6000fd5b5050336000908152601460205260409020548311159150610b9290505733600090815260146020526040812054610aaa90839063ffffffff611e7816565b6007546008546040805163bc8756a960e01b8152600481019290925260248201849052336044830152519293506001600160a01b039091169163bc8756a9916064808201926020929091908290030181600087803b158015610b0b57600080fd5b505af1158015610b1f573d6000803e3d6000fd5b505050506040513d6020811015610b3557600080fd5b5051610b7e576040805162461bcd60e51b8152602060048201526013602482015272496e737566666963656e74207265776172647360681b604482015290519081900360640190fd5b610b8e828263ffffffff611e7816565b9150505b601054610ba5908263ffffffff611e7816565b6010556000610bc6610bb561188a565b6109ea84606463ffffffff611e8d16565b601254909150610bdc908363ffffffff611d9f16565b601255601354610bf2908263ffffffff611d9f16565b601355604080518082018252828152600754825163900cf0cf60e01b8152925191926020808501936001600160a01b039093169263900cf0cf926004808201939291829003018186803b158015610c4857600080fd5b505afa158015610c5c573d6000803e3d6000fd5b505050506040513d6020811015610c7257600080fd5b50519052336000818152601560209081526040808320855181559482015160019095019490945560149052828120819055600654600854845163f1382b5360e01b815260048101919091526024810193909352604483018690526064830187905292516001600160a01b039093169263f1382b5392608480820193929182900301818387803b158015610d0457600080fd5b505af1158015610d18573d6000803e3d6000fd5b50506006546008546040805163532e19a960e01b81526004810192909252516001600160a01b03909216935063532e19a9925060248082019260009290919082900301818387803b158015610d6c57600080fd5b505af1158015610d80573d6000803e3d6000fd5b50505050505050565b6000610d936115da565b610d9c57600080fd5b5060098054600090915590565b3360008181526003602090815260408083206001600160a01b038716845290915281205490916108e691859061096b908663ffffffff611d9f16565b60105481565b6000610df56108f6565b15610e2657610e21610e056108f6565b6109ea60646109de600f54601054611d9f90919063ffffffff16565b610e29565b60645b905090565b6006546001600160a01b031681565b600554600160a01b900460ff1615610e88576040805162461bcd60e51b8152602060048201526009602482015268125cc8131bd8dad95960ba1b604482015290519081900360640190fd5b6000610e92610deb565b90506000610eab826109ea85606463ffffffff611e8d16565b905060008111610f02576040805162461bcd60e51b815260206004820181905260248201527f496e73756666696369656e7420616d6f756e7420746f20627579207368617265604482015290519081900360640190fd5b3360009081526015602052604090205415610f53576040805162461bcd60e51b815260206004820152600c60248201526b13db99dbda5b99c8195e1a5d60a21b604482015290519081900360640190fd5b610f6860646109ea848463ffffffff611e8d16565b8381610f7057fe5b0683039250610f8a83600e54611d9f90919063ffffffff16565b600e5533600090815260146020526040902054610fad908463ffffffff611d9f16565b336000818152601460209081526040808320949094556007546008548551636901b25360e01b8152600481019190915260248101899052604481019490945293516001600160a01b0390941693636901b25393606480820194918390030190829087803b15801561101d57600080fd5b505af1158015611031573d6000803e3d6000fd5b505050506040513d602081101561104757600080fd5b5061105490503382611f7f565b601054611067908463ffffffff611d9f16565b60105560075460085460408051629ff11560e81b8152600481019290925260248201869052516001600160a01b0390921691639ff115009160448082019260009290919082900301818387803b1580156110c057600080fd5b505af11580156110d4573d6000803e3d6000fd5b50506006546008546040805163c69d057360e01b815260048101929092523360248301526044820188905260648201869052516001600160a01b03909216935063c69d0573925060848082019260009290919082900301818387803b158015610d0457600080fd5b6005546001600160a01b031681565b60125481565b60085481565b60095481565b600a5481565b60008061116f836114f4565b9050806111805760009150506111d1565b60008061119460646109ea856109de610deb565b6001600160a01b0386166000908152601460205260409020549091508082106111ca576111c7828263ffffffff611e7816565b92505b5090925050505b919050565b33600090815260156020908152604091829020600754835163900cf0cf60e01b8152935191936001600160a01b039091169263900cf0cf92600480840193829003018186803b15801561122857600080fd5b505afa15801561123c573d6000803e3d6000fd5b505050506040513d602081101561125257600080fd5b50516007546040805163a7ab696160e01b815290516112d7926001600160a01b03169163a7ab6961916004808301926020929190829003018186803b15801561129a57600080fd5b505afa1580156112ae573d6000803e3d6000fd5b505050506040513d60208110156112c457600080fd5b505160018401549063ffffffff611d9f16565b111580156112e55750805415155b611336576040805162461bcd60e51b815260206004820152601c60248201527f496e636f6d706c657465207769746864726177616c20706572696f6400000000604482015290519081900360640190fd5b600061134d60646109ea84600001546109de61188a565b8254601354919250611365919063ffffffff611e7816565b60135560125461137b908263ffffffff611e7816565b601255600e54611391908263ffffffff611e7816565b600e556007546008546040805163bc8756a960e01b8152600481019290925260248201849052336044830152516001600160a01b039092169163bc8756a9916064808201926020929091908290030181600087803b1580156113f257600080fd5b505af1158015611406573d6000803e3d6000fd5b505050506040513d602081101561141c57600080fd5b5051611465576040805162461bcd60e51b8152602060048201526013602482015272496e737566666963656e74207265776172647360681b604482015290519081900360640190fd5b60065460085460408051636fe003d760e11b8152600481019290925233602483015260448201849052516001600160a01b039092169163dfc007ae9160648082019260009290919082900301818387803b1580156114c257600080fd5b505af11580156114d6573d6000803e3d6000fd5b50503360009081526015602052604081208181556001015550505050565b6001600160a01b031660009081526002602052604090205490565b6115176115da565b61152057600080fd5b600080546040516001600160a01b03909116907f8be0079c531659141344cd1fd0a4f28419497f9722a3daafe3b4186f6b6457e0908390a3600080546001600160a01b0319169055565b60006115746115da565b61157d57600080fd5b506005805460ff60a01b1916600160a01b17905560105490565b6007546001600160a01b031681565b600e5481565b60135481565b6015602052600090815260409020805460019091015482565b6000546001600160a01b031690565b6000546001600160a01b0316331490565b600d5481565b600f5481565b60006116016115da565b61160a57600080fd5b6000611623601254601054611d9f90919063ffffffff16565b9050806116345760009150506108ea565b6000611659611649868463ffffffff611d9f16565b6109ea848763ffffffff611e8d16565b90506000611676836109ea84601254611e8d90919063ffffffff16565b60125490915061168c908263ffffffff611e7816565b6012556116b16116a2838363ffffffff611e7816565b6010549063ffffffff611e7816565b60105550949350505050565b3360008181526003602090815260408083206001600160a01b038716845290915281205490916108e691859061096b908663ffffffff611e7816565b6005546001600160a01b031633146117425760405162461bcd60e51b81526004018080602001828103825260268152602001806120e96026913960400191505060405180910390fd5b6005805460ff60a01b19169055565b60006108e6338484611e40565b6117666115da565b61176f57600080fd5b6001600160a01b0383166117b9576040516001600160a01b0383169082156108fc029083906000818181858888f193505050501580156117b3573d6000803e3d6000fd5b50611885565b826001600160a01b031663a9059cbb83836040518363ffffffff1660e01b815260040180836001600160a01b03166001600160a01b0316815260200182815260200192505050602060405180830381600087803b15801561181957600080fd5b505af115801561182d573d6000803e3d6000fd5b505050506040513d602081101561184357600080fd5b5051611885576040805162461bcd60e51b815260206004820152600c60248201526b111c985a5b8819985a5b195960a21b604482015290519081900360640190fd5b505050565b6000601354600014610e2657610e216013546109ea6064601254611e8d90919063ffffffff16565b60006118bd33611163565b9050600d54811015611916576040805162461bcd60e51b815260206004820152601860248201527f546f6f20736d616c6c207265776172647320616d6f756e740000000000000000604482015290519081900360640190fd5b6000611923610bb5610deb565b905061192f3382611ed6565b600f54611942908363ffffffff611e7816565b600f556007546008546040805163bc8756a960e01b8152600481019290925260248201859052336044830152516001600160a01b039092169163bc8756a9916064808201926020929091908290030181600087803b1580156119a357600080fd5b505af11580156119b7573d6000803e3d6000fd5b505050506040513d60208110156119cd57600080fd5b5051611a16576040805162461bcd60e51b8152602060048201526013602482015272496e737566666963656e74207265776172647360681b604482015290519081900360640190fd5b6006546008546040805163af4cdabf60e01b815260048101929092523360248301526044820185905260648201849052516001600160a01b039092169163af4cdabf9160848082019260009290919082900301818387803b158015611a7a57600080fd5b505af1158015611a8e573d6000803e3d6000fd5b505050505050565b600554600160a01b900460ff1681565b6001600160a01b03918216600090815260036020908152604080832093909416825291909152205490565b60115460ff1681565b6000611ae533611163565b9050600d54811015611b3e576040805162461bcd60e51b815260206004820152601c60248201527f546f6f20736d616c6c207265776172647320746f2072657374616b6500000000604482015290519081900360640190fd5b33600090815260146020526040902054611b5e908263ffffffff611d9f16565b33600090815260146020526040902055600e54611b81908263ffffffff611d9f16565b600e55601054611b97908263ffffffff611d9f16565b60105560075460085460408051629ff11560e81b8152600481019290925260248201849052516001600160a01b0390921691639ff115009160448082019260009290919082900301818387803b158015611bf057600080fd5b505af1158015611c04573d6000803e3d6000fd5b5050600f54611c1c925090508263ffffffff611e7816565b600f556006546008546040805163532e19a960e01b81526004810192909252516001600160a01b039092169163532e19a99160248082019260009290919082900301818387803b158015611c6f57600080fd5b505af1158015611c83573d6000803e3d6000fd5b5050600654600854336000818152601460205260408082205481516201a5a760e71b815260048101959095526024850193909352604484019290925290516001600160a01b03909316945062d2d3809350606480830193919282900301818387803b158015611cf157600080fd5b505af1158015611d05573d6000803e3d6000fd5b5050505050565b60146020526000908152604090205481565b611d266115da565b611d2f57600080fd5b611d3881612029565b50565b600c5481565b6005546001600160a01b03163314611d8a5760405162461bcd60e51b81526004018080602001828103825260268152602001806120e96026913960400191505060405180910390fd5b6005805460ff60a01b1916600160a01b179055565b600082820183811015611db157600080fd5b9392505050565b6001600160a01b038216611dcb57600080fd5b6001600160a01b038316611dde57600080fd5b6001600160a01b03808416600081815260036020908152604080832094871680845294825291829020859055815185815291517f8c5be1e5ebec7d5bd14f71427d1e84f3dd0314c0f7b2291e5b200ac8c7c3b9259281900390910190a3505050565b6040805162461bcd60e51b8152602060048201526008602482015267111a5cd8589b195960c21b604482015290519081900360640190fd5b600082821115611e8757600080fd5b50900390565b600082611e9c575060006108ea565b82820282848281611ea957fe5b0414611db157600080fd5b6000808211611ec257600080fd5b6000828481611ecd57fe5b04949350505050565b6001600160a01b038216611ee957600080fd5b600454611efc908263ffffffff611e7816565b6004556001600160a01b038216600090815260026020526040902054611f28908263ffffffff611e7816565b6001600160a01b0383166000818152600260209081526040808320949094558351858152935191937fddf252ad1be2c89b69c2b068fc378daa952ba7f163c4a11628f55a4df523b3ef929081900390910190a35050565b6001600160a01b038216611f9257600080fd5b600454611fa5908263ffffffff611d9f16565b6004556001600160a01b038216600090815260026020526040902054611fd1908263ffffffff611d9f16565b6001600160a01b03831660008181526002602090815260408083209490945583518581529351929391927fddf252ad1be2c89b69c2b068fc378daa952ba7f163c4a11628f55a4df523b3ef9281900390910190a35050565b6001600160a01b03811661203c57600080fd5b600080546040516001600160a01b03808516939216917f8be0079c531659141344cd1fd0a4f28419497f9722a3daafe3b4186f6b6457e091a3600080546001600160a01b0319166001600160a01b039290921691909117905556fe436f6d6d697373696f6e20726174652073686f756c6420626520696e2072616e6765206f6620302d313030436f6d6d697373696f6e20726174652075706461746520636f6f6c646f776e20706572696f644f6e6c7920676f7665726e616e636520636f6e747261637420697320617574686f72697a6564a265627a7a723158205ef0e24c465dc32e15b14bd1fbbd9d9a5cabd28c44e04edfd70df345d8f5abf964736f6c634300050b0032",
  "source": "pragma solidity ^0.5.2;\nimport {ERC20} from \"openzeppelin-solidity/contracts/token/ERC20/ERC20.sol\";\n\nimport {Registry} from \"../../common/Registry.sol\";\nimport {ValidatorShareStorage} from \"./ValidatorShareStorage.sol\";\n\nimport {Lockable} from \"../../common/mixin/Lockable.sol\";\n\n\ncontract ValidatorShare is ValidatorShareStorage {\n    modifier onlyValidator() {\n        require(stakeManager.ownerOf(validatorId) == msg.sender);\n        _;\n    }\n\n    constructor(address _registry, uint256 _validatorId, address _stakingLogger, address _stakeManager)\n        public\n        Lockable(_stakeManager)\n    {} // dummy constructor\n\n    function updateCommissionRate(uint256 newCommissionRate) external onlyValidator {\n        uint256 epoch = stakeManager.epoch();\n        require( // withdrawalDelay == dynasty\n            (lastCommissionUpdate.add(stakeManager.withdrawalDelay()) <= epoch) || lastCommissionUpdate == 0, // For initial setting of commission rate\n            \"Commission rate update cooldown period\"\n        );\n        require(newCommissionRate <= 100, \"Commission rate should be in range of 0-100\");\n        stakingLogger.logUpdateCommissionRate(validatorId, newCommissionRate, commissionRate);\n        commissionRate = newCommissionRate;\n        lastCommissionUpdate = epoch;\n    }\n\n    function withdrawRewardsValidator() external onlyOwner returns (uint256 _rewards) {\n        _rewards = validatorRewards;\n        validatorRewards = 0;\n    }\n\n    function exchangeRate() public view returns (uint256) {\n        return totalSupply() == 0 ? 100 : activeAmount.add(rewards).mul(100).div(totalSupply());\n    }\n\n    function withdrawExchangeRate() public view returns (uint256) {\n        return withdrawShares == 0 ? 100 : withdrawPool.mul(100).div(withdrawShares);\n    }\n\n    function buyVoucher(uint256 _amount) public onlyWhenUnlocked {\n        uint256 rate = exchangeRate();\n        uint256 share = _amount.mul(100).div(rate);\n        require(share > 0, \"Insufficient amount to buy share\");\n        require(delegators[msg.sender].share == 0, \"Ongoing exit\");\n\n        _amount = _amount - (_amount % rate.mul(share).div(100));\n\n        totalStake = totalStake.add(_amount);\n        amountStaked[msg.sender] = amountStaked[msg.sender].add(_amount);\n        stakeManager.delegationDeposit(validatorId, _amount, msg.sender);\n        _mint(msg.sender, share);\n        activeAmount = activeAmount.add(_amount);\n        stakeManager.updateValidatorState(validatorId, int256(_amount));\n\n        stakingLogger.logShareMinted(validatorId, msg.sender, _amount, share);\n        stakingLogger.logStakeUpdate(validatorId);\n    }\n\n    function sellVoucher() public {\n        uint256 share = balanceOf(msg.sender);\n        require(share > 0, \"Zero balance\");\n        uint256 _amount = exchangeRate().mul(share).div(100);\n        _burn(msg.sender, share);\n        stakeManager.updateValidatorState(validatorId, -int256(_amount));\n\n        if (_amount > amountStaked[msg.sender]) {\n            uint256 _rewards = _amount.sub(amountStaked[msg.sender]);\n            //withdrawTransfer\n            require(stakeManager.transferFunds(validatorId, _rewards, msg.sender), \"Insufficent rewards\");\n            _amount = _amount.sub(_rewards);\n        }\n\n        activeAmount = activeAmount.sub(_amount);\n        uint256 _withdrawPoolShare = _amount.mul(100).div(withdrawExchangeRate());\n        withdrawPool = withdrawPool.add(_amount);\n        withdrawShares = withdrawShares.add(_withdrawPoolShare);\n        delegators[msg.sender] = Delegator({share: _withdrawPoolShare, withdrawEpoch: stakeManager.epoch()});\n        amountStaked[msg.sender] = 0;\n\n        stakingLogger.logShareBurned(validatorId, msg.sender, _amount, share);\n        stakingLogger.logStakeUpdate(validatorId);\n    }\n\n    function withdrawRewards() public {\n        uint256 liquidRewards = getLiquidRewards(msg.sender);\n        require(liquidRewards >= minAmount, \"Too small rewards amount\");\n        uint256 sharesToBurn = liquidRewards.mul(100).div(exchangeRate());\n        _burn(msg.sender, sharesToBurn);\n        rewards = rewards.sub(liquidRewards);\n        require(stakeManager.transferFunds(validatorId, liquidRewards, msg.sender), \"Insufficent rewards\");\n        stakingLogger.logDelClaimRewards(validatorId, msg.sender, liquidRewards, sharesToBurn);\n    }\n\n    function reStake() public {\n        /**\n        restaking is simply buying more shares of pool\n        but those needs to be nonswapable/transferrable to prevent https://en.wikipedia.org/wiki/Tragedy_of_the_commons\n\n        - only active amount is considers as active stake\n        - move reward amount to active stake pool\n        - no shares are minted\n        */\n        uint256 liquidRewards = getLiquidRewards(msg.sender);\n        require(liquidRewards >= minAmount, \"Too small rewards to restake\");\n\n        amountStaked[msg.sender] = amountStaked[msg.sender].add(liquidRewards);\n        totalStake = totalStake.add(liquidRewards);\n        activeAmount = activeAmount.add(liquidRewards);\n        stakeManager.updateValidatorState(validatorId, int256(liquidRewards));\n        rewards = rewards.sub(liquidRewards);\n        stakingLogger.logStakeUpdate(validatorId);\n        stakingLogger.logDelReStaked(validatorId, msg.sender, amountStaked[msg.sender]);\n    }\n\n    function getLiquidRewards(address user) public view returns (uint256) {\n        uint256 share = balanceOf(user);\n        if (share == 0) {\n            return 0;\n        }\n\n        uint256 liquidRewards;\n        uint256 totalTokens = exchangeRate().mul(share).div(100);\n        uint256 stake = amountStaked[user];\n        if (totalTokens >= stake) {\n            liquidRewards = totalTokens.sub(stake);\n        }\n\n        return liquidRewards;\n    }\n\n    function unStakeClaimTokens() public {\n        Delegator storage delegator = delegators[msg.sender];\n        require(\n            delegator.withdrawEpoch.add(stakeManager.withdrawalDelay()) <= stakeManager.epoch() && delegator.share > 0,\n            \"Incomplete withdrawal period\"\n        );\n        uint256 _amount = withdrawExchangeRate().mul(delegator.share).div(100);\n        withdrawShares = withdrawShares.sub(delegator.share);\n        withdrawPool = withdrawPool.sub(_amount);\n\n        totalStake = totalStake.sub(_amount);\n\n        require(stakeManager.transferFunds(validatorId, _amount, msg.sender), \"Insufficent rewards\");\n        stakingLogger.logDelUnstaked(validatorId, msg.sender, _amount);\n        delete delegators[msg.sender];\n    }\n\n    function slash(uint256 valPow, uint256 totalAmountToSlash) external onlyOwner returns (uint256) {\n        uint256 delegationAmount = activeAmount.add(withdrawPool);\n        if (delegationAmount == 0) {\n            return 0;\n        }\n        // total amount to be slashed from delegation pool (active + inactive)\n        uint256 _amountToSlash = delegationAmount.mul(totalAmountToSlash).div(valPow.add(delegationAmount));\n        uint256 _amountToSlashWithdrawalPool = withdrawPool.mul(_amountToSlash).div(delegationAmount);\n        // slash inactive pool\n        withdrawPool = withdrawPool.sub(_amountToSlashWithdrawalPool);\n        activeAmount = activeAmount.sub(_amountToSlash.sub(_amountToSlashWithdrawalPool));\n        return _amountToSlash;\n    }\n\n    function drain(address token, address payable destination, uint256 amount) external onlyOwner {\n        if (token == address(0x0)) {\n            destination.transfer(amount);\n        } else {\n            require(ERC20(token).transfer(destination, amount), \"Drain failed\");\n        }\n    }\n\n    function unlockContract() external onlyOwner returns (uint256) {\n        locked = false;\n        return activeAmount;\n    }\n\n    function lockContract() external onlyOwner returns (uint256) {\n        locked = true;\n        return activeAmount;\n    }\n\n    function _transfer(address from, address to, uint256 value) internal {\n        revert(\"Disabled\");\n    }\n}\n",
  "sourcePath": "/Users/arth/Documents/Projects/contracts/contracts/staking/validatorShare/ValidatorShare.sol",
  "compiler": {
    "name": "solc",
    "version": "0.5.11+commit.c082d0b4.Emscripten.clang"
  },
  "schemaVersion": "3.0.14",
  "updatedAt": "2020-05-27T11:07:39.892Z",
  "devdoc": {
    "methods": {
      "allowance(address,address)": {
        "details": "Function to check the amount of tokens that an owner allowed to a spender.",
        "params": {
          "owner": "address The address which owns the funds.",
          "spender": "address The address which will spend the funds."
        },
        "return": "A uint256 specifying the amount of tokens still available for the spender."
      },
      "approve(address,uint256)": {
        "details": "Approve the passed address to spend the specified amount of tokens on behalf of msg.sender. Beware that changing an allowance with this method brings the risk that someone may use both the old and the new allowance by unfortunate transaction ordering. One possible solution to mitigate this race condition is to first reduce the spender's allowance to 0 and set the desired value afterwards: https://github.com/ethereum/EIPs/issues/20#issuecomment-263524729",
        "params": {
          "spender": "The address which will spend the funds.",
          "value": "The amount of tokens to be spent."
        }
      },
      "balanceOf(address)": {
        "details": "Gets the balance of the specified address.",
        "params": {
          "owner": "The address to query the balance of."
        },
        "return": "A uint256 representing the amount owned by the passed address."
      },
      "decreaseAllowance(address,uint256)": {
        "details": "Decrease the amount of tokens that an owner allowed to a spender. approve should be called when _allowed[msg.sender][spender] == 0. To decrement allowed value is better to use this function to avoid 2 calls (and wait until the first transaction is mined) From MonolithDAO Token.sol Emits an Approval event.",
        "params": {
          "spender": "The address which will spend the funds.",
          "subtractedValue": "The amount of tokens to decrease the allowance by."
        }
      },
      "increaseAllowance(address,uint256)": {
        "details": "Increase the amount of tokens that an owner allowed to a spender. approve should be called when _allowed[msg.sender][spender] == 0. To increment allowed value is better to use this function to avoid 2 calls (and wait until the first transaction is mined) From MonolithDAO Token.sol Emits an Approval event.",
        "params": {
          "addedValue": "The amount of tokens to increase the allowance by.",
          "spender": "The address which will spend the funds."
        }
      },
      "isOwner()": {
        "return": "true if `msg.sender` is the owner of the contract."
      },
      "owner()": {
        "return": "the address of the owner."
      },
      "renounceOwnership()": {
        "details": "Allows the current owner to relinquish control of the contract. It will not be possible to call the functions with the `onlyOwner` modifier anymore."
      },
      "totalSupply()": {
        "details": "Total number of tokens in existence"
      },
      "transfer(address,uint256)": {
        "details": "Transfer token to a specified address",
        "params": {
          "to": "The address to transfer to.",
          "value": "The amount to be transferred."
        }
      },
      "transferFrom(address,address,uint256)": {
        "details": "Transfer tokens from one address to another. Note that while this function emits an Approval event, this is not required as per the specification, and other compliant implementations may not emit the event.",
        "params": {
          "from": "address The address which you want to send tokens from",
          "to": "address The address which you want to transfer to",
          "value": "uint256 the amount of tokens to be transferred"
        }
      },
      "transferOwnership(address)": {
        "details": "Allows the current owner to transfer control of the contract to a newOwner.",
        "params": {
          "newOwner": "The address to transfer ownership to."
        }
      }
    }
  },
  "userdoc": {
    "methods": {
      "renounceOwnership()": {
        "notice": "Renouncing ownership will leave the contract without an owner, thereby removing any functionality that is only available to the owner."
      }
    }
  }
}