{
  "contractName": "ValidatorShareFactory",
  "abi": [
    {
      "constant": false,
      "inputs": [
        {
          "internalType": "uint256",
          "name": "validatorId",
          "type": "uint256"
        },
        {
          "internalType": "address",
          "name": "loggerAddress",
          "type": "address"
        },
        {
          "internalType": "address",
          "name": "registry",
          "type": "address"
        }
      ],
      "name": "create",
      "outputs": [
        {
          "internalType": "address",
          "name": "",
          "type": "address"
        }
      ],
      "payable": false,
      "stateMutability": "nonpayable",
      "type": "function"
    }
  ],
  "bytecode": "0x608060405234801561001057600080fd5b50611576806100206000396000f3fe608060405234801561001057600080fd5b506004361061002b5760003560e01c8063d4ad267314610030575b600080fd5b6100646004803603606081101561004657600080fd5b508035906001600160a01b0360208201358116916040013516610080565b604080516001600160a01b039092168252519081900360200190f35b600081848433604051610092906100e2565b6001600160a01b039485168152602081019390935290831660408084019190915292166060820152905190819003608001906000f0801580156100d9573d6000803e3d6000fd5b50949350505050565b611452806100f08339019056fe6080604052600a600c55670de0b6b3a7640000600d556011805460ff191660011790553480156200002f57600080fd5b506040516200145238038062001452833981810160405260808110156200005557600080fd5b5080516020820151604080840151606090940151600080546001600160a01b031916331780825592519495939491928392839288926001600160a01b03169160008051602062001432833981519152908290a3620000bc816001600160e01b036200011316565b50600580546001600160a01b03199081166001600160a01b03938416179091556008869055600680548216868416179055600780549091169184169190911790555062000109816200026e565b5050505062000302565b620001266001600160e01b03620002cc16565b6200013057600080fd5b6001600160a01b038116620001a657604080517f08c379a000000000000000000000000000000000000000000000000000000000815260206004820152601560248201527f494e56414c49445f50524f58595f414444524553530000000000000000000000604482015290519081900360640190fd5b620001ba816001600160e01b03620002dd16565b62000211576040517f08c379a00000000000000000000000000000000000000000000000000000000081526004018080602001828103825260258152602001806200140d6025913960400191505060405180910390fd5b6001546040516001600160a01b03918216918316907fd32d24edea94f55e932d9a008afc425a8561462d1b1f57bc6e508e9a6b9509e190600090a3600180546001600160a01b0319166001600160a01b0392909216919091179055565b6001600160a01b0381166200028257600080fd5b600080546040516001600160a01b03808516939216916000805160206200143283398151915291a3600080546001600160a01b0319166001600160a01b0392909216919091179055565b6000546001600160a01b0316331490565b60006001600160a01b038216620002f757506000620002fd565b50803b15155b919050565b6110fb80620003126000396000f3fe60806040526004361061021a5760003560e01c80637542ff9511610123578063a69df4b5116100ab578063df5cf7231161006f578063df5cf723146106db578063ef40a670146106f0578063f2fde38b14610723578063f3c65e5f14610756578063f83d08ba1461076b5761021a565b8063a69df4b514610607578063a9059cbb1461061c578063b37f259014610655578063cf3090121461068b578063dd62ed3e146106a05761021a565b80638da5cb5b116100f25780638da5cb5b1461057a5780638f32d59b1461058f5780639b2cb5d8146105a45780639ec5a894146105b9578063a457c2d7146105ce5761021a565b80637542ff95146104ef5780638b0e9f3f146105045780638d086da4146105195780638d23fc611461052e5761021a565b80634555d5c9116101a65780635c60da1b116101755780635c60da1b146104685780635d1e36161461047d5780635ea1d6f81461049257806370a08231146104a7578063715018a6146104da5761021a565b80634555d5c9146104145780635aa6e675146104295780635c42c7331461043e5780635c5f7dae146104535761021a565b806318160ddd116101ed57806318160ddd1461033d57806323b872dd1461035257806339509351146103955780633a09bf44146103ce5780633d94eb05146103e35761021a565b8063025b22bc14610266578063095ea7b3146102995780630d331908146102e65780630d58a5f314610316575b60015460408051602036601f8101829004820283018201909352828252610264936001600160a01b0316926000918190840183828082843760009201919091525061078092505050565b005b34801561027257600080fd5b506102646004803603602081101561028957600080fd5b50356001600160a01b03166107f2565b3480156102a557600080fd5b506102d2600480360360408110156102bc57600080fd5b506001600160a01b0381351690602001356108f7565b604080519115158252519081900360200190f35b3480156102f257600080fd5b506102646004803603604081101561030957600080fd5b508035906020013561090e565b34801561032257600080fd5b5061032b610948565b60408051918252519081900360200190f35b34801561034957600080fd5b5061032b61094e565b34801561035e57600080fd5b506102d26004803603606081101561037557600080fd5b506001600160a01b03813581169160208101359091169060400135610954565b3480156103a157600080fd5b506102d2600480360360408110156103b857600080fd5b506001600160a01b0381351690602001356109ab565b3480156103da57600080fd5b5061032b6109e7565b3480156103ef57600080fd5b506103f86109ed565b604080516001600160a01b039092168252519081900360200190f35b34801561042057600080fd5b5061032b6109fc565b34801561043557600080fd5b506103f8610a01565b34801561044a57600080fd5b5061032b610a10565b34801561045f57600080fd5b5061032b610a16565b34801561047457600080fd5b506103f8610a1c565b34801561048957600080fd5b5061032b610a92565b34801561049e57600080fd5b5061032b610a98565b3480156104b357600080fd5b5061032b600480360360208110156104ca57600080fd5b50356001600160a01b0316610a9e565b3480156104e657600080fd5b50610264610abd565b3480156104fb57600080fd5b506103f8610b18565b34801561051057600080fd5b5061032b610b27565b34801561052557600080fd5b5061032b610b2d565b34801561053a57600080fd5b506105616004803603602081101561055157600080fd5b50356001600160a01b0316610b33565b6040805192835260208301919091528051918290030190f35b34801561058657600080fd5b506103f8610b4c565b34801561059b57600080fd5b506102d2610b5b565b3480156105b057600080fd5b5061032b610b6c565b3480156105c557600080fd5b5061032b610b72565b3480156105da57600080fd5b506102d2600480360360408110156105f157600080fd5b506001600160a01b038135169060200135610b78565b34801561061357600080fd5b50610264610bb4565b34801561062857600080fd5b506102d26004803603604081101561063f57600080fd5b506001600160a01b038135169060200135610c0c565b34801561066157600080fd5b5061032b6004803603606081101561067857600080fd5b5080359060208101359060400135610c19565b34801561069757600080fd5b506102d2610c7d565b3480156106ac57600080fd5b5061032b600480360360408110156106c357600080fd5b506001600160a01b0381358116916020013516610c8d565b3480156106e757600080fd5b506102d2610cb8565b3480156106fc57600080fd5b5061032b6004803603602081101561071357600080fd5b50356001600160a01b0316610cc1565b34801561072f57600080fd5b506102646004803603602081101561074657600080fd5b50356001600160a01b0316610cd3565b34801561076257600080fd5b5061032b610cf0565b34801561077757600080fd5b50610264610cf6565b6107ee826001600160a01b0316631c9486ef6040518163ffffffff1660e01b815260040160206040518083038186803b1580156107bc57600080fd5b505afa1580156107d0573d6000803e3d6000fd5b505050506040513d60208110156107e657600080fd5b505182610d54565b5050565b6107fa610b5b565b61080357600080fd5b6001600160a01b038116610856576040805162461bcd60e51b8152602060048201526015602482015274494e56414c49445f50524f58595f4144445245535360581b604482015290519081900360640190fd5b61085f81610d7c565b61089a5760405162461bcd60e51b815260040180806020018281038252602581526020018061107c6025913960400191505060405180910390fd5b6001546040516001600160a01b03918216918316907fd32d24edea94f55e932d9a008afc425a8561462d1b1f57bc6e508e9a6b9509e190600090a3600180546001600160a01b0319166001600160a01b0392909216919091179055565b6000610904338484610d9b565b5060015b92915050565b610916610b5b565b61091f57600080fd5b600061093660105483610e2390919063ffffffff16565b9050610943838383610e3c565b505050565b600b5481565b60045490565b6000610961848484610ee2565b6001600160a01b0384166000908152600360209081526040808320338085529252909120546109a191869161099c908663ffffffff610faf16565b610d9b565b5060019392505050565b3360008181526003602090815260408083206001600160a01b0387168452909152812054909161090491859061099c908663ffffffff610e2316565b60105481565b6006546001600160a01b031681565b600290565b6005546001600160a01b031681565b60125481565b60085481565b60015460408051631c9486ef60e01b815290516000926001600160a01b031691631c9486ef916004808301926020929190829003018186803b158015610a6157600080fd5b505afa158015610a75573d6000803e3d6000fd5b505050506040513d6020811015610a8b57600080fd5b5051905090565b60095481565b600a5481565b6001600160a01b0381166000908152600260205260409020545b919050565b610ac5610b5b565b610ace57600080fd5b600080546040516001600160a01b03909116907f8be0079c531659141344cd1fd0a4f28419497f9722a3daafe3b4186f6b6457e0908390a3600080546001600160a01b0319169055565b6007546001600160a01b031681565b600e5481565b60135481565b6015602052600090815260409020805460019091015482565b6000546001600160a01b031690565b6000546001600160a01b0316331490565b600d5481565b600f5481565b3360008181526003602090815260408083206001600160a01b0387168452909152812054909161090491859061099c908663ffffffff610faf16565b6005546001600160a01b03163314610bfd5760405162461bcd60e51b81526004018080602001828103825260268152602001806110a16026913960400191505060405180910390fd5b6005805460ff60a01b19169055565b6000610904338484610ee2565b6000610c23610b5b565b610c2c57600080fd5b6000610c4360105484610e2390919063ffffffff16565b90506000610c6785610c5b848963ffffffff610fc416565b9063ffffffff610feb16565b9050610c74818584610e3c565b50949350505050565b600554600160a01b900460ff1681565b6001600160a01b03918216600090815260036020908152604080832093909416825291909152205490565b60115460ff1681565b60146020526000908152604090205481565b610cdb610b5b565b610ce457600080fd5b610ced8161100d565b50565b600c5481565b6005546001600160a01b03163314610d3f5760405162461bcd60e51b81526004018080602001828103825260268152602001806110a16026913960400191505060405180910390fd5b6005805460ff60a01b1916600160a01b179055565b600080825160208401856127105a03f43d604051816000823e828015610d78578282f35b8282fd5b60006001600160a01b038216610d9457506000610ab8565b503b151590565b6001600160a01b038216610dae57600080fd5b6001600160a01b038316610dc157600080fd5b6001600160a01b03808416600081815260036020908152604080832094871680845294825291829020859055815185815291517f8c5be1e5ebec7d5bd14f71427d1e84f3dd0314c0f7b2291e5b200ac8c7c3b9259281900390910190a3505050565b600082820183811015610e3557600080fd5b9392505050565b6000610e5282610c5b858763ffffffff610fc416565b600a5490915015610e9a57610e97610e8a6064610c5b600a54610e7e868a610faf90919063ffffffff16565b9063ffffffff610fc416565b829063ffffffff610e2316565b90505b600954610ead908263ffffffff610e2316565b6009556000610ec2858363ffffffff610faf16565b600f54909150610ed8908263ffffffff610e2316565b600f555050505050565b6001600160a01b038216610ef557600080fd5b6001600160a01b038316600090815260026020526040902054610f1e908263ffffffff610faf16565b6001600160a01b038085166000908152600260205260408082209390935590841681522054610f53908263ffffffff610e2316565b6001600160a01b0380841660008181526002602090815260409182902094909455805185815290519193928716927fddf252ad1be2c89b69c2b068fc378daa952ba7f163c4a11628f55a4df523b3ef92918290030190a3505050565b600082821115610fbe57600080fd5b50900390565b600082610fd357506000610908565b82820282848281610fe057fe5b0414610e3557600080fd5b6000808211610ff957600080fd5b600082848161100457fe5b04949350505050565b6001600160a01b03811661102057600080fd5b600080546040516001600160a01b03808516939216917f8be0079c531659141344cd1fd0a4f28419497f9722a3daafe3b4186f6b6457e091a3600080546001600160a01b0319166001600160a01b039290921691909117905556fe44455354494e4154494f4e5f414444524553535f49535f4e4f545f415f434f4e54524143544f6e6c7920676f7665726e616e636520636f6e747261637420697320617574686f72697a6564a265627a7a72315820c52280a6fd0070dece8553202b062b8f4c00c2645ef0520324bd77aaff65505264736f6c634300050b003244455354494e4154494f4e5f414444524553535f49535f4e4f545f415f434f4e54524143548be0079c531659141344cd1fd0a4f28419497f9722a3daafe3b4186f6b6457e0a265627a7a72315820bc46402e691eebfdf223bb6573d4adcc70412c03ac8c8621645f6ee3b94a1e4364736f6c634300050b0032",
  "source": "pragma solidity ^0.5.2;\n\nimport {ValidatorShareProxy} from \"./ValidatorShareProxy.sol\";\n\n\ncontract ValidatorShareFactory {\n    /**\n    - factory to create new validatorShare contracts\n   */\n\n    function create(uint256 validatorId, address loggerAddress, address registry) public returns (address) {\n        return address(new ValidatorShareProxy(registry, validatorId, loggerAddress, msg.sender));\n    }\n}\n",
  "sourcePath": "/Users/arth/Documents/Projects/contracts/contracts/staking/validatorShare/ValidatorShareFactory.sol",
  "compiler": {
    "name": "solc",
    "version": "0.5.11+commit.c082d0b4.Emscripten.clang"
  },
  "schemaVersion": "3.0.14",
  "updatedAt": "2020-05-27T11:07:39.901Z",
  "devdoc": {
    "methods": {}
  },
  "userdoc": {
    "methods": {
      "create(uint256,address,address)": {
        "notice": "- factory to create new validatorShare contracts"
      }
    }
  }
}